{
  "contractName": "CreatePost",
  "abi": [
    {
      "anonymous": false,
      "inputs": [
        {
          "indexed": false,
          "internalType": "uint256",
          "name": "postId",
          "type": "uint256"
        },
        {
          "indexed": true,
          "internalType": "address",
          "name": "creator",
          "type": "address"
        },
        {
          "indexed": false,
          "internalType": "string",
          "name": "contentHash",
          "type": "string"
        },
        {
          "indexed": false,
          "internalType": "uint256",
          "name": "timestamp",
          "type": "uint256"
        },
        {
          "indexed": false,
          "internalType": "bool",
          "name": "hasMedia",
          "type": "bool"
        },
        {
          "indexed": false,
          "internalType": "string[]",
          "name": "tags",
          "type": "string[]"
        }
      ],
      "name": "PostCreated",
      "type": "event"
    },
    {
      "anonymous": false,
      "inputs": [
        {
          "indexed": false,
          "internalType": "uint256",
          "name": "postId",
          "type": "uint256"
        },
        {
          "indexed": false,
          "internalType": "address",
          "name": "liker",
          "type": "address"
        }
      ],
      "name": "PostLiked",
      "type": "event"
    },
    {
      "anonymous": false,
      "inputs": [
        {
          "indexed": false,
          "internalType": "uint256",
          "name": "postId",
          "type": "uint256"
        },
        {
          "indexed": false,
          "internalType": "address",
          "name": "unliker",
          "type": "address"
        }
      ],
      "name": "PostUnliked",
      "type": "event"
    },
    {
      "anonymous": false,
      "inputs": [
        {
          "indexed": false,
          "internalType": "uint256",
          "name": "postId",
          "type": "uint256"
        },
        {
          "indexed": false,
          "internalType": "address",
          "name": "viewer",
          "type": "address"
        }
      ],
      "name": "PostViewed",
      "type": "event"
    },
    {
      "inputs": [],
      "name": "postCounter",
      "outputs": [
        {
          "internalType": "uint256",
          "name": "",
          "type": "uint256"
        }
      ],
      "stateMutability": "view",
      "type": "function",
      "constant": true
    },
    {
      "inputs": [
        {
          "internalType": "uint256",
          "name": "",
          "type": "uint256"
        },
        {
          "internalType": "uint256",
          "name": "",
          "type": "uint256"
        }
      ],
      "name": "postLikes",
      "outputs": [
        {
          "internalType": "address",
          "name": "",
          "type": "address"
        }
      ],
      "stateMutability": "view",
      "type": "function",
      "constant": true
    },
    {
      "inputs": [
        {
          "internalType": "uint256",
          "name": "",
          "type": "uint256"
        },
        {
          "internalType": "uint256",
          "name": "",
          "type": "uint256"
        }
      ],
      "name": "postTags",
      "outputs": [
        {
          "internalType": "string",
          "name": "",
          "type": "string"
        }
      ],
      "stateMutability": "view",
      "type": "function",
      "constant": true
    },
    {
      "inputs": [
        {
          "internalType": "uint256",
          "name": "",
          "type": "uint256"
        }
      ],
      "name": "postViewCount",
      "outputs": [
        {
          "internalType": "uint256",
          "name": "",
          "type": "uint256"
        }
      ],
      "stateMutability": "view",
      "type": "function",
      "constant": true
    },
    {
      "inputs": [
        {
          "internalType": "uint256",
          "name": "",
          "type": "uint256"
        }
      ],
      "name": "posts",
      "outputs": [
        {
          "internalType": "uint256",
          "name": "postId",
          "type": "uint256"
        },
        {
          "internalType": "address",
          "name": "creator",
          "type": "address"
        },
        {
          "internalType": "string",
          "name": "contentHash",
          "type": "string"
        },
        {
          "internalType": "uint256",
          "name": "timestamp",
          "type": "uint256"
        },
        {
          "internalType": "bool",
          "name": "hasMedia",
          "type": "bool"
        }
      ],
      "stateMutability": "view",
      "type": "function",
      "constant": true
    },
    {
      "inputs": [
        {
          "internalType": "string",
          "name": "",
          "type": "string"
        },
        {
          "internalType": "uint256",
          "name": "",
          "type": "uint256"
        }
      ],
      "name": "tagToPosts",
      "outputs": [
        {
          "internalType": "uint256",
          "name": "",
          "type": "uint256"
        }
      ],
      "stateMutability": "view",
      "type": "function",
      "constant": true
    },
    {
      "inputs": [
        {
          "internalType": "address",
          "name": "",
          "type": "address"
        },
        {
          "internalType": "uint256",
          "name": "",
          "type": "uint256"
        }
      ],
      "name": "userPosts",
      "outputs": [
        {
          "internalType": "uint256",
          "name": "",
          "type": "uint256"
        }
      ],
      "stateMutability": "view",
      "type": "function",
      "constant": true
    },
    {
      "inputs": [
        {
          "internalType": "string",
          "name": "_contentHash",
          "type": "string"
        },
        {
          "internalType": "bool",
          "name": "_hasMedia",
          "type": "bool"
        },
        {
          "internalType": "string[]",
          "name": "_tags",
          "type": "string[]"
        }
      ],
      "name": "createPost",
      "outputs": [],
      "stateMutability": "nonpayable",
      "type": "function"
    },
    {
      "inputs": [
        {
          "internalType": "uint256",
          "name": "_postId",
          "type": "uint256"
        }
      ],
      "name": "likePost",
      "outputs": [],
      "stateMutability": "nonpayable",
      "type": "function"
    },
    {
      "inputs": [
        {
          "internalType": "uint256",
          "name": "_postId",
          "type": "uint256"
        }
      ],
      "name": "viewPost",
      "outputs": [],
      "stateMutability": "nonpayable",
      "type": "function"
    },
    {
      "inputs": [
        {
          "internalType": "address",
          "name": "_user",
          "type": "address"
        }
      ],
      "name": "getPostsByUser",
      "outputs": [
        {
          "internalType": "uint256[]",
          "name": "",
          "type": "uint256[]"
        }
      ],
      "stateMutability": "view",
      "type": "function",
      "constant": true
    },
    {
      "inputs": [
        {
          "internalType": "uint256",
          "name": "_postId",
          "type": "uint256"
        }
      ],
      "name": "getPost",
      "outputs": [
        {
          "components": [
            {
              "internalType": "uint256",
              "name": "postId",
              "type": "uint256"
            },
            {
              "internalType": "address",
              "name": "creator",
              "type": "address"
            },
            {
              "internalType": "string",
              "name": "contentHash",
              "type": "string"
            },
            {
              "internalType": "uint256",
              "name": "timestamp",
              "type": "uint256"
            },
            {
              "internalType": "bool",
              "name": "hasMedia",
              "type": "bool"
            },
            {
              "internalType": "string[]",
              "name": "tags",
              "type": "string[]"
            }
          ],
          "internalType": "struct CreatePost.Post",
          "name": "",
          "type": "tuple"
        }
      ],
      "stateMutability": "view",
      "type": "function",
      "constant": true
    },
    {
      "inputs": [
        {
          "internalType": "string",
          "name": "_tag",
          "type": "string"
        }
      ],
      "name": "getPostsByTag",
      "outputs": [
        {
          "internalType": "uint256[]",
          "name": "",
          "type": "uint256[]"
        }
      ],
      "stateMutability": "view",
      "type": "function",
      "constant": true
    },
    {
      "inputs": [
        {
          "internalType": "uint256",
          "name": "_postId",
          "type": "uint256"
        }
      ],
      "name": "getPostLikes",
      "outputs": [
        {
          "internalType": "address[]",
          "name": "",
          "type": "address[]"
        }
      ],
      "stateMutability": "view",
      "type": "function",
      "constant": true
    },
    {
      "inputs": [
        {
          "internalType": "uint256",
          "name": "_postId",
          "type": "uint256"
        }
      ],
      "name": "getPostEngagement",
      "outputs": [
        {
          "internalType": "uint256",
          "name": "likes",
          "type": "uint256"
        },
        {
          "internalType": "uint256",
          "name": "views",
          "type": "uint256"
        }
      ],
      "stateMutability": "view",
      "type": "function",
      "constant": true
    }
  ],
  "bytecode": "0x608060405234801561001057600080fd5b5061165f806100206000396000f3fe608060405234801561001057600080fd5b5060043610610112576000357c01000000000000000000000000000000000000000000000000000000009004806356e7a87d116100b45780638e07c128116100835780638e07c12814610258578063b0b2671d1461026b578063c55a33621461028b578063e2dd6c8f1461029e57600080fd5b806356e7a87d146101ea578063717c7f2b14610212578063725009d3146102325780638064d1491461024557600080fd5b80630f449d80116100f05780630f449d801461016c578063285389491461019757806340731c24146101b75780634a1a1b30146101d757600080fd5b806303c0f7d21461011757806309b3d75e1461012c5780630b1e7f8314610148575b600080fd5b61012a610125366004610ec5565b6102be565b005b61013560005481565b6040519081526020015b60405180910390f35b61015b610156366004610ec5565b610352565b60405161013f959493929190610f2e565b61017f61017a366004610f6f565b610418565b604051600160a060020a03909116815260200161013f565b6101aa6101a5366004610fad565b610450565b60405161013f9190610fcf565b6101ca6101c5366004610ec5565b6104bc565b60405161013f9190611013565b6101356101e5366004611183565b6106fc565b6101fd6101f8366004610ec5565b61073c565b6040805192835260208301919091520161013f565b610135610220366004610ec5565b60066020526000908152604090205481565b61012a610240366004610ec5565b61078f565b6101356102533660046111c8565b6109d5565b61012a6102663660046111f2565b6109f1565b61027e610279366004610ec5565b610c6e565b60405161013f91906112ef565b6101aa610299366004611330565b610cd9565b6102b16102ac366004610f6f565b610d47565b60405161013f919061136d565b60008181526002602052604081205490036102f75760405160e560020a62461bcd0281526004016102ee90611380565b60405180910390fd5b6000818152600660205260408120805491610311836113d0565b9091555050604080518281523360208201527fc3a931da0ffcea40ee92c86a3fd8864efdc0c51159ab771f37e7383347bbdf6091015b60405180910390a150565b60026020819052600091825260409091208054600182015492820180549193600160a060020a03169291610385906113e9565b80601f01602080910402602001604051908101604052809291908181526020018280546103b1906113e9565b80156103fe5780601f106103d3576101008083540402835291602001916103fe565b820191906000526020600020905b8154815290600101906020018083116103e157829003601f168201915b50505050600383015460049093015491929160ff16905085565b6005602052816000526040600020818154811061043457600080fd5b600091825260209091200154600160a060020a03169150829050565b600160a060020a0381166000908152600160209081526040918290208054835181840281018401909452808452606093928301828280156104b057602002820191906000526020600020905b81548152602001906001019080831161049c575b50505050509050919050565b6105006040518060c00160405280600081526020016000600160a060020a031681526020016060815260200160008152602001600015158152602001606081525090565b60008281526002602052604081205490036105305760405160e560020a62461bcd0281526004016102ee90611380565b600082815260026020818152604092839020835160c081018552815481526001820154600160a060020a03169281019290925291820180549193840191610576906113e9565b80601f01602080910402602001604051908101604052809291908181526020018280546105a2906113e9565b80156105ef5780601f106105c4576101008083540402835291602001916105ef565b820191906000526020600020905b8154815290600101906020018083116105d257829003601f168201915b50505050508152602001600382015481526020016004820160009054906101000a900460ff1615151515815260200160058201805480602002602001604051908101604052809291908181526020016000905b828210156106ee578382906000526020600020018054610661906113e9565b80601f016020809104026020016040519081016040528092919081815260200182805461068d906113e9565b80156106da5780601f106106af576101008083540402835291602001916106da565b820191906000526020600020905b8154815290600101906020018083116106bd57829003601f168201915b505050505081526020019060010190610642565b505050915250909392505050565b8151602081840181018051600482529282019185019190912091905280548290811061072757600080fd5b90600052602060002001600091509150505481565b6000818152600260205260408120548190810361076e5760405160e560020a62461bcd0281526004016102ee90611380565b50506000908152600560209081526040808320546006909252909120549091565b60008181526002602052604081205490036107bf5760405160e560020a62461bcd0281526004016102ee90611380565b60005b6000828152600560205260409020548110156109605760008281526005602052604090208054339190839081106107fb576107fb611426565b600091825260209091200154600160a060020a03160361094e57600082815260056020526040902080546108319060019061143f565b8154811061084157610841611426565b6000918252602080832090910154848352600590915260409091208054600160a060020a03909216918390811061087a5761087a611426565b6000918252602080832091909101805473ffffffffffffffffffffffffffffffffffffffff1916600160a060020a0394909416939093179092558381526005909152604090208054806108cf576108cf611458565b6000828152602090208101600019908101805473ffffffffffffffffffffffffffffffffffffffff191690550190556040517f82092d1196022c48d901e5dc4b17451dbce942b8a9ded42fc6f2a4a5e8fd89b9906109429084903390918252600160a060020a0316602082015260400190565b60405180910390a15050565b80610958816113d0565b9150506107c2565b506000818152600560209081526040808320805460018101825590845292829020909201805473ffffffffffffffffffffffffffffffffffffffff1916339081179091558251848152918201527fcf765d6f163c9b0d832e2a94f4c8e9bffd32a2c3ca5fdbb8cc67b5fe1441f4139101610347565b6001602052816000526040600020818154811061072757600080fd5b6000835111610a455760405160e560020a62461bcd02815260206004820152601c60248201527f506f737420636f6e74656e742063616e6e6f7420626520656d7074790000000060448201526064016102ee565b600080549080610a54836113d0565b9091555050600080546040805160c081018252828152336020808301918252828401898152426060850152881515608085015260a084018890528587526002918290529390952082518155905160018201805473ffffffffffffffffffffffffffffffffffffffff1916600160a060020a0390921691909117905591519293909290820190610ae390826114c0565b5060608201516003820155608082015160048201805460ff191691151591909117905560a08201518051610b21916005840191602090910190610e00565b5050336000908152600160208181526040832080549283018155835282200183905590505b8251811015610c1e576000838281518110610b6357610b63611426565b6020026020010151511115610c0c5760008281526003602052604090208351849083908110610b9457610b94611426565b60209081029190910181015182546001810184556000938452919092200190610bbd90826114c0565b506004838281518110610bd257610bd2611426565b6020026020010151604051610be79190611586565b9081526040516020918190038201902080546001810182556000918252919020018290555b80610c16816113d0565b915050610b46565b5033600160a060020a03167f547ff091fb220ad34028a39ac325d52d493d122554d939d23a50c3525e3356b58286428787604051610c609594939291906115a2565b60405180910390a250505050565b6000818152600560209081526040918290208054835181840281018401909452808452606093928301828280156104b057602002820191906000526020600020905b8154600160a060020a03168152600190910190602001808311610cb05750505050509050919050565b6060600482604051610ceb9190611586565b90815260408051918290036020908101832080548083028501830190935282845291908301828280156104b0576020028201919060005260206000209081548152602001906001019080831161049c5750505050509050919050565b60036020528160005260406000208181548110610d6357600080fd5b90600052602060002001600091509150508054610d7f906113e9565b80601f0160208091040260200160405190810160405280929190818152602001828054610dab906113e9565b8015610df85780601f10610dcd57610100808354040283529160200191610df8565b820191906000526020600020905b815481529060010190602001808311610ddb57829003601f168201915b505050505081565b828054828255906000526020600020908101928215610e46579160200282015b82811115610e465782518290610e3690826114c0565b5091602001919060010190610e20565b50610e52929150610e56565b5090565b80821115610e52576000610e6a8282610e73565b50600101610e56565b508054610e7f906113e9565b6000825580601f10610e8f575050565b601f016020900490600052602060002090810190610ead9190610eb0565b50565b5b80821115610e525760008155600101610eb1565b600060208284031215610ed757600080fd5b5035919050565b60005b83811015610ef9578181015183820152602001610ee1565b50506000910152565b60008151808452610f1a816020860160208601610ede565b601f01601f19169290920160200192915050565b858152600160a060020a038516602082015260a060408201526000610f5660a0830186610f02565b6060830194909452509015156080909101529392505050565b60008060408385031215610f8257600080fd5b50508035926020909101359150565b8035600160a060020a0381168114610fa857600080fd5b919050565b600060208284031215610fbf57600080fd5b610fc882610f91565b9392505050565b6020808252825182820181905260009190848201906040850190845b8181101561100757835183529284019291840191600101610feb565b50909695505050505050565b60006020808352835181840152600160a060020a0381850151166040840152604084015160c0606085015261104b60e0850182610f02565b9050606085015160808501526080850151151560a085015260a0850151601f19808684030160c0870152828251808552858501915085868202860101868501945060005b828110156110bb57848783030184526110a9828751610f02565b9588019593880193915060010161108f565b509998505050505050505050565b60e060020a634e487b7102600052604160045260246000fd5b604051601f8201601f1916810167ffffffffffffffff8111828210171561110b5761110b6110c9565b604052919050565b600082601f83011261112457600080fd5b813567ffffffffffffffff81111561113e5761113e6110c9565b611151601f8201601f19166020016110e2565b81815284602083860101111561116657600080fd5b816020850160208301376000918101602001919091529392505050565b6000806040838503121561119657600080fd5b823567ffffffffffffffff8111156111ad57600080fd5b6111b985828601611113565b95602094909401359450505050565b600080604083850312156111db57600080fd5b6111e483610f91565b946020939093013593505050565b60008060006060848603121561120757600080fd5b833567ffffffffffffffff8082111561121f57600080fd5b61122b87838801611113565b94506020915081860135801515811461124357600080fd5b935060408601358181111561125757600080fd5b8601601f8101881361126857600080fd5b80358281111561127a5761127a6110c9565b8381026112888582016110e2565b918252828101850191858101908b8411156112a257600080fd5b86850192505b838310156112de578235868111156112c05760008081fd5b6112ce8d8983890101611113565b83525091860191908601906112a8565b809750505050505050509250925092565b6020808252825182820181905260009190848201906040850190845b81811015611007578351600160a060020a03168352928401929184019160010161130b565b60006020828403121561134257600080fd5b813567ffffffffffffffff81111561135957600080fd5b61136584828501611113565b949350505050565b602081526000610fc86020830184610f02565b60208082526013908201527f506f737420646f6573206e6f7420657869737400000000000000000000000000604082015260600190565b60e060020a634e487b7102600052601160045260246000fd5b6000600182016113e2576113e26113b7565b5060010190565b6002810460018216806113fd57607f821691505b6020821081036114205760e060020a634e487b7102600052602260045260246000fd5b50919050565b60e060020a634e487b7102600052603260045260246000fd5b81810381811115611452576114526113b7565b92915050565b60e060020a634e487b7102600052603160045260246000fd5b601f8211156114bb576000818152602081206020601f860104810160208610156114985750805b6020601f860104820191505b818110156114b7578281556001016114a4565b5050505b505050565b815167ffffffffffffffff8111156114da576114da6110c9565b6114ee816114e884546113e9565b84611471565b602080601f831160018114611527576000841561150b5750858301515b60028086026008870290910a60001904198216178655506114b7565b600085815260208120601f198616915b8281101561155657888601518255948401946001909101908401611537565b508582101561157657878501516008601f88160260020a60001904191681555b5050505050600202600101905550565b60008251611598818460208701610ede565b9190910192915050565b8581526000602060a0818401526115bc60a0840188610f02565b60408401879052851515606085015283810360808501528451808252828201908381028301840184880160005b8381101561161757601f19868403018552611605838351610f02565b948701949250908601906001016115e9565b50909c9b50505050505050505050505056fea26469706673582212205d5ed0b7f1aa99f11c048e95fd178c89e19b1b24cc0b8e51ad65a42c80c96b2c64736f6c63430008150033",
  "immutableReferences": {},
  "source": "// SPDX-License-Identifier: MIT\npragma solidity ^0.8.0;\n\ncontract CreatePost {\n    // Structure to store posts\n    struct Post {\n        uint256 postId;\n        address creator;\n        string contentHash; // IPFS hash for post content (includes text and media references)\n        uint256 timestamp;\n        bool hasMedia;\n        string[] tags;\n    }\n\n    uint256 public postCounter; // Counter for post IDs\n    mapping(address => uint256[]) public userPosts; // Map user to their post IDs\n    mapping(uint256 => Post) public posts; // Map post ID to Post details\n    mapping(uint256 => string[]) public postTags; // Map post ID to tags\n    mapping(string => uint256[]) public tagToPosts; // Map tag to post IDs\n    mapping(uint256 => address[]) public postLikes; // Map post ID to addresses that liked it\n    mapping(uint256 => uint256) public postViewCount; // Map post ID to view count\n\n    // Event for a new post\n    event PostCreated(uint256 postId, address indexed creator, string contentHash, uint256 timestamp, bool hasMedia, string[] tags);\n    event PostLiked(uint256 postId, address liker);\n    event PostUnliked(uint256 postId, address unliker);\n    event PostViewed(uint256 postId, address viewer);\n\n    // Function to create a new post\n    function createPost(string memory _contentHash, bool _hasMedia, string[] memory _tags) public {\n        require(bytes(_contentHash).length > 0, \"Post content cannot be empty\");\n\n        postCounter++;\n        uint256 newPostId = postCounter;\n\n        posts[newPostId] = Post({\n            postId: newPostId,\n            creator: msg.sender,\n            contentHash: _contentHash,\n            timestamp: block.timestamp,\n            hasMedia: _hasMedia,\n            tags: _tags\n        });\n\n        userPosts[msg.sender].push(newPostId);\n        \n        // Store tags for this post\n        for (uint i = 0; i < _tags.length; i++) {\n            if (bytes(_tags[i]).length > 0) {\n                postTags[newPostId].push(_tags[i]);\n                tagToPosts[_tags[i]].push(newPostId);\n            }\n        }\n\n        emit PostCreated(newPostId, msg.sender, _contentHash, block.timestamp, _hasMedia, _tags);\n    }\n\n    // Function to like a post\n    function likePost(uint256 _postId) public {\n        require(posts[_postId].postId != 0, \"Post does not exist\");\n        \n        // Check if user already liked the post\n        for (uint i = 0; i < postLikes[_postId].length; i++) {\n            if (postLikes[_postId][i] == msg.sender) {\n                // User already liked, so unlike\n                postLikes[_postId][i] = postLikes[_postId][postLikes[_postId].length - 1];\n                postLikes[_postId].pop();\n                emit PostUnliked(_postId, msg.sender);\n                return;\n            }\n        }\n        \n        // User hasn't liked, so add like\n        postLikes[_postId].push(msg.sender);\n        emit PostLiked(_postId, msg.sender);\n    }\n\n    // Function to increment view count\n    function viewPost(uint256 _postId) public {\n        require(posts[_postId].postId != 0, \"Post does not exist\");\n        postViewCount[_postId]++;\n        emit PostViewed(_postId, msg.sender);\n    }\n\n    // Function to get posts by a user\n    function getPostsByUser(address _user) public view returns (uint256[] memory) {\n        return userPosts[_user];\n    }\n\n    // Function to get a post's details\n    function getPost(uint256 _postId) public view returns (Post memory) {\n        require(posts[_postId].postId != 0, \"Post does not exist\");\n        return posts[_postId];\n    }\n\n    // Function to get posts by tag\n    function getPostsByTag(string memory _tag) public view returns (uint256[] memory) {\n        return tagToPosts[_tag];\n    }\n\n    // Function to get post likes\n    function getPostLikes(uint256 _postId) public view returns (address[] memory) {\n        return postLikes[_postId];\n    }\n\n    // Function to get post engagement metrics\n    function getPostEngagement(uint256 _postId) public view returns (uint256 likes, uint256 views) {\n        require(posts[_postId].postId != 0, \"Post does not exist\");\n        return (postLikes[_postId].length, postViewCount[_postId]);\n    }\n}",
  "sourcePath": "/Users/syedroshanalishah/Desktop/Blockchain/Blockchain_app_FYP/contracts/createPost.sol",
  "compiler": {
    "name": "solc",
    "version": "0.8.21+commit.d9974bed.Emscripten.clang"
  },
  "schemaVersion": "3.4.16",
  "updatedAt": "2025-04-26T10:57:03.713Z",
  "networkType": "ethereum",
  "devdoc": {
    "kind": "dev",
    "methods": {},
    "version": 1
  },
  "userdoc": {
    "kind": "user",
    "methods": {},
    "version": 1
  }
}