{
  "contractName": "UserAuth",
  "abi": [
    {
      "anonymous": false,
      "inputs": [
        {
          "indexed": false,
          "internalType": "string",
          "name": "username",
          "type": "string"
        },
        {
          "indexed": false,
          "internalType": "string",
          "name": "ipfsHash",
          "type": "string"
        },
        {
          "indexed": false,
          "internalType": "address",
          "name": "userAddress",
          "type": "address"
        }
      ],
      "name": "UserRegistered",
      "type": "event"
    },
    {
      "anonymous": false,
      "inputs": [
        {
          "indexed": false,
          "internalType": "string",
          "name": "username",
          "type": "string"
        },
        {
          "indexed": false,
          "internalType": "address",
          "name": "userAddress",
          "type": "address"
        }
      ],
      "name": "UserReset",
      "type": "event"
    },
    {
      "anonymous": false,
      "inputs": [
        {
          "indexed": false,
          "internalType": "string",
          "name": "username",
          "type": "string"
        },
        {
          "indexed": false,
          "internalType": "string",
          "name": "newIpfsHash",
          "type": "string"
        },
        {
          "indexed": false,
          "internalType": "address",
          "name": "userAddress",
          "type": "address"
        }
      ],
      "name": "UserUpdated",
      "type": "event"
    },
    {
      "inputs": [
        {
          "internalType": "string",
          "name": "_username",
          "type": "string"
        },
        {
          "internalType": "string",
          "name": "_ipfsHash",
          "type": "string"
        }
      ],
      "name": "register",
      "outputs": [],
      "stateMutability": "nonpayable",
      "type": "function"
    },
    {
      "inputs": [
        {
          "internalType": "string",
          "name": "_username",
          "type": "string"
        }
      ],
      "name": "login",
      "outputs": [
        {
          "internalType": "string",
          "name": "",
          "type": "string"
        }
      ],
      "stateMutability": "view",
      "type": "function",
      "constant": true
    },
    {
      "inputs": [
        {
          "internalType": "string",
          "name": "_username",
          "type": "string"
        },
        {
          "internalType": "string",
          "name": "_newIpfsHash",
          "type": "string"
        }
      ],
      "name": "updateUser",
      "outputs": [],
      "stateMutability": "nonpayable",
      "type": "function"
    },
    {
      "inputs": [
        {
          "internalType": "string",
          "name": "_username",
          "type": "string"
        }
      ],
      "name": "getAddressByUsername",
      "outputs": [
        {
          "internalType": "address",
          "name": "",
          "type": "address"
        }
      ],
      "stateMutability": "view",
      "type": "function",
      "constant": true
    },
    {
      "inputs": [],
      "name": "getAllUsernames",
      "outputs": [
        {
          "internalType": "string[]",
          "name": "",
          "type": "string[]"
        }
      ],
      "stateMutability": "view",
      "type": "function",
      "constant": true
    },
    {
      "inputs": [
        {
          "internalType": "address",
          "name": "_userAddress",
          "type": "address"
        }
      ],
      "name": "getUsernames",
      "outputs": [
        {
          "internalType": "string[]",
          "name": "",
          "type": "string[]"
        }
      ],
      "stateMutability": "view",
      "type": "function",
      "constant": true
    },
    {
      "inputs": [
        {
          "internalType": "string",
          "name": "_username",
          "type": "string"
        }
      ],
      "name": "isUsernameAvailable",
      "outputs": [
        {
          "internalType": "bool",
          "name": "",
          "type": "bool"
        }
      ],
      "stateMutability": "view",
      "type": "function",
      "constant": true
    },
    {
      "inputs": [
        {
          "internalType": "string",
          "name": "_username",
          "type": "string"
        }
      ],
      "name": "resetUser",
      "outputs": [],
      "stateMutability": "nonpayable",
      "type": "function"
    }
  ],
  "bytecode": "0x608060405234801561001057600080fd5b506113a2806100206000396000f3fe608060405234801561001057600080fd5b50600436106100a5576000357c0100000000000000000000000000000000000000000000000000000000900480636322961d116100785780636322961d146101105780636a7d30f41461013b578063dd4a24251461014e578063f69c6dec1461016157600080fd5b8063138aae3c146100aa5780633a7d280c146100d35780633ffbd47f146100f35780635362037514610108575b600080fd5b6100bd6100b8366004610d17565b610184565b6040516100ca9190610d97565b60405180910390f35b6100e66100e1366004610e9e565b610273565b6040516100ca9190610edb565b610106610101366004610eee565b610403565b005b6100bd610708565b61012361011e366004610e9e565b6107e1565b604051600160a060020a0390911681526020016100ca565b610106610149366004610e9e565b610884565b61010661015c366004610eee565b610b60565b61017461016f366004610e9e565b610c95565b60405190151581526020016100ca565b600160a060020a0381166000908152600160209081526040808320805482518185028101850190935280835260609492939192909184015b828210156102685783829060005260206000200180546101db90610f52565b80601f016020809104026020016040519081016040528092919081815260200182805461020790610f52565b80156102545780601f1061022957610100808354040283529160200191610254565b820191906000526020600020905b81548152906001019060200180831161023757829003601f168201915b5050505050815260200190600101906101bc565b505050509050919050565b3360009081526004602052604090819020905160609190610295908490610f8f565b9081526040519081900360200190206002015460ff74010000000000000000000000000000000000000000909104166102ec5760405160e560020a62461bcd0281526004016102e390610fab565b60405180910390fd5b3360008181526004602052604090819020905161030a908590610f8f565b90815260405190819003602001902060020154600160a060020a0316146103465760405160e560020a62461bcd0281526004016102e390610fe2565b33600090815260046020526040908190209051610364908490610f8f565b908152604051908190036020019020805461037e90610f52565b80601f01602080910402602001604051908101604052809291908181526020018280546103aa90610f52565b80156103f75780601f106103cc576101008083540402835291602001916103f7565b820191906000526020600020905b8154815290600101906020018083116103da57829003601f168201915b50505050509050919050565b60008251116104575760405160e560020a62461bcd02815260206004820152601860248201527f557365726e616d652063616e6e6f7420626520656d707479000000000000000060448201526064016102e3565b60008151116104ab5760405160e560020a62461bcd02815260206004820152601960248201527f4950465320686173682063616e6e6f7420626520656d7074790000000000000060448201526064016102e3565b6002826040516104bb9190610f8f565b9081526040519081900360200190205460ff161561051e5760405160e560020a62461bcd02815260206004820152601760248201527f557365726e616d6520616c72656164792065786973747300000000000000000060448201526064016102e3565b3360008360405161052f9190610f8f565b9081526040519081900360200190208054600160a060020a039290921673ffffffffffffffffffffffffffffffffffffffff19909216919091179055600380546001810182556000919091527fc2575a0e9e593c00f959f8c92f12db2869c3395a3b0502d05e2516446f71f85b016105a78382611068565b503360009081526001602081815260408320805492830181558352909120016105d08382611068565b5060016002836040516105e39190610f8f565b9081526040805160209281900383018120805460ff19169415159490941790935560808301815283835281830185905233838201819052600160608501526000908152600490925290819020905161063c908590610f8f565b908152604051908190036020019020815181906106599082611068565b506020820151600182019061066e9082611068565b50604082810151600290920180546060909401511515740100000000000000000000000000000000000000000274ffffffffffffffffffffffffffffffffffffffffff19909416600160a060020a0390931692909217929092179055517f7d18b42f8b54b38db3858d85addd4845b244c7ab57e5b3246475b88815c0c5cf906106fc9084908490339061112e565b60405180910390a15050565b60606003805480602002602001604051908101604052809291908181526020016000905b828210156107d857838290600052602060002001805461074b90610f52565b80601f016020809104026020016040519081016040528092919081815260200182805461077790610f52565b80156107c45780601f10610799576101008083540402835291602001916107c4565b820191906000526020600020905b8154815290600101906020018083116107a757829003601f168201915b50505050508152602001906001019061072c565b50505050905090565b60006002826040516107f39190610f8f565b9081526040519081900360200190205460ff166108555760405160e560020a62461bcd02815260206004820152601760248201527f557365726e616d6520646f6573206e6f7420657869737400000000000000000060448201526064016102e3565b6000826040516108659190610f8f565b90815260405190819003602001902054600160a060020a031692915050565b336000908152600460205260409081902090516108a2908390610f8f565b9081526040519081900360200190206002015460ff74010000000000000000000000000000000000000000909104166108f05760405160e560020a62461bcd0281526004016102e390610fab565b3360008181526004602052604090819020905161090e908490610f8f565b90815260405190819003602001902060020154600160a060020a03161461094a5760405160e560020a62461bcd0281526004016102e390610fe2565b600060028260405161095c9190610f8f565b9081526040805160209281900383018120805460ff1916941515949094179093553360009081526004909252902090610996908390610f8f565b90815260405190819003602001902060006109b18282610cc1565b6109bf600183016000610cc1565b50600201805474ffffffffffffffffffffffffffffffffffffffffff1916905560005b33600090815260016020526040902054811015610b2357815160208084019190912033600090815260019092526040909120805483908110610a2657610a2661116d565b90600052602060002001604051610a3d9190611186565b604051809103902003610b115733600090815260016020819052604090912080549091610a6991611215565b81548110610a7957610a7961116d565b906000526020600020016001600033600160a060020a0316600160a060020a031681526020019081526020016000208281548110610ab957610ab961116d565b906000526020600020019081610acf919061122e565b50336000908152600160205260409020805480610aee57610aee61130f565b600190038181906000526020600020016000610b0a9190610cc1565b9055610b23565b80610b1b81611328565b9150506109e2565b507f4887b75ee74c9b6425c46aa421d870ac3cb2c0a2237bef7776828a0d7a15f4f98133604051610b55929190611341565b60405180910390a150565b33600090815260046020526040908190209051610b7e908490610f8f565b9081526040519081900360200190206002015460ff7401000000000000000000000000000000000000000090910416610bcc5760405160e560020a62461bcd0281526004016102e390610fab565b33600081815260046020526040908190209051610bea908590610f8f565b90815260405190819003602001902060020154600160a060020a031614610c265760405160e560020a62461bcd0281526004016102e390610fe2565b33600090815260046020526040908190209051829190610c47908590610f8f565b90815260405190819003602001902090610c619082611068565b507f7719b353fdd197fac056b5d3061c6c14d75612521170bf1b0de2ec84cf9332ca8282336040516106fc9392919061112e565b6000600282604051610ca79190610f8f565b9081526040519081900360200190205460ff161592915050565b508054610ccd90610f52565b6000825580601f10610cdd575050565b601f016020900490600052602060002090810190610cfb9190610cfe565b50565b5b80821115610d135760008155600101610cff565b5090565b600060208284031215610d2957600080fd5b8135600160a060020a0381168114610d4057600080fd5b9392505050565b60005b83811015610d62578181015183820152602001610d4a565b50506000910152565b60008151808452610d83816020860160208601610d47565b601f01601f19169290920160200192915050565b600060208083018184528085518083526040860191506040848202870101925083870160005b82811015610deb57603f19888603018452610dd9858351610d6b565b94509285019290850190600101610dbd565b5092979650505050505050565b60e060020a634e487b7102600052604160045260246000fd5b600082601f830112610e2257600080fd5b813567ffffffffffffffff80821115610e3d57610e3d610df8565b604051601f8301601f19908116603f01168101908282118183101715610e6557610e65610df8565b81604052838152866020858801011115610e7e57600080fd5b836020870160208301376000602085830101528094505050505092915050565b600060208284031215610eb057600080fd5b813567ffffffffffffffff811115610ec757600080fd5b610ed384828501610e11565b949350505050565b602081526000610d406020830184610d6b565b60008060408385031215610f0157600080fd5b823567ffffffffffffffff80821115610f1957600080fd5b610f2586838701610e11565b93506020850135915080821115610f3b57600080fd5b50610f4885828601610e11565b9150509250929050565b600281046001821680610f6657607f821691505b602082108103610f895760e060020a634e487b7102600052602260045260246000fd5b50919050565b60008251610fa1818460208701610d47565b9190910192915050565b60208082526013908201527f55736572206e6f74207265676973746572656400000000000000000000000000604082015260600190565b60208082526013908201527f556e617574686f72697a65642061636365737300000000000000000000000000604082015260600190565b601f821115611063576000818152602081206020601f860104810160208610156110405750805b6020601f860104820191505b8181101561105f5782815560010161104c565b5050505b505050565b815167ffffffffffffffff81111561108257611082610df8565b611096816110908454610f52565b84611019565b602080601f8311600181146110cf57600084156110b35750858301515b60028086026008870290910a600019041982161786555061105f565b600085815260208120601f198616915b828110156110fe578886015182559484019460019091019084016110df565b508582101561111e57878501516008601f88160260020a60001904191681555b5050505050600202600101905550565b6060815260006111416060830186610d6b565b82810360208401526111538186610d6b565b915050600160a060020a0383166040830152949350505050565b60e060020a634e487b7102600052603260045260246000fd5b600080835461119481610f52565b600182811680156111ac57600181146111c1576111f0565b60ff19841687528215158302870194506111f0565b8760005260208060002060005b858110156111e75781548a8201529084019082016111ce565b50505082870194505b50929695505050505050565b60e060020a634e487b7102600052601160045260246000fd5b81810381811115611228576112286111fc565b92915050565b818103611239575050565b6112438254610f52565b67ffffffffffffffff81111561125b5761125b610df8565b611269816110908454610f52565b6000601f8211600181146112a157600083156112855750848201545b60028085026008860290910a6000190419821617855550611308565b600085815260209020601f19841690600086815260209020845b838110156112db57828601548255600195860195909101906020016112bb565b50858310156112fb57818501546008601f88160260020a60001904191681555b5050506001600284020184555b5050505050565b60e060020a634e487b7102600052603160045260246000fd5b60006001820161133a5761133a6111fc565b5060010190565b6040815260006113546040830185610d6b565b9050600160a060020a0383166020830152939250505056fea2646970667358221220db0e250937cfd1fad32ee830b2350243465b06451c7cbf36a2a9731e4675c3f164736f6c63430008150033",
  "immutableReferences": {},
  "source": "// SPDX-License-Identifier: MIT\npragma solidity ^0.8.0;\n\ncontract UserAuth {\n    // Structure to store user information\n    struct User {\n        string ipfsHash;      // IPFS hash for storing user data\n        string username;      // Username for the user\n        address userAddress;  // Ethereum address of the user\n        bool isRegistered;    // Flag to check if user exists\n    }\n\n    // Modified mappings\n    mapping(string => address) private usernameToAddress;  // Map username to address\n    mapping(address => string[]) private usernames;        // Map address to usernames\n    mapping(string => bool) private usernameExists;        // Track if username exists\n    string[] private allUsernames;                         // Array to track all usernames\n\n    // State variables\n    mapping(address => mapping(string => User)) private users;    // Map address and username to user data\n\n    // Events\n    event UserRegistered(string username, string ipfsHash, address userAddress);\n    event UserUpdated(string username, string newIpfsHash, address userAddress);\n    event UserReset(string username, address userAddress);\n\n    // Register a new user\n    function register(string memory _username, string memory _ipfsHash) public {\n        // Check if the username is empty\n        require(bytes(_username).length > 0, \"Username cannot be empty\");\n        require(bytes(_ipfsHash).length > 0, \"IPFS hash cannot be empty\");\n        \n        // Ensure the username is unique globally\n        require(!usernameExists[_username], \"Username already exists\");\n        \n        // Store username to address mapping\n        usernameToAddress[_username] = msg.sender;\n        \n        // Add username to global list\n        allUsernames.push(_username);\n        \n        // Add to user's usernames\n        usernames[msg.sender].push(_username);\n        \n        // Mark username as taken\n        usernameExists[_username] = true;\n\n        // Create new user\n        users[msg.sender][_username] = User({\n            ipfsHash: _ipfsHash,\n            username: _username,\n            userAddress: msg.sender,\n            isRegistered: true\n        });\n\n        // Emit registration event\n        emit UserRegistered(_username, _ipfsHash, msg.sender);\n    }\n\n    // Login function - Returns IPFS hash for a registered user\n    function login(string memory _username) public view returns (string memory) {\n        // Ensure the user is registered\n        require(users[msg.sender][_username].isRegistered, \"User not registered\");\n        require(users[msg.sender][_username].userAddress == msg.sender, \"Unauthorized access\");\n        \n        // Return the IPFS hash\n        return users[msg.sender][_username].ipfsHash;\n    }\n\n    // Update user data\n    function updateUser(string memory _username, string memory _newIpfsHash) public {\n        // Ensure the user exists and is the owner\n        require(users[msg.sender][_username].isRegistered, \"User not registered\");\n        require(users[msg.sender][_username].userAddress == msg.sender, \"Unauthorized access\");\n        \n        // Update the IPFS hash\n        users[msg.sender][_username].ipfsHash = _newIpfsHash;\n        \n        // Emit update event\n        emit UserUpdated(_username, _newIpfsHash, msg.sender);\n    }\n\n    // Get address for a username\n    function getAddressByUsername(string memory _username) public view returns (address) {\n        require(usernameExists[_username], \"Username does not exist\");\n        return usernameToAddress[_username];\n    }\n\n    // Get all registered usernames\n    function getAllUsernames() public view returns (string[] memory) {\n        return allUsernames;\n    }\n\n    // Get all usernames for an address\n    function getUsernames(address _userAddress) public view returns (string[] memory) {\n        return usernames[_userAddress];\n    }\n\n    // Check if a username exists\n    function isUsernameAvailable(string memory _username) public view returns (bool) {\n        return !usernameExists[_username];\n    }\n\n    // Reset user registration (FOR DEVELOPMENT/TESTING PURPOSE ONLY)\n    function resetUser(string memory _username) public {\n        // Ensure the user is already registered\n        require(users[msg.sender][_username].isRegistered, \"User not registered\");\n        require(users[msg.sender][_username].userAddress == msg.sender, \"Unauthorized access\");\n\n        // Remove username from global tracking\n        usernameExists[_username] = false;\n\n        // Remove user data\n        delete users[msg.sender][_username];\n\n        // Remove username from user's list\n        for(uint i = 0; i < usernames[msg.sender].length; i++) {\n            if(keccak256(bytes(usernames[msg.sender][i])) == keccak256(bytes(_username))) {\n                // Replace with last element and pop\n                usernames[msg.sender][i] = usernames[msg.sender][usernames[msg.sender].length - 1];\n                usernames[msg.sender].pop();\n                break;\n            }\n        }\n\n        // Emit reset event\n        emit UserReset(_username, msg.sender);\n    }\n}\n",
  "sourcePath": "/Users/syedroshanalishah/Desktop/Blockchain/Blockchain_app_FYP/contracts/UserAuth.sol",
  "compiler": {
    "name": "solc",
    "version": "0.8.21+commit.d9974bed.Emscripten.clang"
  },
  "schemaVersion": "3.4.16",
  "updatedAt": "2025-02-10T17:07:29.266Z",
  "networkType": "ethereum",
  "devdoc": {
    "kind": "dev",
    "methods": {},
    "version": 1
  },
  "userdoc": {
    "kind": "user",
    "methods": {},
    "version": 1
  }
}