{
  "contractName": "UserAuth",
  "abi": [
    {
      "anonymous": false,
      "inputs": [
        {
          "indexed": false,
          "internalType": "string",
          "name": "ipfsHash",
          "type": "string"
        },
        {
          "indexed": false,
          "internalType": "address",
          "name": "userAddress",
          "type": "address"
        }
      ],
      "name": "UserRegistered",
      "type": "event"
    },
    {
      "inputs": [
        {
          "internalType": "string",
          "name": "_ipfsHash",
          "type": "string"
        }
      ],
      "name": "register",
      "outputs": [],
      "stateMutability": "nonpayable",
      "type": "function"
    },
    {
      "inputs": [],
      "name": "login",
      "outputs": [
        {
          "internalType": "string",
          "name": "",
          "type": "string"
        }
      ],
      "stateMutability": "view",
      "type": "function",
      "constant": true
    }
  ],
  "bytecode": "0x608060405234801561001057600080fd5b506106e0806100206000396000f3fe608060405234801561001057600080fd5b5060043610610052577c01000000000000000000000000000000000000000000000000000000006000350463b34e97e88114610057578063f2c298be14610075575b600080fd5b61005f61008a565b60405161006c91906103f4565b60405180910390f35b61008861008336600461043d565b6101b4565b005b336000908152602081905260408120805460609291906100a9906104ee565b905011610117576040517f08c379a000000000000000000000000000000000000000000000000000000000815260206004820152601460248201527f55736572206e6f7420726567697374657265642e00000000000000000000000060448201526064015b60405180910390fd5b3360009081526020819052604090208054610131906104ee565b80601f016020809104026020016040519081016040528092919081815260200182805461015d906104ee565b80156101aa5780601f1061017f576101008083540402835291602001916101aa565b820191906000526020600020905b81548152906001019060200180831161018d57829003601f168201915b5050505050905090565b33600090815260208190526040902080546101ce906104ee565b159050610237576040517f08c379a000000000000000000000000000000000000000000000000000000000815260206004820152601860248201527f5573657220616c726561647920726567697374657265642e0000000000000000604482015260640161010e565b60008160405160200161024a9190610541565b60408051601f1981840301815291815281516020928301206000818152600190935291205490915060ff16156102dc576040517f08c379a000000000000000000000000000000000000000000000000000000000815260206004820152601860248201527f557365726e616d6520616c7265616479206578697374732e0000000000000000604482015260640161010e565b6040805180820182528381523360208083018290526000918252819052919091208151819061030b90826105ac565b506020918201516001918201805473ffffffffffffffffffffffffffffffffffffffff191673ffffffffffffffffffffffffffffffffffffffff909216919091179055600083815291819052604091829020805460ff19169091179055517f7f605d0ff47d2a070e456b69ce2a36041788910b64443c7f4c6d307993cade2c906103989084903390610672565b60405180910390a15050565b60005b838110156103bf5781810151838201526020016103a7565b50506000910152565b600081518084526103e08160208601602086016103a4565b601f01601f19169290920160200192915050565b60208152600061040760208301846103c8565b9392505050565b7f4e487b7100000000000000000000000000000000000000000000000000000000600052604160045260246000fd5b60006020828403121561044f57600080fd5b813567ffffffffffffffff8082111561046757600080fd5b818401915084601f83011261047b57600080fd5b81358181111561048d5761048d61040e565b604051601f8201601f19908116603f011681019083821181831017156104b5576104b561040e565b816040528281528760208487010111156104ce57600080fd5b826020860160208301376000928101602001929092525095945050505050565b60028104600182168061050257607f821691505b60208210810361053b577f4e487b7100000000000000000000000000000000000000000000000000000000600052602260045260246000fd5b50919050565b600082516105538184602087016103a4565b9190910192915050565b601f8211156105a7576000818152602081206020601f860104810160208610156105845750805b6020601f860104820191505b818110156105a357828155600101610590565b5050505b505050565b815167ffffffffffffffff8111156105c6576105c661040e565b6105da816105d484546104ee565b8461055d565b602080601f83116001811461061357600084156105f75750858301515b60028086026008870290910a60001904198216178655506105a3565b600085815260208120601f198616915b8281101561064257888601518255948401946001909101908401610623565b508582101561066257878501516008601f88160260020a60001904191681555b5050505050600202600101905550565b60408152600061068560408301856103c8565b905073ffffffffffffffffffffffffffffffffffffffff83166020830152939250505056fea2646970667358221220bb4241b1800896936ccd683a54db9648a003883f891fff61d67acaefbeebe58064736f6c63430008150033",
  "immutableReferences": {},
  "source": "// SPDX-License-Identifier: MIT\npragma solidity ^0.8.0;\n\ncontract UserAuth {\n    // User structure to store IPFS hash and address\n    struct User {\n        string ipfsHash;      // Store IPFS hash\n        address userAddress;  // Store user's Ethereum address\n    }\n\n    // Mappings for user data and username uniqueness check\n    mapping(address => User) private users;                 // User data mapped by address\n    mapping(bytes32 => bool) private usernameExists;        // Check if username exists\n\n    // Event for successful registration\n    event UserRegistered(string ipfsHash, address userAddress);\n\n    // Register new user\n    function register(string memory _ipfsHash) public {\n        // Ensure the user is not already registered\n        require(bytes(users[msg.sender].ipfsHash).length == 0, \"User already registered.\");\n        \n        // Ensure the username (IPFS hash) is unique\n        bytes32 usernameHash = keccak256(abi.encodePacked(_ipfsHash));\n        require(!usernameExists[usernameHash], \"Username already exists.\");\n\n        // Save user data\n        users[msg.sender] = User(_ipfsHash, msg.sender);\n        usernameExists[usernameHash] = true;\n\n        // Emit registration event\n        emit UserRegistered(_ipfsHash, msg.sender);\n    }\n\n    // Login user by returning IPFS hash (view function with no state changes)\n    function login() public view returns (string memory) {\n        // Ensure the user is registered\n        require(bytes(users[msg.sender].ipfsHash).length > 0, \"User not registered.\");\n        \n        // Return the user's IPFS hash\n        return users[msg.sender].ipfsHash;\n    }\n}",
  "sourcePath": "/Users/syedroshanalishah/Documents/FYP/Blockchain_app/contracts/UserAuth.sol",
  "compiler": {
    "name": "solc",
    "version": "0.8.21+commit.d9974bed.Emscripten.clang"
  },
  "schemaVersion": "3.4.16",
  "updatedAt": "2024-12-20T23:15:27.354Z",
  "networkType": "ethereum",
  "devdoc": {
    "kind": "dev",
    "methods": {},
    "version": 1
  },
  "userdoc": {
    "kind": "user",
    "methods": {},
    "version": 1
  }
}