{
  "contractName": "UserAuth",
  "abi": [
    {
      "anonymous": false,
      "inputs": [
        {
          "indexed": true,
          "internalType": "uint256",
          "name": "messageId",
          "type": "uint256"
        },
        {
          "indexed": true,
          "internalType": "address",
          "name": "by",
          "type": "address"
        }
      ],
      "name": "MessageRead",
      "type": "event"
    },
    {
      "anonymous": false,
      "inputs": [
        {
          "indexed": true,
          "internalType": "uint256",
          "name": "messageId",
          "type": "uint256"
        },
        {
          "indexed": true,
          "internalType": "address",
          "name": "from",
          "type": "address"
        },
        {
          "indexed": true,
          "internalType": "address",
          "name": "to",
          "type": "address"
        },
        {
          "indexed": false,
          "internalType": "uint256",
          "name": "timestamp",
          "type": "uint256"
        }
      ],
      "name": "MessageSent",
      "type": "event"
    },
    {
      "anonymous": false,
      "inputs": [
        {
          "indexed": false,
          "internalType": "string",
          "name": "username",
          "type": "string"
        },
        {
          "indexed": false,
          "internalType": "string",
          "name": "ipfsHash",
          "type": "string"
        },
        {
          "indexed": false,
          "internalType": "address",
          "name": "userAddress",
          "type": "address"
        }
      ],
      "name": "UserRegistered",
      "type": "event"
    },
    {
      "anonymous": false,
      "inputs": [
        {
          "indexed": false,
          "internalType": "string",
          "name": "username",
          "type": "string"
        },
        {
          "indexed": false,
          "internalType": "address",
          "name": "userAddress",
          "type": "address"
        }
      ],
      "name": "UserReset",
      "type": "event"
    },
    {
      "anonymous": false,
      "inputs": [
        {
          "indexed": false,
          "internalType": "string",
          "name": "username",
          "type": "string"
        },
        {
          "indexed": false,
          "internalType": "string",
          "name": "newIpfsHash",
          "type": "string"
        },
        {
          "indexed": false,
          "internalType": "address",
          "name": "userAddress",
          "type": "address"
        }
      ],
      "name": "UserUpdated",
      "type": "event"
    },
    {
      "inputs": [
        {
          "internalType": "string",
          "name": "_username",
          "type": "string"
        },
        {
          "internalType": "string",
          "name": "_ipfsHash",
          "type": "string"
        }
      ],
      "name": "register",
      "outputs": [],
      "stateMutability": "nonpayable",
      "type": "function"
    },
    {
      "inputs": [
        {
          "internalType": "string",
          "name": "_username",
          "type": "string"
        }
      ],
      "name": "login",
      "outputs": [
        {
          "internalType": "string",
          "name": "",
          "type": "string"
        }
      ],
      "stateMutability": "view",
      "type": "function",
      "constant": true
    },
    {
      "inputs": [
        {
          "internalType": "string",
          "name": "_username",
          "type": "string"
        },
        {
          "internalType": "string",
          "name": "_newIpfsHash",
          "type": "string"
        }
      ],
      "name": "updateUser",
      "outputs": [],
      "stateMutability": "nonpayable",
      "type": "function"
    },
    {
      "inputs": [
        {
          "internalType": "string",
          "name": "_username",
          "type": "string"
        }
      ],
      "name": "getAddressByUsername",
      "outputs": [
        {
          "internalType": "address",
          "name": "",
          "type": "address"
        }
      ],
      "stateMutability": "view",
      "type": "function",
      "constant": true
    },
    {
      "inputs": [],
      "name": "getAllUsernames",
      "outputs": [
        {
          "internalType": "string[]",
          "name": "",
          "type": "string[]"
        }
      ],
      "stateMutability": "view",
      "type": "function",
      "constant": true
    },
    {
      "inputs": [
        {
          "internalType": "address",
          "name": "_userAddress",
          "type": "address"
        }
      ],
      "name": "getUsernames",
      "outputs": [
        {
          "internalType": "string[]",
          "name": "",
          "type": "string[]"
        }
      ],
      "stateMutability": "view",
      "type": "function",
      "constant": true
    },
    {
      "inputs": [
        {
          "internalType": "string",
          "name": "_username",
          "type": "string"
        }
      ],
      "name": "isUsernameAvailable",
      "outputs": [
        {
          "internalType": "bool",
          "name": "",
          "type": "bool"
        }
      ],
      "stateMutability": "view",
      "type": "function",
      "constant": true
    },
    {
      "inputs": [
        {
          "internalType": "string",
          "name": "_username",
          "type": "string"
        }
      ],
      "name": "resetUser",
      "outputs": [],
      "stateMutability": "nonpayable",
      "type": "function"
    },
    {
      "inputs": [
        {
          "internalType": "address",
          "name": "_to",
          "type": "address"
        },
        {
          "internalType": "string",
          "name": "_content",
          "type": "string"
        }
      ],
      "name": "sendMessage",
      "outputs": [],
      "stateMutability": "nonpayable",
      "type": "function"
    },
    {
      "inputs": [],
      "name": "getUnreadMessageCount",
      "outputs": [
        {
          "internalType": "uint256",
          "name": "",
          "type": "uint256"
        }
      ],
      "stateMutability": "view",
      "type": "function",
      "constant": true
    },
    {
      "inputs": [],
      "name": "getMyMessages",
      "outputs": [
        {
          "components": [
            {
              "internalType": "uint256",
              "name": "id",
              "type": "uint256"
            },
            {
              "internalType": "address",
              "name": "sender",
              "type": "address"
            },
            {
              "internalType": "address",
              "name": "recipient",
              "type": "address"
            },
            {
              "internalType": "string",
              "name": "content",
              "type": "string"
            },
            {
              "internalType": "uint256",
              "name": "timestamp",
              "type": "uint256"
            },
            {
              "internalType": "bool",
              "name": "isRead",
              "type": "bool"
            }
          ],
          "internalType": "struct UserAuth.Message[]",
          "name": "",
          "type": "tuple[]"
        }
      ],
      "stateMutability": "view",
      "type": "function",
      "constant": true
    },
    {
      "inputs": [
        {
          "internalType": "uint256",
          "name": "_messageId",
          "type": "uint256"
        }
      ],
      "name": "markMessageAsRead",
      "outputs": [],
      "stateMutability": "nonpayable",
      "type": "function"
    },
    {
      "inputs": [
        {
          "internalType": "address",
          "name": "_otherUser",
          "type": "address"
        }
      ],
      "name": "getMessagesWith",
      "outputs": [
        {
          "components": [
            {
              "internalType": "uint256",
              "name": "id",
              "type": "uint256"
            },
            {
              "internalType": "address",
              "name": "sender",
              "type": "address"
            },
            {
              "internalType": "address",
              "name": "recipient",
              "type": "address"
            },
            {
              "internalType": "string",
              "name": "content",
              "type": "string"
            },
            {
              "internalType": "uint256",
              "name": "timestamp",
              "type": "uint256"
            },
            {
              "internalType": "bool",
              "name": "isRead",
              "type": "bool"
            }
          ],
          "internalType": "struct UserAuth.Message[]",
          "name": "",
          "type": "tuple[]"
        }
      ],
      "stateMutability": "view",
      "type": "function",
      "constant": true
    }
  ],
  "bytecode": "0x608060405234801561001057600080fd5b50611d94806100206000396000f3fe608060405234801561001057600080fd5b50600436106100ec576000357c0100000000000000000000000000000000000000000000000000000000900480636322961d116100a9578063c1f1012711610083578063c1f10127146101db578063dd4a2425146101ee578063de6f24bb14610201578063f69c6dec1461021457600080fd5b80636322961d1461017f5780636a7d30f4146101aa578063b179bc34146101bd57600080fd5b8063138aae3c146100f15780633a7d280c1461011a5780633ffbd47f1461013a578063536203751461014f5780635e7339ce1461015757806362fd5d691461016c575b600080fd5b6101046100ff3660046115f6565b610237565b6040516101119190611668565b60405180910390f35b61012d61012836600461176f565b610326565b60405161011191906117ac565b61014d6101483660046117bf565b6104b6565b005b6101046107bb565b61015f610894565b6040516101119190611823565b61015f61017a3660046115f6565b6109d6565b61019261018d36600461176f565b610d16565b604051600160a060020a039091168152602001610111565b61014d6101b836600461176f565b610db9565b33600090815260066020526040902054604051908152602001610111565b61014d6101e93660046118d1565b611095565b61014d6101fc3660046117bf565b6111bd565b61014d61020f3660046118ea565b6112f2565b61022761022236600461176f565b611558565b6040519015158152602001610111565b600160a060020a0381166000908152600160209081526040808320805482518185028101850190935280835260609492939192909184015b8282101561031b57838290600052602060002001805461028e9061192e565b80601f01602080910402602001604051908101604052809291908181526020018280546102ba9061192e565b80156103075780601f106102dc57610100808354040283529160200191610307565b820191906000526020600020905b8154815290600101906020018083116102ea57829003601f168201915b50505050508152602001906001019061026f565b505050509050919050565b336000908152600460205260409081902090516060919061034890849061196b565b9081526040519081900360200190206002015460ff740100000000000000000000000000000000000000009091041661039f5760405160e560020a62461bcd02815260040161039690611987565b60405180910390fd5b336000818152600460205260409081902090516103bd90859061196b565b90815260405190819003602001902060020154600160a060020a0316146103f95760405160e560020a62461bcd028152600401610396906119be565b3360009081526004602052604090819020905161041790849061196b565b90815260405190819003602001902080546104319061192e565b80601f016020809104026020016040519081016040528092919081815260200182805461045d9061192e565b80156104aa5780601f1061047f576101008083540402835291602001916104aa565b820191906000526020600020905b81548152906001019060200180831161048d57829003601f168201915b50505050509050919050565b600082511161050a5760405160e560020a62461bcd02815260206004820152601860248201527f557365726e616d652063616e6e6f7420626520656d70747900000000000000006044820152606401610396565b600081511161055e5760405160e560020a62461bcd02815260206004820152601960248201527f4950465320686173682063616e6e6f7420626520656d707479000000000000006044820152606401610396565b60028260405161056e919061196b565b9081526040519081900360200190205460ff16156105d15760405160e560020a62461bcd02815260206004820152601760248201527f557365726e616d6520616c7265616479206578697374730000000000000000006044820152606401610396565b336000836040516105e2919061196b565b9081526040519081900360200190208054600160a060020a039290921673ffffffffffffffffffffffffffffffffffffffff19909216919091179055600380546001810182556000919091527fc2575a0e9e593c00f959f8c92f12db2869c3395a3b0502d05e2516446f71f85b0161065a8382611a43565b503360009081526001602081815260408320805492830181558352909120016106838382611a43565b506001600283604051610696919061196b565b9081526040805160209281900383018120805460ff1916941515949094179093556080830181528383528183018590523383820181905260016060850152600090815260049092529081902090516106ef90859061196b565b9081526040519081900360200190208151819061070c9082611a43565b50602082015160018201906107219082611a43565b50604082810151600290920180546060909401511515740100000000000000000000000000000000000000000274ffffffffffffffffffffffffffffffffffffffffff19909416600160a060020a0390931692909217929092179055517f7d18b42f8b54b38db3858d85addd4845b244c7ab57e5b3246475b88815c0c5cf906107af90849084903390611b09565b60405180910390a15050565b60606003805480602002602001604051908101604052809291908181526020016000905b8282101561088b5783829060005260206000200180546107fe9061192e565b80601f016020809104026020016040519081016040528092919081815260200182805461082a9061192e565b80156108775780601f1061084c57610100808354040283529160200191610877565b820191906000526020600020905b81548152906001019060200180831161085a57829003601f168201915b5050505050815260200190600101906107df565b50505050905090565b336000908152600560209081526040808320805482518185028101850190935280835260609492939192909184015b8282101561088b5760008481526020908190206040805160c08101825260068602909201805483526001810154600160a060020a03908116948401949094526002810154909316908201526003820180549192916060840191906109269061192e565b80601f01602080910402602001604051908101604052809291908181526020018280546109529061192e565b801561099f5780601f106109745761010080835404028352916020019161099f565b820191906000526020600020905b81548152906001019060200180831161098257829003601f168201915b5050509183525050600482015460208083019190915260059092015460ff16151560409091015290825260019290920191016108c3565b336000908152600560209081526040808320805482518185028101850190935280835260609493849084015b82821015610b155760008481526020908190206040805160c08101825260068602909201805483526001810154600160a060020a0390811694840194909452600281015490931690820152600382018054919291606084019190610a659061192e565b80601f0160208091040260200160405190810160405280929190818152602001828054610a919061192e565b8015610ade5780601f10610ab357610100808354040283529160200191610ade565b820191906000526020600020905b815481529060010190602001808311610ac157829003601f168201915b5050509183525050600482015460208083019190915260059092015460ff1615156040909101529082526001929092019101610a02565b5050505090506000805b8251811015610bb85784600160a060020a0316838281518110610b4457610b44611b48565b602002602001015160200151600160a060020a03161480610b93575084600160a060020a0316838281518110610b7c57610b7c611b48565b602002602001015160400151600160a060020a0316145b15610ba65781610ba281611b7a565b9250505b80610bb081611b7a565b915050610b1f565b5060008167ffffffffffffffff811115610bd457610bd46116c9565b604051908082528060200260200182016040528015610c3357816020015b6040805160c081018252600080825260208083018290529282018190526060808301526080820181905260a08201528252600019909201910181610bf25790505b5090506000805b8451811015610d0b5786600160a060020a0316858281518110610c5f57610c5f611b48565b602002602001015160200151600160a060020a03161480610cae575086600160a060020a0316858281518110610c9757610c97611b48565b602002602001015160400151600160a060020a0316145b15610cf957848181518110610cc557610cc5611b48565b6020026020010151838381518110610cdf57610cdf611b48565b60200260200101819052508180610cf590611b7a565b9250505b80610d0381611b7a565b915050610c3a565b509095945050505050565b6000600282604051610d28919061196b565b9081526040519081900360200190205460ff16610d8a5760405160e560020a62461bcd02815260206004820152601760248201527f557365726e616d6520646f6573206e6f742065786973740000000000000000006044820152606401610396565b600082604051610d9a919061196b565b90815260405190819003602001902054600160a060020a031692915050565b33600090815260046020526040908190209051610dd790839061196b565b9081526040519081900360200190206002015460ff7401000000000000000000000000000000000000000090910416610e255760405160e560020a62461bcd02815260040161039690611987565b33600081815260046020526040908190209051610e4390849061196b565b90815260405190819003602001902060020154600160a060020a031614610e7f5760405160e560020a62461bcd028152600401610396906119be565b6000600282604051610e91919061196b565b9081526040805160209281900383018120805460ff1916941515949094179093553360009081526004909252902090610ecb90839061196b565b9081526040519081900360200190206000610ee68282611584565b610ef4600183016000611584565b50600201805474ffffffffffffffffffffffffffffffffffffffffff1916905560005b3360009081526001602052604090205481101561105857815160208084019190912033600090815260019092526040909120805483908110610f5b57610f5b611b48565b90600052602060002001604051610f729190611b93565b6040518091039020036110465733600090815260016020819052604090912080549091610f9e91611c09565b81548110610fae57610fae611b48565b906000526020600020016001600033600160a060020a0316600160a060020a031681526020019081526020016000208281548110610fee57610fee611b48565b9060005260206000200190816110049190611c22565b5033600090815260016020526040902080548061102357611023611d03565b60019003818190600052602060002001600061103f9190611584565b9055611058565b8061105081611b7a565b915050610f17565b507f4887b75ee74c9b6425c46aa421d870ac3cb2c0a2237bef7776828a0d7a15f4f9813360405161108a929190611d1c565b60405180910390a150565b336000908152600560205260408120905b81548110156111b857828282815481106110c2576110c2611b48565b90600052602060002090600602016000015414801561110757508181815481106110ee576110ee611b48565b600091825260209091206005600690920201015460ff16155b156111a657600182828154811061112057611120611b48565b60009182526020808320600692830201600501805460ff1916941515949094179093553382529091526040902054156111745733600090815260066020526040812080549161116e83611d47565b91905055505b604051339084907f0e717203d5558319840e69b0f2050a456ab8ee5ef0fa53dc522de9e70d1b1ba290600090a3505050565b806111b081611b7a565b9150506110a6565b505050565b336000908152600460205260409081902090516111db90849061196b565b9081526040519081900360200190206002015460ff74010000000000000000000000000000000000000000909104166112295760405160e560020a62461bcd02815260040161039690611987565b3360008181526004602052604090819020905161124790859061196b565b90815260405190819003602001902060020154600160a060020a0316146112835760405160e560020a62461bcd028152600401610396906119be565b336000908152600460205260409081902090518291906112a490859061196b565b908152604051908190036020019020906112be9082611a43565b507f7719b353fdd197fac056b5d3061c6c14d75612521170bf1b0de2ec84cf9332ca8282336040516107af93929190611b09565b600160a060020a03821661134b5760405160e560020a62461bcd02815260206004820152601960248201527f496e76616c696420726563697069656e742061646472657373000000000000006044820152606401610396565b600081511161139f5760405160e560020a62461bcd02815260206004820152601760248201527f4d6573736167652063616e6e6f7420626520656d7074790000000000000000006044820152606401610396565b33600160a060020a038316036113fa5760405160e560020a62461bcd02815260206004820152601f60248201527f43616e6e6f742073656e64206d65737361676520746f20796f757273656c66006044820152606401610396565b6007805490600061140a83611b7a565b90915550506040805160c0810182526007548152336020808301918252600160a060020a0386811684860181815260608601888152426080880152600060a08801819052928352600585529682208054600180820183559184529490922086516006909502019384559351908301805473ffffffffffffffffffffffffffffffffffffffff19908116928416929092179055925160028301805490941691161790915591519091829160038201906114c29082611a43565b506080820151600482015560a0909101516005909101805460ff1916911515919091179055600160a060020a038316600090815260066020526040812080549161150b83611b7a565b9091555050600754604051428152600160a060020a0385169133917f048fe7fb7f676173adbf5a90abbccd6ac9039b2daa74c81dfa961668b5b9305b9060200160405180910390a4505050565b600060028260405161156a919061196b565b9081526040519081900360200190205460ff161592915050565b5080546115909061192e565b6000825580601f106115a0575050565b601f0160209004906000526020600020908101906115be91906115c1565b50565b5b808211156115d657600081556001016115c2565b5090565b8035600160a060020a03811681146115f157600080fd5b919050565b60006020828403121561160857600080fd5b611611826115da565b9392505050565b60005b8381101561163357818101518382015260200161161b565b50506000910152565b60008151808452611654816020860160208601611618565b601f01601f19169290920160200192915050565b600060208083018184528085518083526040860191506040848202870101925083870160005b828110156116bc57603f198886030184526116aa85835161163c565b9450928501929085019060010161168e565b5092979650505050505050565b60e060020a634e487b7102600052604160045260246000fd5b600082601f8301126116f357600080fd5b813567ffffffffffffffff8082111561170e5761170e6116c9565b604051601f8301601f19908116603f01168101908282118183101715611736576117366116c9565b8160405283815286602085880101111561174f57600080fd5b836020870160208301376000602085830101528094505050505092915050565b60006020828403121561178157600080fd5b813567ffffffffffffffff81111561179857600080fd5b6117a4848285016116e2565b949350505050565b602081526000611611602083018461163c565b600080604083850312156117d257600080fd5b823567ffffffffffffffff808211156117ea57600080fd5b6117f6868387016116e2565b9350602085013591508082111561180c57600080fd5b50611819858286016116e2565b9150509250929050565b60208082528251828201819052600091906040908185019080840286018301878501865b838110156118c357888303603f1901855281518051845287810151600160a060020a039081168986015287820151168785015260608082015160c082870181905291906118968388018261163c565b6080858101519089015260a094850151151594909701939093525050509386019390860190600101611847565b509098975050505050505050565b6000602082840312156118e357600080fd5b5035919050565b600080604083850312156118fd57600080fd5b611906836115da565b9150602083013567ffffffffffffffff81111561192257600080fd5b611819858286016116e2565b60028104600182168061194257607f821691505b6020821081036119655760e060020a634e487b7102600052602260045260246000fd5b50919050565b6000825161197d818460208701611618565b9190910192915050565b60208082526013908201527f55736572206e6f74207265676973746572656400000000000000000000000000604082015260600190565b60208082526013908201527f556e617574686f72697a65642061636365737300000000000000000000000000604082015260600190565b601f8211156111b8576000818152602081206020601f86010481016020861015611a1c5750805b6020601f860104820191505b81811015611a3b57828155600101611a28565b505050505050565b815167ffffffffffffffff811115611a5d57611a5d6116c9565b611a7181611a6b845461192e565b846119f5565b602080601f831160018114611aaa5760008415611a8e5750858301515b60028086026008870290910a6000190419821617865550611a3b565b600085815260208120601f198616915b82811015611ad957888601518255948401946001909101908401611aba565b5085821015611af957878501516008601f88160260020a60001904191681555b5050505050600202600101905550565b606081526000611b1c606083018661163c565b8281036020840152611b2e818661163c565b915050600160a060020a0383166040830152949350505050565b60e060020a634e487b7102600052603260045260246000fd5b60e060020a634e487b7102600052601160045260246000fd5b600060018201611b8c57611b8c611b61565b5060010190565b6000808354611ba18161192e565b60018281168015611bb95760018114611bce57611bfd565b60ff1984168752821515830287019450611bfd565b8760005260208060002060005b85811015611bf45781548a820152908401908201611bdb565b50505082870194505b50929695505050505050565b81810381811115611c1c57611c1c611b61565b92915050565b818103611c2d575050565b611c37825461192e565b67ffffffffffffffff811115611c4f57611c4f6116c9565b611c5d81611a6b845461192e565b6000601f821160018114611c955760008315611c795750848201545b60028085026008860290910a6000190419821617855550611cfc565b600085815260209020601f19841690600086815260209020845b83811015611ccf5782860154825560019586019590910190602001611caf565b5085831015611cef57818501546008601f88160260020a60001904191681555b5050506001600284020184555b5050505050565b60e060020a634e487b7102600052603160045260246000fd5b604081526000611d2f604083018561163c565b9050600160a060020a03831660208301529392505050565b600081611d5657611d56611b61565b50600019019056fea2646970667358221220f11c09cea47cb65c7e7c6119612c3a34c922ab4f2e21ec3682523aca44c4ff4164736f6c63430008150033",
  "immutableReferences": {},
  "source": "// SPDX-License-Identifier: MIT\npragma solidity ^0.8.0;\n\ncontract UserAuth {\n    // Structure to store user information\n    struct User {\n        string ipfsHash;      // IPFS hash for storing user data\n        string username;      // Username for the user\n        address userAddress;  // Ethereum address of the user\n        bool isRegistered;    // Flag to check if user exists\n    }\n\n    // New Message structure\n    struct Message {\n        uint256 id;\n        address sender;\n        address recipient;\n        string content;\n        uint256 timestamp;\n        bool isRead;\n    }\n\n    // Modified mappings\n    mapping(string => address) private usernameToAddress;  // Map username to address\n    mapping(address => string[]) private usernames;        // Map address to usernames\n    mapping(string => bool) private usernameExists;        // Track if username exists\n    string[] private allUsernames;                         // Array to track all usernames\n\n    // State variables\n    mapping(address => mapping(string => User)) private users;    // Map address and username to user data\n\n    // New mappings for messages\n    mapping(address => Message[]) private userMessages;\n    mapping(address => uint256) private unreadMessageCount;\n    uint256 private messageIdCounter;\n\n    // Events\n    event UserRegistered(string username, string ipfsHash, address userAddress);\n    event UserUpdated(string username, string newIpfsHash, address userAddress);\n    event UserReset(string username, address userAddress);\n\n    // New events for messages\n    event MessageSent(\n        uint256 indexed messageId,\n        address indexed from,\n        address indexed to,\n        uint256 timestamp\n    );\n    event MessageRead(uint256 indexed messageId, address indexed by);\n\n    // Register a new user\n    function register(string memory _username, string memory _ipfsHash) public {\n        // Check if the username is empty\n        require(bytes(_username).length > 0, \"Username cannot be empty\");\n        require(bytes(_ipfsHash).length > 0, \"IPFS hash cannot be empty\");\n        \n        // Ensure the username is unique globally\n        require(!usernameExists[_username], \"Username already exists\");\n        \n        // Store username to address mapping\n        usernameToAddress[_username] = msg.sender;\n        \n        // Add username to global list\n        allUsernames.push(_username);\n        \n        // Add to user's usernames\n        usernames[msg.sender].push(_username);\n        \n        // Mark username as taken\n        usernameExists[_username] = true;\n\n        // Create new user\n        users[msg.sender][_username] = User({\n            ipfsHash: _ipfsHash,\n            username: _username,\n            userAddress: msg.sender,\n            isRegistered: true\n        });\n\n        // Emit registration event\n        emit UserRegistered(_username, _ipfsHash, msg.sender);\n    }\n\n    // Login function - Returns IPFS hash for a registered user\n    function login(string memory _username) public view returns (string memory) {\n        // Ensure the user is registered\n        require(users[msg.sender][_username].isRegistered, \"User not registered\");\n        require(users[msg.sender][_username].userAddress == msg.sender, \"Unauthorized access\");\n        \n        // Return the IPFS hash\n        return users[msg.sender][_username].ipfsHash;\n    }\n\n    // Update user data\n    function updateUser(string memory _username, string memory _newIpfsHash) public {\n        // Ensure the user exists and is the owner\n        require(users[msg.sender][_username].isRegistered, \"User not registered\");\n        require(users[msg.sender][_username].userAddress == msg.sender, \"Unauthorized access\");\n        \n        // Update the IPFS hash\n        users[msg.sender][_username].ipfsHash = _newIpfsHash;\n        \n        // Emit update event\n        emit UserUpdated(_username, _newIpfsHash, msg.sender);\n    }\n\n    // Get address for a username\n    function getAddressByUsername(string memory _username) public view returns (address) {\n        require(usernameExists[_username], \"Username does not exist\");\n        return usernameToAddress[_username];\n    }\n\n    // Get all registered usernames\n    function getAllUsernames() public view returns (string[] memory) {\n        return allUsernames;\n    }\n\n    // Get all usernames for an address\n    function getUsernames(address _userAddress) public view returns (string[] memory) {\n        return usernames[_userAddress];\n    }\n\n    // Check if a username exists\n    function isUsernameAvailable(string memory _username) public view returns (bool) {\n        return !usernameExists[_username];\n    }\n\n    // Reset user registration (FOR DEVELOPMENT/TESTING PURPOSE ONLY)\n    function resetUser(string memory _username) public {\n        // Ensure the user is already registered\n        require(users[msg.sender][_username].isRegistered, \"User not registered\");\n        require(users[msg.sender][_username].userAddress == msg.sender, \"Unauthorized access\");\n\n        // Remove username from global tracking\n        usernameExists[_username] = false;\n\n        // Remove user data\n        delete users[msg.sender][_username];\n\n        // Remove username from user's list\n        for(uint i = 0; i < usernames[msg.sender].length; i++) {\n            if(keccak256(bytes(usernames[msg.sender][i])) == keccak256(bytes(_username))) {\n                // Replace with last element and pop\n                usernames[msg.sender][i] = usernames[msg.sender][usernames[msg.sender].length - 1];\n                usernames[msg.sender].pop();\n                break;\n            }\n        }\n\n        // Emit reset event\n        emit UserReset(_username, msg.sender);\n    }\n\n    // New function to send a message\n    function sendMessage(address _to, string memory _content) public {\n        require(_to != address(0), \"Invalid recipient address\");\n        require(bytes(_content).length > 0, \"Message cannot be empty\");\n        require(_to != msg.sender, \"Cannot send message to yourself\");\n\n        messageIdCounter++;\n        \n        Message memory newMessage = Message({\n            id: messageIdCounter,\n            sender: msg.sender,\n            recipient: _to,\n            content: _content,\n            timestamp: block.timestamp,\n            isRead: false\n        });\n\n        userMessages[_to].push(newMessage);\n        unreadMessageCount[_to]++;\n\n        emit MessageSent(messageIdCounter, msg.sender, _to, block.timestamp);\n    }\n\n    // Get unread message count\n    function getUnreadMessageCount() public view returns (uint256) {\n        return unreadMessageCount[msg.sender];\n    }\n\n    // Get all messages for the caller\n    function getMyMessages() public view returns (Message[] memory) {\n        return userMessages[msg.sender];\n    }\n\n    // Mark a message as read\n    function markMessageAsRead(uint256 _messageId) public {\n        Message[] storage messages = userMessages[msg.sender];\n        \n        for (uint i = 0; i < messages.length; i++) {\n            if (messages[i].id == _messageId && !messages[i].isRead) {\n                messages[i].isRead = true;\n                if (unreadMessageCount[msg.sender] > 0) {\n                    unreadMessageCount[msg.sender]--;\n                }\n                emit MessageRead(_messageId, msg.sender);\n                break;\n            }\n        }\n    }\n\n    // Get messages between current user and another user\n    function getMessagesWith(address _otherUser) public view returns (Message[] memory) {\n        Message[] memory allMessages = userMessages[msg.sender];\n        uint256 relevantCount = 0;\n\n        // Count relevant messages\n        for (uint i = 0; i < allMessages.length; i++) {\n            if (allMessages[i].sender == _otherUser || allMessages[i].recipient == _otherUser) {\n                relevantCount++;\n            }\n        }\n\n        // Create array of relevant messages\n        Message[] memory relevantMessages = new Message[](relevantCount);\n        uint256 currentIndex = 0;\n\n        for (uint i = 0; i < allMessages.length; i++) {\n            if (allMessages[i].sender == _otherUser || allMessages[i].recipient == _otherUser) {\n                relevantMessages[currentIndex] = allMessages[i];\n                currentIndex++;\n            }\n        }\n\n        return relevantMessages;\n    }\n}\n",
  "sourcePath": "/Users/syedroshanalishah/Desktop/Blockchain/Blockchain_app_FYP/contracts/UserAuth.sol",
  "compiler": {
    "name": "solc",
    "version": "0.8.21+commit.d9974bed.Emscripten.clang"
  },
  "schemaVersion": "3.4.16",
  "updatedAt": "2025-02-10T18:13:17.265Z",
  "networkType": "ethereum",
  "devdoc": {
    "kind": "dev",
    "methods": {},
    "version": 1
  },
  "userdoc": {
    "kind": "user",
    "methods": {},
    "version": 1
  }
}