{
  "contractName": "CreatePost",
  "abi": [
    {
      "anonymous": false,
      "inputs": [
        {
          "indexed": false,
          "internalType": "uint256",
          "name": "postId",
          "type": "uint256"
        },
        {
          "indexed": true,
          "internalType": "address",
          "name": "creator",
          "type": "address"
        },
        {
          "indexed": false,
          "internalType": "string",
          "name": "contentHash",
          "type": "string"
        },
        {
          "indexed": false,
          "internalType": "uint256",
          "name": "timestamp",
          "type": "uint256"
        }
      ],
      "name": "PostCreated",
      "type": "event"
    },
    {
      "inputs": [],
      "name": "postCounter",
      "outputs": [
        {
          "internalType": "uint256",
          "name": "",
          "type": "uint256"
        }
      ],
      "stateMutability": "view",
      "type": "function",
      "constant": true
    },
    {
      "inputs": [
        {
          "internalType": "uint256",
          "name": "",
          "type": "uint256"
        }
      ],
      "name": "posts",
      "outputs": [
        {
          "internalType": "uint256",
          "name": "postId",
          "type": "uint256"
        },
        {
          "internalType": "address",
          "name": "creator",
          "type": "address"
        },
        {
          "internalType": "string",
          "name": "contentHash",
          "type": "string"
        },
        {
          "internalType": "uint256",
          "name": "timestamp",
          "type": "uint256"
        }
      ],
      "stateMutability": "view",
      "type": "function",
      "constant": true
    },
    {
      "inputs": [
        {
          "internalType": "address",
          "name": "",
          "type": "address"
        },
        {
          "internalType": "uint256",
          "name": "",
          "type": "uint256"
        }
      ],
      "name": "userPosts",
      "outputs": [
        {
          "internalType": "uint256",
          "name": "",
          "type": "uint256"
        }
      ],
      "stateMutability": "view",
      "type": "function",
      "constant": true
    },
    {
      "inputs": [
        {
          "internalType": "string",
          "name": "_contentHash",
          "type": "string"
        }
      ],
      "name": "createPost",
      "outputs": [],
      "stateMutability": "nonpayable",
      "type": "function"
    },
    {
      "inputs": [
        {
          "internalType": "address",
          "name": "_user",
          "type": "address"
        }
      ],
      "name": "getPostsByUser",
      "outputs": [
        {
          "internalType": "uint256[]",
          "name": "",
          "type": "uint256[]"
        }
      ],
      "stateMutability": "view",
      "type": "function",
      "constant": true
    },
    {
      "inputs": [
        {
          "internalType": "uint256",
          "name": "_postId",
          "type": "uint256"
        }
      ],
      "name": "getPost",
      "outputs": [
        {
          "components": [
            {
              "internalType": "uint256",
              "name": "postId",
              "type": "uint256"
            },
            {
              "internalType": "address",
              "name": "creator",
              "type": "address"
            },
            {
              "internalType": "string",
              "name": "contentHash",
              "type": "string"
            },
            {
              "internalType": "uint256",
              "name": "timestamp",
              "type": "uint256"
            }
          ],
          "internalType": "struct CreatePost.Post",
          "name": "",
          "type": "tuple"
        }
      ],
      "stateMutability": "view",
      "type": "function",
      "constant": true
    }
  ],
  "bytecode": "0x608060405234801561001057600080fd5b506109ed806100206000396000f3fe608060405234801561001057600080fd5b506004361061007e577c0100000000000000000000000000000000000000000000000000000000600035046309b3d75e81146100835780630b1e7f831461009f57806328538949146100c257806340731c24146100e25780638064d14914610102578063c7303c6114610115575b600080fd5b61008c60005481565b6040519081526020015b60405180910390f35b6100b26100ad366004610573565b61012a565b60405161009694939291906105d2565b6100d56100d0366004610627565b6101e6565b6040516100969190610649565b6100f56100f0366004610573565b610252565b604051610096919061068d565b61008c6101103660046106dc565b6103db565b610128610123366004610735565b61040c565b005b60026020819052600091825260409091208054600182015492820180549193600160a060020a0316929161015d906107e6565b80601f0160208091040260200160405190810160405280929190818152602001828054610189906107e6565b80156101d65780601f106101ab576101008083540402835291602001916101d6565b820191906000526020600020905b8154815290600101906020018083116101b957829003601f168201915b5050505050908060030154905084565b600160a060020a03811660009081526001602090815260409182902080548351818402810184019094528084526060939283018282801561024657602002820191906000526020600020905b815481526020019060010190808311610232575b50505050509050919050565b6102866040518060800160405280600081526020016000600160a060020a0316815260200160608152602001600081525090565b6000828152600260205260408120549003610302576040517f08c379a000000000000000000000000000000000000000000000000000000000815260206004820152601360248201527f506f737420646f6573206e6f742065786973740000000000000000000000000060448201526064015b60405180910390fd5b6000828152600260208181526040928390208351608081018552815481526001820154600160a060020a03169281019290925291820180549193840191610348906107e6565b80601f0160208091040260200160405190810160405280929190818152602001828054610374906107e6565b80156103c15780601f10610396576101008083540402835291602001916103c1565b820191906000526020600020905b8154815290600101906020018083116103a457829003601f168201915b505050505081526020016003820154815250509050919050565b600160205281600052604060002081815481106103f757600080fd5b90600052602060002001600091509150505481565b6000815111610477576040517f08c379a000000000000000000000000000000000000000000000000000000000815260206004820152601c60248201527f506f737420636f6e74656e742063616e6e6f7420626520656d7074790000000060448201526064016102f9565b60008054908061048683610839565b909155505060008054604080516080810182528281523360208083019182528284018781524260608501528587526002918290529390952082518155905160018201805473ffffffffffffffffffffffffffffffffffffffff1916600160a060020a039092169190911790559151929390929082019061050690826108c8565b5060609190910151600390910155336000818152600160208181526040808420805493840181558452922001839055517f285db98a4632176385795ddf0d2b67cef1a21f47eb2f5d06f786ab6b5147e200906105679084908690429061098e565b60405180910390a25050565b60006020828403121561058557600080fd5b5035919050565b6000815180845260005b818110156105b257602081850181015186830182015201610596565b506000602082860101526020601f19601f83011685010191505092915050565b848152600160a060020a03841660208201526080604082015260006105fa608083018561058c565b905082606083015295945050505050565b8035600160a060020a038116811461062257600080fd5b919050565b60006020828403121561063957600080fd5b6106428261060b565b9392505050565b6020808252825182820181905260009190848201906040850190845b8181101561068157835183529284019291840191600101610665565b50909695505050505050565b6020815281516020820152600160a060020a03602083015116604082015260006040830151608060608401526106c660a084018261058c565b9050606084015160808401528091505092915050565b600080604083850312156106ef57600080fd5b6106f88361060b565b946020939093013593505050565b7f4e487b7100000000000000000000000000000000000000000000000000000000600052604160045260246000fd5b60006020828403121561074757600080fd5b813567ffffffffffffffff8082111561075f57600080fd5b818401915084601f83011261077357600080fd5b81358181111561078557610785610706565b604051601f8201601f19908116603f011681019083821181831017156107ad576107ad610706565b816040528281528760208487010111156107c657600080fd5b826020860160208301376000928101602001929092525095945050505050565b6002810460018216806107fa57607f821691505b602082108103610833577f4e487b7100000000000000000000000000000000000000000000000000000000600052602260045260246000fd5b50919050565b600060018201610872577f4e487b7100000000000000000000000000000000000000000000000000000000600052601160045260246000fd5b5060010190565b601f8211156108c3576000818152602081206020601f860104810160208610156108a05750805b6020601f860104820191505b818110156108bf578281556001016108ac565b5050505b505050565b815167ffffffffffffffff8111156108e2576108e2610706565b6108f6816108f084546107e6565b84610879565b602080601f83116001811461092f57600084156109135750858301515b60028086026008870290910a60001904198216178655506108bf565b600085815260208120601f198616915b8281101561095e5788860151825594840194600190910190840161093f565b508582101561097e57878501516008601f88160260020a60001904191681555b5050505050600202600101905550565b8381526060602082015260006109a7606083018561058c565b905082604083015294935050505056fea2646970667358221220f9fd4e56f3cc99c1e78919ffa53851ee8b993b34e767b5e8014e38fc30ffad6364736f6c63430008150033",
  "immutableReferences": {},
  "source": "// SPDX-License-Identifier: MIT\npragma solidity ^0.8.0;\n\ncontract CreatePost {\n    // Structure to store posts\n    struct Post {\n        uint256 postId;\n        address creator;\n        string contentHash; // IPFS hash for post content\n        uint256 timestamp;\n    }\n\n    uint256 public postCounter; // Counter for post IDs\n    mapping(address => uint256[]) public userPosts; // Map user to their post IDs\n    mapping(uint256 => Post) public posts; // Map post ID to Post details\n\n    // Event for a new post\n    event PostCreated(uint256 postId, address indexed creator, string contentHash, uint256 timestamp);\n\n    // Function to create a new post\n    function createPost(string memory _contentHash) public {\n        require(bytes(_contentHash).length > 0, \"Post content cannot be empty\");\n\n        postCounter++;\n        uint256 newPostId = postCounter;\n\n        posts[newPostId] = Post({\n            postId: newPostId,\n            creator: msg.sender,\n            contentHash: _contentHash,\n            timestamp: block.timestamp\n        });\n\n        userPosts[msg.sender].push(newPostId);\n\n        emit PostCreated(newPostId, msg.sender, _contentHash, block.timestamp);\n    }\n\n    // Function to get posts by a user\n    function getPostsByUser(address _user) public view returns (uint256[] memory) {\n        return userPosts[_user];\n    }\n\n    // Function to get a post's details\n    function getPost(uint256 _postId) public view returns (Post memory) {\n        require(posts[_postId].postId != 0, \"Post does not exist\");\n        return posts[_postId];\n    }\n}",
  "sourcePath": "/Users/syedroshanalishah/Desktop/Blockchain/Blockchain_app_FYP/contracts/createPost.sol",
  "compiler": {
    "name": "solc",
    "version": "0.8.21+commit.d9974bed.Emscripten.clang"
  },
  "schemaVersion": "3.4.16",
  "updatedAt": "2025-02-10T17:07:29.169Z",
  "networkType": "ethereum",
  "devdoc": {
    "kind": "dev",
    "methods": {},
    "version": 1
  },
  "userdoc": {
    "kind": "user",
    "methods": {},
    "version": 1
  }
}