{
  "contractName": "FollowRelationship",
  "abi": [
    {
      "anonymous": false,
      "inputs": [
        {
          "indexed": true,
          "internalType": "address",
          "name": "from",
          "type": "address"
        },
        {
          "indexed": true,
          "internalType": "address",
          "name": "to",
          "type": "address"
        },
        {
          "indexed": false,
          "internalType": "uint256",
          "name": "timestamp",
          "type": "uint256"
        }
      ],
      "name": "FollowRequestAccepted",
      "type": "event"
    },
    {
      "anonymous": false,
      "inputs": [
        {
          "indexed": true,
          "internalType": "address",
          "name": "from",
          "type": "address"
        },
        {
          "indexed": true,
          "internalType": "address",
          "name": "to",
          "type": "address"
        },
        {
          "indexed": false,
          "internalType": "uint256",
          "name": "timestamp",
          "type": "uint256"
        }
      ],
      "name": "FollowRequestRejected",
      "type": "event"
    },
    {
      "anonymous": false,
      "inputs": [
        {
          "indexed": true,
          "internalType": "address",
          "name": "from",
          "type": "address"
        },
        {
          "indexed": true,
          "internalType": "address",
          "name": "to",
          "type": "address"
        },
        {
          "indexed": false,
          "internalType": "uint256",
          "name": "timestamp",
          "type": "uint256"
        }
      ],
      "name": "FollowRequestSent",
      "type": "event"
    },
    {
      "anonymous": false,
      "inputs": [
        {
          "indexed": true,
          "internalType": "address",
          "name": "from",
          "type": "address"
        },
        {
          "indexed": true,
          "internalType": "address",
          "name": "to",
          "type": "address"
        },
        {
          "indexed": false,
          "internalType": "uint256",
          "name": "timestamp",
          "type": "uint256"
        }
      ],
      "name": "Unfollowed",
      "type": "event"
    },
    {
      "inputs": [
        {
          "internalType": "address",
          "name": "_to",
          "type": "address"
        }
      ],
      "name": "sendFollowRequest",
      "outputs": [],
      "stateMutability": "nonpayable",
      "type": "function"
    },
    {
      "inputs": [
        {
          "internalType": "address",
          "name": "_from",
          "type": "address"
        }
      ],
      "name": "acceptFollowRequest",
      "outputs": [],
      "stateMutability": "nonpayable",
      "type": "function"
    },
    {
      "inputs": [
        {
          "internalType": "address",
          "name": "_from",
          "type": "address"
        }
      ],
      "name": "rejectFollowRequest",
      "outputs": [],
      "stateMutability": "nonpayable",
      "type": "function"
    },
    {
      "inputs": [
        {
          "internalType": "address",
          "name": "_user",
          "type": "address"
        }
      ],
      "name": "unfollow",
      "outputs": [],
      "stateMutability": "nonpayable",
      "type": "function"
    },
    {
      "inputs": [
        {
          "internalType": "address",
          "name": "_user",
          "type": "address"
        }
      ],
      "name": "getFollowers",
      "outputs": [
        {
          "internalType": "address[]",
          "name": "",
          "type": "address[]"
        }
      ],
      "stateMutability": "view",
      "type": "function",
      "constant": true
    },
    {
      "inputs": [
        {
          "internalType": "address",
          "name": "_user",
          "type": "address"
        }
      ],
      "name": "getFollowing",
      "outputs": [
        {
          "internalType": "address[]",
          "name": "",
          "type": "address[]"
        }
      ],
      "stateMutability": "view",
      "type": "function",
      "constant": true
    },
    {
      "inputs": [
        {
          "internalType": "address",
          "name": "_user",
          "type": "address"
        }
      ],
      "name": "getPendingRequests",
      "outputs": [
        {
          "components": [
            {
              "internalType": "address",
              "name": "from",
              "type": "address"
            },
            {
              "internalType": "address",
              "name": "to",
              "type": "address"
            },
            {
              "internalType": "uint256",
              "name": "timestamp",
              "type": "uint256"
            },
            {
              "internalType": "bool",
              "name": "accepted",
              "type": "bool"
            }
          ],
          "internalType": "struct FollowRelationship.FollowRequest[]",
          "name": "",
          "type": "tuple[]"
        }
      ],
      "stateMutability": "view",
      "type": "function",
      "constant": true
    },
    {
      "inputs": [
        {
          "internalType": "address",
          "name": "_follower",
          "type": "address"
        },
        {
          "internalType": "address",
          "name": "_followed",
          "type": "address"
        }
      ],
      "name": "isFollowing",
      "outputs": [
        {
          "internalType": "bool",
          "name": "",
          "type": "bool"
        }
      ],
      "stateMutability": "view",
      "type": "function",
      "constant": true
    },
    {
      "inputs": [
        {
          "internalType": "address",
          "name": "_user",
          "type": "address"
        }
      ],
      "name": "getFollowersCount",
      "outputs": [
        {
          "internalType": "uint256",
          "name": "",
          "type": "uint256"
        }
      ],
      "stateMutability": "view",
      "type": "function",
      "constant": true
    },
    {
      "inputs": [
        {
          "internalType": "address",
          "name": "_user",
          "type": "address"
        }
      ],
      "name": "getFollowingCount",
      "outputs": [
        {
          "internalType": "uint256",
          "name": "",
          "type": "uint256"
        }
      ],
      "stateMutability": "view",
      "type": "function",
      "constant": true
    },
    {
      "inputs": [
        {
          "internalType": "address",
          "name": "_user",
          "type": "address"
        }
      ],
      "name": "getPendingRequestsCount",
      "outputs": [
        {
          "internalType": "uint256",
          "name": "",
          "type": "uint256"
        }
      ],
      "stateMutability": "view",
      "type": "function",
      "constant": true
    }
  ],
  "bytecode": "0x608060405234801561001057600080fd5b506111e5806100206000396000f3fe608060405234801561001057600080fd5b50600436106100c6576000357c01000000000000000000000000000000000000000000000000000000009004806399ec3a421161008e57806399ec3a4214610155578063b31e976f14610178578063c2fe20221461018b578063d8236dff146101ab578063f05bfa7b146101be578063fab7d536146101de57600080fd5b8063015a4ead146100cb57806317b1b17b146100e057806325e9ccf9146100f357806367498fcc1461012f57806399a0504914610142575b600080fd5b6100de6100d9366004610f85565b610207565b005b6100de6100ee366004610f85565b610562565b61011c610101366004610f85565b600160a060020a031660009081526020819052604090205490565b6040519081526020015b60405180910390f35b6100de61013d366004610f85565b61072a565b6100de610150366004610f85565b61098d565b610168610163366004610fa7565b610cb1565b6040519015158152602001610126565b61011c610186366004610f85565b610d46565b61019e610199366004610f85565b610dd7565b6040516101269190610fda565b61019e6101b9366004610f85565b610e4b565b6101d16101cc366004610f85565b610ebf565b6040516101269190611027565b61011c6101ec366004610f85565b600160a060020a031660009081526001602052604090205490565b600080805b33600090815260016020526040902054811015610288573360009081526001602052604090208054600160a060020a03861691908390811061025057610250611099565b600091825260209091200154600160a060020a0316036102765760019250809150610288565b80610280816110f7565b91505061020c565b50816102de5760405160e560020a62461bcd02815260206004820152601760248201527f4e6f7420666f6c6c6f77696e672074686973207573657200000000000000000060448201526064015b60405180910390fd5b336000908152600160208190526040909120805490916102fd91611110565b8154811061030d5761030d611099565b6000918252602080832090910154338352600190915260409091208054600160a060020a03909216918390811061034657610346611099565b60009182526020808320919091018054600160a060020a031916600160a060020a03949094169390931790925533815260019091526040902080548061038e5761038e611123565b60008281526020812082016000199081018054600160a060020a031916905590910190915580805b600160a060020a03861660009081526020819052604090205481101561043b57600160a060020a038616600090815260208190526040902080543391908390811061040357610403611099565b600091825260209091200154600160a060020a031603610429576001925080915061043b565b80610433816110f7565b9150506103b6565b50811561051b57600160a060020a0385166000908152602081905260409020805461046890600190611110565b8154811061047857610478611099565b6000918252602080832090910154600160a060020a0388811684529183905260409092208054919092169190839081106104b4576104b4611099565b60009182526020808320919091018054600160a060020a031916600160a060020a03948516179055918716815290819052604090208054806104f8576104f8611123565b60008281526020902081016000199081018054600160a060020a03191690550190555b604051428152600160a060020a0386169033907ff0d82ce49539682842fa26e91dc8cc93b97878e7016e1a4c2603a73b0573a31b9060200160405180910390a35050505050565b600080805b3360009081526002602052604090205481101561062a573360009081526002602052604090208054600160a060020a0386169190839081106105ab576105ab611099565b6000918252602090912060049091020154600160a060020a031614801561060757503360009081526002602052604090208054829081106105ee576105ee611099565b600091825260209091206003600490920201015460ff16155b15610618576001925080915061062a565b80610622816110f7565b915050610567565b508161064b5760405160e560020a62461bcd0281526004016102d590611152565b3360009081526002602052604090208054600191908390811061067057610670611099565b60009182526020808320600492909202909101600301805460ff191693151593909317909255338082528183526040808320805460018181018355918552858520018054600160a060020a0319908116600160a060020a038b1690811790925581865282875283862080549384018155865294869020909101805490941683179093555142815290927f7d15b1dff99446cda9f0b5f02069bd16ee0c9895be9dffb149017330b6fb90d691015b60405180910390a3505050565b600080805b336000908152600260205260409020548110156107f2573360009081526002602052604090208054600160a060020a03861691908390811061077357610773611099565b6000918252602090912060049091020154600160a060020a03161480156107cf57503360009081526002602052604090208054829081106107b6576107b6611099565b600091825260209091206003600490920201015460ff16155b156107e057600192508091506107f2565b806107ea816110f7565b91505061072f565b50816108135760405160e560020a62461bcd0281526004016102d590611152565b336000908152600260205260409020805461083090600190611110565b8154811061084057610840611099565b90600052602060002090600402016002600033600160a060020a0316600160a060020a03168152602001908152602001600020828154811061088457610884611099565b600091825260208083208454600493909302018054600160a060020a03938416600160a060020a03199182161782556001808701549083018054919095169116179092556002808501548184015560039485015494909201805460ff191660ff9095161515949094179093553382529091526040902080548061090957610909611123565b6000828152602081206004600019909301928302018054600160a060020a0319908116825560018201805490911690556002810191909155600301805460ff1916905590556040513390600160a060020a038516907f3f3eec0f03b428369cd7f2dad27d52b3656be91d0e28ec26feacf9df5c2fc7619061071d9042815260200190565b33600160a060020a038216036109e85760405160e560020a62461bcd02815260206004820152601660248201527f43616e6e6f7420666f6c6c6f7720796f757273656c660000000000000000000060448201526064016102d5565b6000805b33600090815260016020526040902054811015610a65573360009081526001602052604090208054600160a060020a038516919083908110610a3057610a30611099565b600091825260209091200154600160a060020a031603610a535760019150610a65565b80610a5d816110f7565b9150506109ec565b508015610ab75760405160e560020a62461bcd02815260206004820152601b60248201527f416c726561647920666f6c6c6f77696e6720746869732075736572000000000060448201526064016102d5565b6000805b600160a060020a038416600090815260026020526040902054811015610b8d57600160a060020a0384166000908152600260205260409020805433919083908110610b0857610b08611099565b6000918252602090912060049091020154600160a060020a0316148015610b6d5750600160a060020a0384166000908152600260205260409020805482908110610b5457610b54611099565b600091825260209091206003600490920201015460ff16155b15610b7b5760019150610b8d565b80610b85816110f7565b915050610abb565b508015610bdf5760405160e560020a62461bcd02815260206004820152601e60248201527f466f6c6c6f77207265717565737420616c72656164792070656e64696e67000060448201526064016102d5565b6040805160808101825233808252600160a060020a0386811660208085018281524286880181815260006060890181815286825260028087528b8320805460018082018355918552938890208c516004909502018054948b16600160a060020a03199586161781559651908701805491909a1693169290921790975590519083015593516003909101805491151560ff19909216919091179055945191825292937f40356e1d84fa70c9739d96336287cd0245a757efb737393d88dd7d7d085f16cc910160405180910390a350505050565b6000805b600160a060020a038416600090815260016020526040902054811015610d3a57600160a060020a03848116600090815260016020526040902080549185169183908110610d0457610d04611099565b600091825260209091200154600160a060020a031603610d28576001915050610d40565b80610d32816110f7565b915050610cb5565b50600090505b92915050565b600080805b600160a060020a038416600090815260026020526040902054811015610dd057600160a060020a0384166000908152600260205260409020805482908110610d9557610d95611099565b600091825260209091206003600490920201015460ff16610dbe5781610dba816110f7565b9250505b80610dc8816110f7565b915050610d4b565b5092915050565b600160a060020a03811660009081526020818152604091829020805483518184028101840190945280845260609392830182828015610e3f57602002820191906000526020600020905b8154600160a060020a03168152600190910190602001808311610e21575b50505050509050919050565b600160a060020a038116600090815260016020908152604091829020805483518184028101840190945280845260609392830182828015610e3f57602002820191906000526020600020908154600160a060020a03168152600190910190602001808311610e215750505050509050919050565b600160a060020a0381166000908152600260209081526040808320805482518185028101850190935280835260609492939192909184015b82821015610f5e57600084815260209081902060408051608081018252600486029092018054600160a060020a039081168452600180830154909116848601526002820154928401929092526003015460ff16151560608301529083529092019101610ef7565b505050509050919050565b8035600160a060020a0381168114610f8057600080fd5b919050565b600060208284031215610f9757600080fd5b610fa082610f69565b9392505050565b60008060408385031215610fba57600080fd5b610fc383610f69565b9150610fd160208401610f69565b90509250929050565b6020808252825182820181905260009190848201906040850190845b8181101561101b578351600160a060020a031683529284019291840191600101610ff6565b50909695505050505050565b602080825282518282018190526000919060409081850190868401855b8281101561108c5781518051600160a060020a039081168652878201511687860152858101518686015260609081015115159085015260809093019290850190600101611044565b5091979650505050505050565b7f4e487b7100000000000000000000000000000000000000000000000000000000600052603260045260246000fd5b7f4e487b7100000000000000000000000000000000000000000000000000000000600052601160045260246000fd5b600060018201611109576111096110c8565b5060010190565b81810381811115610d4057610d406110c8565b7f4e487b7100000000000000000000000000000000000000000000000000000000600052603160045260246000fd5b60208082526021908201527f4e6f2070656e64696e6720726571756573742066726f6d20746869732075736560408201527f720000000000000000000000000000000000000000000000000000000000000060608201526080019056fea2646970667358221220f38a1dd8d795c9498ae5d8e7be9870d65f3e98e550e260e31db45382b84f02b264736f6c63430008150033",
  "immutableReferences": {},
  "source": "// SPDX-License-Identifier: MIT\npragma solidity ^0.8.0;\n\ncontract FollowRelationship {\n    // Struct for follow requests\n    struct FollowRequest {\n        address from;\n        address to;\n        uint256 timestamp;\n        bool accepted;\n    }\n    \n    // Mapping from user address to their followers' addresses\n    mapping(address => address[]) private followers;\n    \n    // Mapping from user address to addresses they are following\n    mapping(address => address[]) private following;\n    \n    // Mapping from user address to pending incoming follow requests\n    mapping(address => FollowRequest[]) private pendingRequests;\n    \n    // Events\n    event FollowRequestSent(address indexed from, address indexed to, uint256 timestamp);\n    event FollowRequestAccepted(address indexed from, address indexed to, uint256 timestamp);\n    event FollowRequestRejected(address indexed from, address indexed to, uint256 timestamp);\n    event Unfollowed(address indexed from, address indexed to, uint256 timestamp);\n    \n    // Send a follow request to another user\n    function sendFollowRequest(address _to) external {\n        require(_to != msg.sender, \"Cannot follow yourself\");\n        \n        // Check if already following\n        bool alreadyFollowing = false;\n        for (uint i = 0; i < following[msg.sender].length; i++) {\n            if (following[msg.sender][i] == _to) {\n                alreadyFollowing = true;\n                break;\n            }\n        }\n        require(!alreadyFollowing, \"Already following this user\");\n        \n        // Check if request already pending\n        bool requestPending = false;\n        for (uint i = 0; i < pendingRequests[_to].length; i++) {\n            if (pendingRequests[_to][i].from == msg.sender && !pendingRequests[_to][i].accepted) {\n                requestPending = true;\n                break;\n            }\n        }\n        require(!requestPending, \"Follow request already pending\");\n        \n        // Create and store the request\n        FollowRequest memory newRequest = FollowRequest({\n            from: msg.sender,\n            to: _to,\n            timestamp: block.timestamp,\n            accepted: false\n        });\n        \n        pendingRequests[_to].push(newRequest);\n        \n        emit FollowRequestSent(msg.sender, _to, block.timestamp);\n    }\n    \n    // Accept a follow request\n    function acceptFollowRequest(address _from) external {\n        bool requestFound = false;\n        uint requestIndex;\n        \n        // Find the request\n        for (uint i = 0; i < pendingRequests[msg.sender].length; i++) {\n            if (pendingRequests[msg.sender][i].from == _from && !pendingRequests[msg.sender][i].accepted) {\n                requestFound = true;\n                requestIndex = i;\n                break;\n            }\n        }\n        \n        require(requestFound, \"No pending request from this user\");\n        \n        // Mark request as accepted\n        pendingRequests[msg.sender][requestIndex].accepted = true;\n        \n        // Update follower/following relationships\n        followers[msg.sender].push(_from);\n        following[_from].push(msg.sender);\n        \n        emit FollowRequestAccepted(_from, msg.sender, block.timestamp);\n    }\n    \n    // Reject a follow request\n    function rejectFollowRequest(address _from) external {\n        bool requestFound = false;\n        uint requestIndex;\n        \n        // Find the request\n        for (uint i = 0; i < pendingRequests[msg.sender].length; i++) {\n            if (pendingRequests[msg.sender][i].from == _from && !pendingRequests[msg.sender][i].accepted) {\n                requestFound = true;\n                requestIndex = i;\n                break;\n            }\n        }\n        \n        require(requestFound, \"No pending request from this user\");\n        \n        // Remove the request\n        pendingRequests[msg.sender][requestIndex] = pendingRequests[msg.sender][pendingRequests[msg.sender].length - 1];\n        pendingRequests[msg.sender].pop();\n        \n        emit FollowRequestRejected(_from, msg.sender, block.timestamp);\n    }\n    \n    // Unfollow a user\n    function unfollow(address _user) external {\n        bool isFollowing = false;\n        uint followingIndex;\n        \n        // Find in following array\n        for (uint i = 0; i < following[msg.sender].length; i++) {\n            if (following[msg.sender][i] == _user) {\n                isFollowing = true;\n                followingIndex = i;\n                break;\n            }\n        }\n        \n        require(isFollowing, \"Not following this user\");\n        \n        // Remove from following array\n        following[msg.sender][followingIndex] = following[msg.sender][following[msg.sender].length - 1];\n        following[msg.sender].pop();\n        \n        // Remove from follower array of the other user\n        bool followerFound = false;\n        uint followerIndex;\n        \n        for (uint i = 0; i < followers[_user].length; i++) {\n            if (followers[_user][i] == msg.sender) {\n                followerFound = true;\n                followerIndex = i;\n                break;\n            }\n        }\n        \n        if (followerFound) {\n            followers[_user][followerIndex] = followers[_user][followers[_user].length - 1];\n            followers[_user].pop();\n        }\n        \n        emit Unfollowed(msg.sender, _user, block.timestamp);\n    }\n    \n    // Get all followers of a user\n    function getFollowers(address _user) external view returns (address[] memory) {\n        return followers[_user];\n    }\n    \n    // Get all users that a user is following\n    function getFollowing(address _user) external view returns (address[] memory) {\n        return following[_user];\n    }\n    \n    // Get pending follow requests for a user\n    function getPendingRequests(address _user) external view returns (FollowRequest[] memory) {\n        return pendingRequests[_user];\n    }\n    \n    // Check if user A is following user B\n    function isFollowing(address _follower, address _followed) external view returns (bool) {\n        for (uint i = 0; i < following[_follower].length; i++) {\n            if (following[_follower][i] == _followed) {\n                return true;\n            }\n        }\n        return false;\n    }\n    \n    // Get followers count\n    function getFollowersCount(address _user) external view returns (uint) {\n        return followers[_user].length;\n    }\n    \n    // Get following count\n    function getFollowingCount(address _user) external view returns (uint) {\n        return following[_user].length;\n    }\n    \n    // Get pending requests count\n    function getPendingRequestsCount(address _user) external view returns (uint) {\n        uint count = 0;\n        for (uint i = 0; i < pendingRequests[_user].length; i++) {\n            if (!pendingRequests[_user][i].accepted) {\n                count++;\n            }\n        }\n        return count;\n    }\n} ",
  "sourcePath": "/Users/syedroshanalishah/Desktop/Blockchain/Blockchain_app_FYP/contracts/FollowRelationship.sol",
  "compiler": {
    "name": "solc",
    "version": "0.8.21+commit.d9974bed.Emscripten.clang"
  },
  "schemaVersion": "3.4.16",
  "updatedAt": "2025-04-23T18:04:19.339Z",
  "networkType": "ethereum",
  "devdoc": {
    "kind": "dev",
    "methods": {},
    "version": 1
  },
  "userdoc": {
    "kind": "user",
    "methods": {},
    "version": 1
  }
}