{
  "contractName": "UserAuth",
  "abi": [
    {
      "anonymous": false,
      "inputs": [
        {
          "indexed": false,
          "internalType": "string",
          "name": "ipfsHash",
          "type": "string"
        },
        {
          "indexed": false,
          "internalType": "address",
          "name": "userAddress",
          "type": "address"
        }
      ],
      "name": "UserRegistered",
      "type": "event"
    },
    {
      "anonymous": false,
      "inputs": [
        {
          "indexed": false,
          "internalType": "address",
          "name": "userAddress",
          "type": "address"
        }
      ],
      "name": "UserReset",
      "type": "event"
    },
    {
      "inputs": [
        {
          "internalType": "string",
          "name": "_ipfsHash",
          "type": "string"
        }
      ],
      "name": "register",
      "outputs": [],
      "stateMutability": "nonpayable",
      "type": "function"
    },
    {
      "inputs": [],
      "name": "login",
      "outputs": [
        {
          "internalType": "string",
          "name": "",
          "type": "string"
        }
      ],
      "stateMutability": "view",
      "type": "function",
      "constant": true
    },
    {
      "inputs": [],
      "name": "resetUser",
      "outputs": [],
      "stateMutability": "nonpayable",
      "type": "function"
    }
  ],
  "bytecode": "0x608060405234801561001057600080fd5b5061089b806100206000396000f3fe608060405234801561001057600080fd5b506004361061005d577c010000000000000000000000000000000000000000000000000000000060003504631980b22e8114610062578063b34e97e81461006c578063f2c298be1461008a575b600080fd5b61006a61009d565b005b6100746101c3565b6040516100819190610539565b60405180910390f35b61006a610098366004610582565b6102d1565b33600090815260208190526040812080546100b790610633565b90501161010e5760405160e560020a62461bcd02815260206004820152601460248201527f55736572206e6f7420726567697374657265642e00000000000000000000000060448201526064015b60405180910390fd5b33600090815260208181526040808320905161012a9201610686565b60408051601f198184030181529181528151602092830120600081815260018452828120805460ff19169055338152928390529082209092509061016e8282610493565b50600101805473ffffffffffffffffffffffffffffffffffffffff191690556040513381527fa84a765ff0b34a8011d2cf523c71c7cc26b88417c652ec9b3bad84220ef8f7779060200160405180910390a150565b336000908152602081905260408120805460609291906101e290610633565b9050116102345760405160e560020a62461bcd02815260206004820152601460248201527f55736572206e6f7420726567697374657265642e0000000000000000000000006044820152606401610105565b336000908152602081905260409020805461024e90610633565b80601f016020809104026020016040519081016040528092919081815260200182805461027a90610633565b80156102c75780601f1061029c576101008083540402835291602001916102c7565b820191906000526020600020905b8154815290600101906020018083116102aa57829003601f168201915b5050505050905090565b33600090815260208190526040902080546102eb90610633565b15905061033d5760405160e560020a62461bcd02815260206004820152601860248201527f5573657220616c726561647920726567697374657265642e00000000000000006044820152606401610105565b60008160405160200161035091906106fc565b60408051601f1981840301815291815281516020928301206000818152600190935291205490915060ff16156103cb5760405160e560020a62461bcd02815260206004820152601860248201527f557365726e616d6520616c7265616479206578697374732e00000000000000006044820152606401610105565b604080518082018252838152336020808301829052600091825281905291909120815181906103fa9082610767565b506020918201516001918201805473ffffffffffffffffffffffffffffffffffffffff191673ffffffffffffffffffffffffffffffffffffffff909216919091179055600083815291819052604091829020805460ff19169091179055517f7f605d0ff47d2a070e456b69ce2a36041788910b64443c7f4c6d307993cade2c90610487908490339061082d565b60405180910390a15050565b50805461049f90610633565b6000825580601f106104af575050565b601f0160209004906000526020600020908101906104cd91906104d0565b50565b5b808211156104e557600081556001016104d1565b5090565b60005b838110156105045781810151838201526020016104ec565b50506000910152565b600081518084526105258160208601602086016104e9565b601f01601f19169290920160200192915050565b60208152600061054c602083018461050d565b9392505050565b7f4e487b7100000000000000000000000000000000000000000000000000000000600052604160045260246000fd5b60006020828403121561059457600080fd5b813567ffffffffffffffff808211156105ac57600080fd5b818401915084601f8301126105c057600080fd5b8135818111156105d2576105d2610553565b604051601f8201601f19908116603f011681019083821181831017156105fa576105fa610553565b8160405282815287602084870101111561061357600080fd5b826020860160208301376000928101602001929092525095945050505050565b60028104600182168061064757607f821691505b602082108103610680577f4e487b7100000000000000000000000000000000000000000000000000000000600052602260045260246000fd5b50919050565b600080835461069481610633565b600182811680156106ac57600181146106c1576106f0565b60ff19841687528215158302870194506106f0565b8760005260208060002060005b858110156106e75781548a8201529084019082016106ce565b50505082870194505b50929695505050505050565b6000825161070e8184602087016104e9565b9190910192915050565b601f821115610762576000818152602081206020601f8601048101602086101561073f5750805b6020601f860104820191505b8181101561075e5782815560010161074b565b5050505b505050565b815167ffffffffffffffff81111561078157610781610553565b6107958161078f8454610633565b84610718565b602080601f8311600181146107ce57600084156107b25750858301515b60028086026008870290910a600019041982161786555061075e565b600085815260208120601f198616915b828110156107fd578886015182559484019460019091019084016107de565b508582101561081d57878501516008601f88160260020a60001904191681555b5050505050600202600101905550565b604081526000610840604083018561050d565b905073ffffffffffffffffffffffffffffffffffffffff83166020830152939250505056fea26469706673582212209db09aee656d896263c6c92186d91629b3d5bdfd8e721e85eba7ec452db2480e64736f6c63430008150033",
  "immutableReferences": {},
  "source": "// SPDX-License-Identifier: MIT\npragma solidity ^0.8.0;\n\ncontract UserAuth {\n    // Structure to store user information\n    struct User {\n        string ipfsHash;      // IPFS hash for storing user data\n        address userAddress;  // Ethereum address of the user\n    }\n\n    // State variables\n    mapping(address => User) private users;                 // Map address to user data\n    mapping(bytes32 => bool) private usernameExists;        // Track if username exists\n\n    // Events\n    event UserRegistered(string ipfsHash, address userAddress);\n    event UserReset(address userAddress);\n\n    // Register a new user\n    function register(string memory _ipfsHash) public {\n        // Check if the user is already registered\n        require(bytes(users[msg.sender].ipfsHash).length == 0, \"User already registered.\");\n        \n        // Ensure the IPFS hash (username) is unique\n        bytes32 usernameHash = keccak256(abi.encodePacked(_ipfsHash));\n        require(!usernameExists[usernameHash], \"Username already exists.\");\n\n        // Store the user data\n        users[msg.sender] = User(_ipfsHash, msg.sender);\n        usernameExists[usernameHash] = true;\n\n        // Emit registration event\n        emit UserRegistered(_ipfsHash, msg.sender);\n    }\n\n    // Login function - Returns IPFS hash for a registered user\n    function login() public view returns (string memory) {\n        // Ensure the user is registered\n        require(bytes(users[msg.sender].ipfsHash).length > 0, \"User not registered.\");\n        \n        // Return the IPFS hash\n        return users[msg.sender].ipfsHash;\n    }\n\n    // Reset user registration (FOR DEVELOPMENT/TESTING PURPOSE ONLY)\n    function resetUser() public {\n        // Ensure the user is already registered\n        require(bytes(users[msg.sender].ipfsHash).length > 0, \"User not registered.\");\n\n        // Delete user data and username mapping\n        bytes32 usernameHash = keccak256(abi.encodePacked(users[msg.sender].ipfsHash));\n        delete usernameExists[usernameHash];\n        delete users[msg.sender];\n\n        // Emit reset event\n        emit UserReset(msg.sender);\n    }\n}\n",
  "sourcePath": "/Users/syedroshanalishah/Documents/FYP/Blockchain_app/contracts/UserAuth.sol",
  "compiler": {
    "name": "solc",
    "version": "0.8.21+commit.d9974bed.Emscripten.clang"
  },
  "schemaVersion": "3.4.16",
  "updatedAt": "2025-01-30T17:27:20.350Z",
  "networkType": "ethereum",
  "devdoc": {
    "kind": "dev",
    "methods": {},
    "version": 1
  },
  "userdoc": {
    "kind": "user",
    "methods": {},
    "version": 1
  }
}