{
  "contractName": "UserAuth",
  "abi": [
    {
      "anonymous": false,
      "inputs": [
        {
          "indexed": true,
          "internalType": "address",
          "name": "user",
          "type": "address"
        },
        {
          "indexed": true,
          "internalType": "address",
          "name": "recoveryAddress",
          "type": "address"
        },
        {
          "indexed": false,
          "internalType": "string",
          "name": "username",
          "type": "string"
        }
      ],
      "name": "AccountRecoveredByTrustedParty",
      "type": "event"
    },
    {
      "anonymous": false,
      "inputs": [
        {
          "indexed": true,
          "internalType": "address",
          "name": "user",
          "type": "address"
        },
        {
          "indexed": false,
          "internalType": "string",
          "name": "username",
          "type": "string"
        }
      ],
      "name": "AccountRecoveryRequested",
      "type": "event"
    },
    {
      "anonymous": false,
      "inputs": [
        {
          "indexed": true,
          "internalType": "address",
          "name": "user",
          "type": "address"
        },
        {
          "indexed": false,
          "internalType": "string",
          "name": "contentType",
          "type": "string"
        },
        {
          "indexed": false,
          "internalType": "string",
          "name": "contentHash",
          "type": "string"
        }
      ],
      "name": "ContentDeleted",
      "type": "event"
    },
    {
      "anonymous": false,
      "inputs": [
        {
          "indexed": true,
          "internalType": "address",
          "name": "user",
          "type": "address"
        },
        {
          "indexed": false,
          "internalType": "string",
          "name": "dataType",
          "type": "string"
        },
        {
          "indexed": false,
          "internalType": "bool",
          "name": "allowed",
          "type": "bool"
        }
      ],
      "name": "DataExportPermissionUpdated",
      "type": "event"
    },
    {
      "anonymous": false,
      "inputs": [
        {
          "indexed": false,
          "internalType": "string",
          "name": "username",
          "type": "string"
        },
        {
          "indexed": true,
          "internalType": "address",
          "name": "userAddress",
          "type": "address"
        },
        {
          "indexed": false,
          "internalType": "bool",
          "name": "recoverable",
          "type": "bool"
        }
      ],
      "name": "EnhancedUserReset",
      "type": "event"
    },
    {
      "anonymous": false,
      "inputs": [
        {
          "indexed": true,
          "internalType": "uint256",
          "name": "messageId",
          "type": "uint256"
        },
        {
          "indexed": true,
          "internalType": "address",
          "name": "by",
          "type": "address"
        }
      ],
      "name": "MessageRead",
      "type": "event"
    },
    {
      "anonymous": false,
      "inputs": [
        {
          "indexed": true,
          "internalType": "uint256",
          "name": "messageId",
          "type": "uint256"
        },
        {
          "indexed": true,
          "internalType": "address",
          "name": "from",
          "type": "address"
        },
        {
          "indexed": true,
          "internalType": "address",
          "name": "to",
          "type": "address"
        },
        {
          "indexed": false,
          "internalType": "uint256",
          "name": "timestamp",
          "type": "uint256"
        }
      ],
      "name": "MessageSent",
      "type": "event"
    },
    {
      "anonymous": false,
      "inputs": [
        {
          "indexed": true,
          "internalType": "address",
          "name": "user",
          "type": "address"
        }
      ],
      "name": "RecoveryAddressRemoved",
      "type": "event"
    },
    {
      "anonymous": false,
      "inputs": [
        {
          "indexed": true,
          "internalType": "address",
          "name": "user",
          "type": "address"
        },
        {
          "indexed": true,
          "internalType": "address",
          "name": "recoveryAddress",
          "type": "address"
        }
      ],
      "name": "RecoveryAddressSet",
      "type": "event"
    },
    {
      "anonymous": false,
      "inputs": [
        {
          "indexed": true,
          "internalType": "address",
          "name": "user",
          "type": "address"
        },
        {
          "indexed": true,
          "internalType": "address",
          "name": "newRecoveryAddress",
          "type": "address"
        }
      ],
      "name": "RecoveryAddressUpdated",
      "type": "event"
    },
    {
      "anonymous": false,
      "inputs": [
        {
          "indexed": false,
          "internalType": "string",
          "name": "username",
          "type": "string"
        },
        {
          "indexed": false,
          "internalType": "string",
          "name": "ipfsHash",
          "type": "string"
        },
        {
          "indexed": false,
          "internalType": "address",
          "name": "userAddress",
          "type": "address"
        }
      ],
      "name": "UserRegistered",
      "type": "event"
    },
    {
      "anonymous": false,
      "inputs": [
        {
          "indexed": false,
          "internalType": "string",
          "name": "username",
          "type": "string"
        },
        {
          "indexed": false,
          "internalType": "address",
          "name": "userAddress",
          "type": "address"
        }
      ],
      "name": "UserReset",
      "type": "event"
    },
    {
      "anonymous": false,
      "inputs": [
        {
          "indexed": false,
          "internalType": "string",
          "name": "username",
          "type": "string"
        },
        {
          "indexed": false,
          "internalType": "string",
          "name": "newIpfsHash",
          "type": "string"
        },
        {
          "indexed": false,
          "internalType": "address",
          "name": "userAddress",
          "type": "address"
        }
      ],
      "name": "UserUpdated",
      "type": "event"
    },
    {
      "inputs": [
        {
          "internalType": "address",
          "name": "",
          "type": "address"
        },
        {
          "internalType": "string",
          "name": "",
          "type": "string"
        }
      ],
      "name": "dataExportPermissions",
      "outputs": [
        {
          "internalType": "bool",
          "name": "",
          "type": "bool"
        }
      ],
      "stateMutability": "view",
      "type": "function",
      "constant": true
    },
    {
      "inputs": [
        {
          "internalType": "address",
          "name": "",
          "type": "address"
        },
        {
          "internalType": "string",
          "name": "",
          "type": "string"
        },
        {
          "internalType": "uint256",
          "name": "",
          "type": "uint256"
        }
      ],
      "name": "deletedContentHashes",
      "outputs": [
        {
          "internalType": "string",
          "name": "",
          "type": "string"
        }
      ],
      "stateMutability": "view",
      "type": "function",
      "constant": true
    },
    {
      "inputs": [
        {
          "internalType": "address",
          "name": "",
          "type": "address"
        }
      ],
      "name": "hasSetRecoveryAddress",
      "outputs": [
        {
          "internalType": "bool",
          "name": "",
          "type": "bool"
        }
      ],
      "stateMutability": "view",
      "type": "function",
      "constant": true
    },
    {
      "inputs": [
        {
          "internalType": "address",
          "name": "",
          "type": "address"
        }
      ],
      "name": "recoveryAddresses",
      "outputs": [
        {
          "internalType": "address",
          "name": "",
          "type": "address"
        }
      ],
      "stateMutability": "view",
      "type": "function",
      "constant": true
    },
    {
      "inputs": [
        {
          "internalType": "address",
          "name": "",
          "type": "address"
        },
        {
          "internalType": "uint256",
          "name": "",
          "type": "uint256"
        }
      ],
      "name": "userDeletionHistory",
      "outputs": [
        {
          "internalType": "string",
          "name": "username",
          "type": "string"
        },
        {
          "internalType": "uint256",
          "name": "timestamp",
          "type": "uint256"
        },
        {
          "internalType": "bool",
          "name": "canRecover",
          "type": "bool"
        }
      ],
      "stateMutability": "view",
      "type": "function",
      "constant": true
    },
    {
      "inputs": [
        {
          "internalType": "address",
          "name": "_recoveryAddress",
          "type": "address"
        }
      ],
      "name": "setRecoveryAddress",
      "outputs": [],
      "stateMutability": "nonpayable",
      "type": "function"
    },
    {
      "inputs": [
        {
          "internalType": "address",
          "name": "_newRecoveryAddress",
          "type": "address"
        }
      ],
      "name": "updateRecoveryAddress",
      "outputs": [],
      "stateMutability": "nonpayable",
      "type": "function"
    },
    {
      "inputs": [],
      "name": "removeRecoveryAddress",
      "outputs": [],
      "stateMutability": "nonpayable",
      "type": "function"
    },
    {
      "inputs": [
        {
          "internalType": "string",
          "name": "_username",
          "type": "string"
        },
        {
          "internalType": "bool",
          "name": "_allowRecovery",
          "type": "bool"
        }
      ],
      "name": "enhancedResetUser",
      "outputs": [],
      "stateMutability": "nonpayable",
      "type": "function"
    },
    {
      "inputs": [
        {
          "internalType": "string",
          "name": "_username",
          "type": "string"
        }
      ],
      "name": "recoverDeletedAccount",
      "outputs": [],
      "stateMutability": "nonpayable",
      "type": "function"
    },
    {
      "inputs": [
        {
          "internalType": "address",
          "name": "_userToRecover",
          "type": "address"
        },
        {
          "internalType": "string",
          "name": "_username",
          "type": "string"
        }
      ],
      "name": "recoverAccountByTrustedParty",
      "outputs": [],
      "stateMutability": "nonpayable",
      "type": "function"
    },
    {
      "inputs": [
        {
          "internalType": "string",
          "name": "_dataType",
          "type": "string"
        },
        {
          "internalType": "bool",
          "name": "_allowed",
          "type": "bool"
        }
      ],
      "name": "setDataExportPermission",
      "outputs": [],
      "stateMutability": "nonpayable",
      "type": "function"
    },
    {
      "inputs": [
        {
          "internalType": "address",
          "name": "_user",
          "type": "address"
        },
        {
          "internalType": "string",
          "name": "_dataType",
          "type": "string"
        }
      ],
      "name": "isExportAllowed",
      "outputs": [
        {
          "internalType": "bool",
          "name": "",
          "type": "bool"
        }
      ],
      "stateMutability": "view",
      "type": "function",
      "constant": true
    },
    {
      "inputs": [
        {
          "internalType": "string",
          "name": "_contentType",
          "type": "string"
        },
        {
          "internalType": "string",
          "name": "_contentHash",
          "type": "string"
        }
      ],
      "name": "trackContentDeletion",
      "outputs": [],
      "stateMutability": "nonpayable",
      "type": "function"
    },
    {
      "inputs": [
        {
          "internalType": "string",
          "name": "_contentType",
          "type": "string"
        }
      ],
      "name": "getDeletedContentByType",
      "outputs": [
        {
          "internalType": "string[]",
          "name": "",
          "type": "string[]"
        }
      ],
      "stateMutability": "view",
      "type": "function",
      "constant": true
    },
    {
      "inputs": [
        {
          "internalType": "string",
          "name": "_username",
          "type": "string"
        },
        {
          "internalType": "string",
          "name": "_ipfsHash",
          "type": "string"
        }
      ],
      "name": "register",
      "outputs": [],
      "stateMutability": "nonpayable",
      "type": "function"
    },
    {
      "inputs": [
        {
          "internalType": "string",
          "name": "_username",
          "type": "string"
        }
      ],
      "name": "login",
      "outputs": [
        {
          "internalType": "string",
          "name": "",
          "type": "string"
        }
      ],
      "stateMutability": "view",
      "type": "function",
      "constant": true
    },
    {
      "inputs": [
        {
          "internalType": "string",
          "name": "_username",
          "type": "string"
        },
        {
          "internalType": "string",
          "name": "_newIpfsHash",
          "type": "string"
        }
      ],
      "name": "updateUser",
      "outputs": [],
      "stateMutability": "nonpayable",
      "type": "function"
    },
    {
      "inputs": [
        {
          "internalType": "string",
          "name": "_username",
          "type": "string"
        }
      ],
      "name": "getAddressByUsername",
      "outputs": [
        {
          "internalType": "address",
          "name": "",
          "type": "address"
        }
      ],
      "stateMutability": "view",
      "type": "function",
      "constant": true
    },
    {
      "inputs": [],
      "name": "getAllUsernames",
      "outputs": [
        {
          "internalType": "string[]",
          "name": "",
          "type": "string[]"
        }
      ],
      "stateMutability": "view",
      "type": "function",
      "constant": true
    },
    {
      "inputs": [
        {
          "internalType": "address",
          "name": "_userAddress",
          "type": "address"
        }
      ],
      "name": "getUsernames",
      "outputs": [
        {
          "internalType": "string[]",
          "name": "",
          "type": "string[]"
        }
      ],
      "stateMutability": "view",
      "type": "function",
      "constant": true
    },
    {
      "inputs": [
        {
          "internalType": "string",
          "name": "_username",
          "type": "string"
        }
      ],
      "name": "isUsernameAvailable",
      "outputs": [
        {
          "internalType": "bool",
          "name": "",
          "type": "bool"
        }
      ],
      "stateMutability": "view",
      "type": "function",
      "constant": true
    },
    {
      "inputs": [
        {
          "internalType": "address",
          "name": "_to",
          "type": "address"
        },
        {
          "internalType": "string",
          "name": "_content",
          "type": "string"
        }
      ],
      "name": "sendMessage",
      "outputs": [],
      "stateMutability": "nonpayable",
      "type": "function"
    },
    {
      "inputs": [],
      "name": "getUnreadMessageCount",
      "outputs": [
        {
          "internalType": "uint256",
          "name": "",
          "type": "uint256"
        }
      ],
      "stateMutability": "view",
      "type": "function",
      "constant": true
    },
    {
      "inputs": [],
      "name": "getMyMessages",
      "outputs": [
        {
          "components": [
            {
              "internalType": "uint256",
              "name": "id",
              "type": "uint256"
            },
            {
              "internalType": "address",
              "name": "sender",
              "type": "address"
            },
            {
              "internalType": "address",
              "name": "recipient",
              "type": "address"
            },
            {
              "internalType": "string",
              "name": "content",
              "type": "string"
            },
            {
              "internalType": "uint256",
              "name": "timestamp",
              "type": "uint256"
            },
            {
              "internalType": "bool",
              "name": "isRead",
              "type": "bool"
            }
          ],
          "internalType": "struct UserAuth.Message[]",
          "name": "",
          "type": "tuple[]"
        }
      ],
      "stateMutability": "view",
      "type": "function",
      "constant": true
    },
    {
      "inputs": [
        {
          "internalType": "uint256",
          "name": "_messageId",
          "type": "uint256"
        }
      ],
      "name": "markMessageAsRead",
      "outputs": [],
      "stateMutability": "nonpayable",
      "type": "function"
    },
    {
      "inputs": [
        {
          "internalType": "address",
          "name": "_otherUser",
          "type": "address"
        }
      ],
      "name": "getMessagesWith",
      "outputs": [
        {
          "components": [
            {
              "internalType": "uint256",
              "name": "id",
              "type": "uint256"
            },
            {
              "internalType": "address",
              "name": "sender",
              "type": "address"
            },
            {
              "internalType": "address",
              "name": "recipient",
              "type": "address"
            },
            {
              "internalType": "string",
              "name": "content",
              "type": "string"
            },
            {
              "internalType": "uint256",
              "name": "timestamp",
              "type": "uint256"
            },
            {
              "internalType": "bool",
              "name": "isRead",
              "type": "bool"
            }
          ],
          "internalType": "struct UserAuth.Message[]",
          "name": "",
          "type": "tuple[]"
        }
      ],
      "stateMutability": "view",
      "type": "function",
      "constant": true
    },
    {
      "inputs": [
        {
          "internalType": "address",
          "name": "_userAddress",
          "type": "address"
        }
      ],
      "name": "getUserHashes",
      "outputs": [
        {
          "internalType": "string[]",
          "name": "",
          "type": "string[]"
        }
      ],
      "stateMutability": "view",
      "type": "function",
      "constant": true
    },
    {
      "inputs": [],
      "name": "getAllUserHashes",
      "outputs": [
        {
          "internalType": "string[]",
          "name": "",
          "type": "string[]"
        }
      ],
      "stateMutability": "view",
      "type": "function",
      "constant": true
    }
  ],
  "bytecode": "0x608060405234801561001057600080fd5b50613063806100206000396000f3fe608060405234801561001057600080fd5b50600436106101ec576000357c010000000000000000000000000000000000000000000000000000000090048063610137d711610121578063b179bc34116100bf578063de6f24bb1161008e578063de6f24bb14610462578063e92abaf514610475578063f26c6dea14610488578063f69c6dec1461049b57600080fd5b8063b179bc341461040b578063c1f1012714610429578063d18c3c6c1461043c578063dd4a24251461044f57600080fd5b806380a4b461116100fb57806380a4b461146103ba57806381fb6f8b146103cd57806386c2fd03146103f0578063a251e6c31461040357600080fd5b8063610137d71461038157806362fd5d69146103945780636322961d146103a757600080fd5b806349efe5ae1161018e5780635362037511610168578063536203751461033e5780635424ad3b1461034657806354546a77146103595780635e7339ce1461036c57600080fd5b806349efe5ae146102f65780634ae9115d1461030957806351c8f0181461032b57600080fd5b80633a7d280c116101ca5780633a7d280c1461026f5780633ffbd47f1461028f57806343f90310146102a257806346cde53f146102b557600080fd5b8063117e282f146101f1578063138aae3c1461024557806337aeff1114610265575b600080fd5b6102306101ff366004612772565b6009602090815260009283526040909220815180830184018051928152908401929093019190912091525460ff1681565b60405190151581526020015b60405180910390f35b6102586102533660046127c0565b6104ae565b60405161023c9190612832565b61026d61059d565b005b61028261027d366004612893565b610668565b60405161023c91906128d0565b61026d61029d3660046128e3565b6107ef565b6102826102b036600461293d565b610b22565b6102de6102c33660046127c0565b600a60205260009081526040902054600160a060020a031681565b604051600160a060020a03909116815260200161023c565b61026d6103043660046127c0565b610bf7565b61031c610317366004612994565b610cf3565b60405161023c939291906129be565b61026d6103393660046129e8565b610dc6565b610258610e45565b61026d610354366004612772565b610f1e565b61026d610367366004612893565b611113565b61037461123c565b60405161023c9190612a3f565b61026d61038f3660046128e3565b61137e565b6103746103a23660046127c0565b611403565b6102de6103b5366004612893565b611743565b61026d6103c83660046127c0565b6117e6565b6102306103db3660046127c0565b600b6020526000908152604090205460ff1681565b6102586103fe3660046127c0565b611956565b610258611a3a565b3360009081526006602052604090205460405190815260200161023c565b61026d610437366004612aed565b611cc7565b61025861044a366004612893565b611def565b61026d61045d3660046128e3565b611eeb565b61026d610470366004612772565b612020565b61026d6104833660046129e8565b612286565b610230610496366004612772565b6125ec565b6102306104a9366004612893565b61262e565b600160a060020a0381166000908152600160209081526040808320805482518185028101850190935280835260609492939192909184015b8282101561059257838290600052602060002001805461050590612b06565b80601f016020809104026020016040519081016040528092919081815260200182805461053190612b06565b801561057e5780601f106105535761010080835404028352916020019161057e565b820191906000526020600020905b81548152906001019060200180831161056157829003601f168201915b5050505050815260200190600101906104e6565b505050509050919050565b336000908152600b602052604090205460ff166106045760405160e560020a62461bcd02815260206004820152601760248201527f4e6f207265636f7665727920616464726573732073657400000000000000000060448201526064015b60405180910390fd5b336000818152600a60209081526040808320805473ffffffffffffffffffffffffffffffffffffffff19169055600b909152808220805460ff19169055517f250546491931526473f4670f0964714a4f7272548fa2040f447d653f5cffbbb79190a2565b336000908152600460205260409081902090516060919061068a908490612b43565b9081526040519081900360200190206002015460ff74010000000000000000000000000000000000000000909104166106d85760405160e560020a62461bcd0281526004016105fb90612b5f565b336000818152600460205260409081902090516106f6908590612b43565b90815260405190819003602001902060020154600160a060020a0316146107325760405160e560020a62461bcd0281526004016105fb90612b96565b33600090815260046020526040908190209051610750908490612b43565b908152604051908190036020019020805461076a90612b06565b80601f016020809104026020016040519081016040528092919081815260200182805461079690612b06565b80156107e35780601f106107b8576101008083540402835291602001916107e3565b820191906000526020600020905b8154815290600101906020018083116107c657829003601f168201915b50505050509050919050565b60008251116108435760405160e560020a62461bcd02815260206004820152601860248201527f557365726e616d652063616e6e6f7420626520656d707479000000000000000060448201526064016105fb565b60008151116108975760405160e560020a62461bcd02815260206004820152601960248201527f4950465320686173682063616e6e6f7420626520656d7074790000000000000060448201526064016105fb565b6002826040516108a79190612b43565b9081526040519081900360200190205460ff161561090a5760405160e560020a62461bcd02815260206004820152601760248201527f557365726e616d6520616c72656164792065786973747300000000000000000060448201526064016105fb565b3360008360405161091b9190612b43565b9081526040519081900360200190208054600160a060020a039290921673ffffffffffffffffffffffffffffffffffffffff19909216919091179055600380546001810182556000919091527fc2575a0e9e593c00f959f8c92f12db2869c3395a3b0502d05e2516446f71f85b016109938382612c1b565b503360009081526001602081815260408320805492830181558352909120016109bc8382612c1b565b5060016002836040516109cf9190612b43565b9081526040805160209281900383019020805460ff191693151593909317909255336000908152600882529182208054600181018255908352912001610a158282612c1b565b506040805160808101825282815260208082018590523382840181905260016060840152600090815260049091528290209151909190610a56908590612b43565b90815260405190819003602001902081518190610a739082612c1b565b5060208201516001820190610a889082612c1b565b50604082810151600290920180546060909401511515740100000000000000000000000000000000000000000274ffffffffffffffffffffffffffffffffffffffffff19909416600160a060020a0390931692909217929092179055517f7d18b42f8b54b38db3858d85addd4845b244c7ab57e5b3246475b88815c0c5cf90610b1690849084903390612ce1565b60405180910390a15050565b600d6020908152600084815260409020835180850183018051928152908301928501929092209152805482908110610b5957600080fd5b9060005260206000200160009250925050508054610b7690612b06565b80601f0160208091040260200160405190810160405280929190818152602001828054610ba290612b06565b8015610bef5780601f10610bc457610100808354040283529160200191610bef565b820191906000526020600020905b815481529060010190602001808311610bd257829003601f168201915b505050505081565b600160a060020a038116610c505760405160e560020a62461bcd02815260206004820152601860248201527f496e76616c6964207265636f766572792061646472657373000000000000000060448201526064016105fb565b33600160a060020a03821603610c7b5760405160e560020a62461bcd0281526004016105fb90612d20565b336000818152600a60209081526040808320805473ffffffffffffffffffffffffffffffffffffffff1916600160a060020a038716908117909155600b909252808320805460ff19166001179055519092917fe2e82f7331b2182b7fda48768de4f8fd938e0e5a8ee5f14279257343c8e1bc8e91a350565b600c6020528160005260406000208181548110610d0f57600080fd5b906000526020600020906003020160009150915050806000018054610d3390612b06565b80601f0160208091040260200160405190810160405280929190818152602001828054610d5f90612b06565b8015610dac5780601f10610d8157610100808354040283529160200191610dac565b820191906000526020600020905b815481529060010190602001808311610d8f57829003601f168201915b50505050600183015460029093015491929160ff16905083565b33600090815260096020526040908190209051829190610de7908590612b43565b908152604051908190036020018120805492151560ff199093169290921790915533907fb00049628fde7754573ee851299b953267657aca4b56244d381b50741685a93d90610e399085908590612d7d565b60405180910390a25050565b60606003805480602002602001604051908101604052809291908181526020016000905b82821015610f15578382906000526020600020018054610e8890612b06565b80601f0160208091040260200160405190810160405280929190818152602001828054610eb490612b06565b8015610f015780601f10610ed657610100808354040283529160200191610f01565b820191906000526020600020905b815481529060010190602001808311610ee457829003601f168201915b505050505081526020019060010190610e69565b50505050905090565b600160a060020a038281166000908152600a6020526040902054163314610fb05760405160e560020a62461bcd02815260206004820152602260248201527f4e6f7420617574686f72697a6564206173207265636f7665727920616464726560448201527f737300000000000000000000000000000000000000000000000000000000000060648201526084016105fb565b6000805b600160a060020a0384166000908152600c60205260409020548110156110a2578280519060200120600c600086600160a060020a0316600160a060020a03168152602001908152602001600020828154811061101257611012612da1565b90600052602060002090600302016000016040516110309190612e2d565b60405180910390201480156110825750600160a060020a0384166000908152600c6020526040902080548290811061106a5761106a612da1565b600091825260209091206002600390920201015460ff165b1561109057600191506110a2565b8061109a81612e52565b915050610fb4565b50806110c35760405160e560020a62461bcd0281526004016105fb90612e6b565b33600160a060020a031683600160a060020a03167fb8def6df8f373397281882060693df32b2bf82b72d0799ec9e35739a725c7e878460405161110691906128d0565b60405180910390a3505050565b6000805b336000908152600c60205260409020548110156111e2578251602080850191909120336000908152600c909252604090912080548390811061115b5761115b612da1565b90600052602060002090600302016000016040516111799190612e2d565b60405180910390201480156111c25750336000908152600c602052604090208054829081106111aa576111aa612da1565b600091825260209091206002600390920201015460ff165b156111d057600191506111e2565b806111da81612e52565b915050611117565b50806112035760405160e560020a62461bcd0281526004016105fb90612e6b565b33600160a060020a03167f6497e777885bb7c16b6aea631380594d2e827496066af3eccb3656e7b2d5e52c83604051610e3991906128d0565b336000908152600560209081526040808320805482518185028101850190935280835260609492939192909184015b82821015610f155760008481526020908190206040805160c08101825260068602909201805483526001810154600160a060020a03908116948401949094526002810154909316908201526003820180549192916060840191906112ce90612b06565b80601f01602080910402602001604051908101604052809291908181526020018280546112fa90612b06565b80156113475780601f1061131c57610100808354040283529160200191611347565b820191906000526020600020905b81548152906001019060200180831161132a57829003601f168201915b5050509183525050600482015460208083019190915260059092015460ff161515604090910152908252600192909201910161126b565b336000908152600d602052604090819020905161139c908490612b43565b9081526040516020918190038201902080546001810182556000918252919020016113c78282612c1b565b5033600160a060020a03167f8bf523fac779cc768c920b58e46dec910df9a2d5810cd47b17c836f0e5eb77208383604051610e39929190612ec8565b336000908152600560209081526040808320805482518185028101850190935280835260609493849084015b828210156115425760008481526020908190206040805160c08101825260068602909201805483526001810154600160a060020a039081169484019490945260028101549093169082015260038201805491929160608401919061149290612b06565b80601f01602080910402602001604051908101604052809291908181526020018280546114be90612b06565b801561150b5780601f106114e05761010080835404028352916020019161150b565b820191906000526020600020905b8154815290600101906020018083116114ee57829003601f168201915b5050509183525050600482015460208083019190915260059092015460ff161515604090910152908252600192909201910161142f565b5050505090506000805b82518110156115e55784600160a060020a031683828151811061157157611571612da1565b602002602001015160200151600160a060020a031614806115c0575084600160a060020a03168382815181106115a9576115a9612da1565b602002602001015160400151600160a060020a0316145b156115d357816115cf81612e52565b9250505b806115dd81612e52565b91505061154c565b5060008167ffffffffffffffff811115611601576116016126cc565b60405190808252806020026020018201604052801561166057816020015b6040805160c081018252600080825260208083018290529282018190526060808301526080820181905260a0820152825260001990920191018161161f5790505b5090506000805b84518110156117385786600160a060020a031685828151811061168c5761168c612da1565b602002602001015160200151600160a060020a031614806116db575086600160a060020a03168582815181106116c4576116c4612da1565b602002602001015160400151600160a060020a0316145b15611726578481815181106116f2576116f2612da1565b602002602001015183838151811061170c5761170c612da1565b6020026020010181905250818061172290612e52565b9250505b8061173081612e52565b915050611667565b509095945050505050565b60006002826040516117559190612b43565b9081526040519081900360200190205460ff166117b75760405160e560020a62461bcd02815260206004820152601760248201527f557365726e616d6520646f6573206e6f7420657869737400000000000000000060448201526064016105fb565b6000826040516117c79190612b43565b90815260405190819003602001902054600160a060020a031692915050565b336000908152600b602052604090205460ff1661186e5760405160e560020a62461bcd02815260206004820152602260248201527f4e6f207265636f7665727920616464726573732070726576696f75736c79207360448201527f657400000000000000000000000000000000000000000000000000000000000060648201526084016105fb565b600160a060020a0381166118c75760405160e560020a62461bcd02815260206004820152601860248201527f496e76616c6964207265636f766572792061646472657373000000000000000060448201526064016105fb565b33600160a060020a038216036118f25760405160e560020a62461bcd0281526004016105fb90612d20565b336000818152600a6020526040808220805473ffffffffffffffffffffffffffffffffffffffff1916600160a060020a03861690811790915590519092917f184a649b6ce5186087e0a99b53f247181d516649f7d60e3de2b537271250b39591a350565b600160a060020a0381166000908152600860209081526040808320805482518185028101850190935280835260609492939192909184015b828210156105925783829060005260206000200180546119ad90612b06565b80601f01602080910402602001604051908101604052809291908181526020018280546119d990612b06565b8015611a265780601f106119fb57610100808354040283529160200191611a26565b820191906000526020600020905b815481529060010190602001808311611a0957829003601f168201915b50505050508152602001906001019061198e565b60606000805b600354811015611ac25760008060038381548110611a6057611a60612da1565b90600052602060002001604051611a779190612e2d565b908152604080516020928190038301902054600160a060020a031660008181526008909352912054909150611aac9084612ef6565b9250508080611aba90612e52565b915050611a40565b5060008167ffffffffffffffff811115611ade57611ade6126cc565b604051908082528060200260200182016040528015611b1157816020015b6060815260200190600190039081611afc5790505b5090506000805b600354811015611cbe5760008060038381548110611b3857611b38612da1565b90600052602060002001604051611b4f9190612e2d565b90815260408051918290036020908101832054600160a060020a031660008181526008835283812080548085028701850190955284865291955093929091849084015b82821015611c3e578382906000526020600020018054611bb190612b06565b80601f0160208091040260200160405190810160405280929190818152602001828054611bdd90612b06565b8015611c2a5780601f10611bff57610100808354040283529160200191611c2a565b820191906000526020600020905b815481529060010190602001808311611c0d57829003601f168201915b505050505081526020019060010190611b92565b50505050905060005b8151811015611ca857818181518110611c6257611c62612da1565b6020026020010151868681518110611c7c57611c7c612da1565b60200260200101819052508480611c9290612e52565b9550508080611ca090612e52565b915050611c47565b5050508080611cb690612e52565b915050611b18565b50909392505050565b336000908152600560205260408120905b8154811015611dea5782828281548110611cf457611cf4612da1565b906000526020600020906006020160000154148015611d395750818181548110611d2057611d20612da1565b600091825260209091206005600690920201015460ff16155b15611dd8576001828281548110611d5257611d52612da1565b60009182526020808320600692830201600501805460ff191694151594909417909355338252909152604090205415611da657336000908152600660205260408120805491611da083612f09565b91905055505b604051339084907f0e717203d5558319840e69b0f2050a456ab8ee5ef0fa53dc522de9e70d1b1ba290600090a3505050565b80611de281612e52565b915050611cd8565b505050565b336000908152600d602052604090819020905160609190611e11908490612b43565b9081526020016040518091039020805480602002602001604051908101604052809291908181526020016000905b82821015610592578382906000526020600020018054611e5e90612b06565b80601f0160208091040260200160405190810160405280929190818152602001828054611e8a90612b06565b8015611ed75780601f10611eac57610100808354040283529160200191611ed7565b820191906000526020600020905b815481529060010190602001808311611eba57829003601f168201915b505050505081526020019060010190611e3f565b33600090815260046020526040908190209051611f09908490612b43565b9081526040519081900360200190206002015460ff7401000000000000000000000000000000000000000090910416611f575760405160e560020a62461bcd0281526004016105fb90612b5f565b33600081815260046020526040908190209051611f75908590612b43565b90815260405190819003602001902060020154600160a060020a031614611fb15760405160e560020a62461bcd0281526004016105fb90612b96565b33600090815260046020526040908190209051829190611fd2908590612b43565b90815260405190819003602001902090611fec9082612c1b565b507f7719b353fdd197fac056b5d3061c6c14d75612521170bf1b0de2ec84cf9332ca828233604051610b1693929190612ce1565b600160a060020a0382166120795760405160e560020a62461bcd02815260206004820152601960248201527f496e76616c696420726563697069656e7420616464726573730000000000000060448201526064016105fb565b60008151116120cd5760405160e560020a62461bcd02815260206004820152601760248201527f4d6573736167652063616e6e6f7420626520656d70747900000000000000000060448201526064016105fb565b33600160a060020a038316036121285760405160e560020a62461bcd02815260206004820152601f60248201527f43616e6e6f742073656e64206d65737361676520746f20796f757273656c660060448201526064016105fb565b6007805490600061213883612e52565b90915550506040805160c0810182526007548152336020808301918252600160a060020a0386811684860181815260608601888152426080880152600060a08801819052928352600585529682208054600180820183559184529490922086516006909502019384559351908301805473ffffffffffffffffffffffffffffffffffffffff19908116928416929092179055925160028301805490941691161790915591519091829160038201906121f09082612c1b565b506080820151600482015560a0909101516005909101805460ff1916911515919091179055600160a060020a038316600090815260066020526040812080549161223983612e52565b9091555050600754604051428152600160a060020a0385169133917f048fe7fb7f676173adbf5a90abbccd6ac9039b2daa74c81dfa961668b5b9305b9060200160405180910390a4505050565b336000908152600460205260409081902090516122a4908490612b43565b9081526040519081900360200190206002015460ff74010000000000000000000000000000000000000000909104166122f25760405160e560020a62461bcd0281526004016105fb90612b5f565b33600081815260046020526040908190209051612310908590612b43565b90815260405190819003602001902060020154600160a060020a03161461234c5760405160e560020a62461bcd0281526004016105fb90612b96565b604080516060810182528381524260208083019190915283151582840152336000908152600c825292832080546001810182559084529220815191928392600390910290910190819061239f9082612c1b565b50602082015160018201556040909101516002909101805460ff1916911515919091179055816125a45760006002846040516123db9190612b43565b9081526040805160209281900383018120805460ff1916941515949094179093553360009081526004909252902090612415908590612b43565b9081526040519081900360200190206000612430828261265a565b61243e60018301600061265a565b50600201805474ffffffffffffffffffffffffffffffffffffffffff1916905560005b336000908152600160205260409020548110156125a2578351602080860191909120336000908152600190925260409091208054839081106124a5576124a5612da1565b906000526020600020016040516124bc9190612e2d565b60405180910390200361259057336000908152600160208190526040909120805490916124e891612f20565b815481106124f8576124f8612da1565b906000526020600020016001600033600160a060020a0316600160a060020a03168152602001908152602001600020828154811061253857612538612da1565b90600052602060002001908161254e9190612f33565b5033600090815260016020526040902080548061256d5761256d613014565b600190038181906000526020600020016000612589919061265a565b90556125a2565b8061259a81612e52565b915050612461565b505b33600160a060020a03167f259be52e4d66bfd0267c3d2762a49cff1b6d98bcedd14f36a61ff158c8de64da84846040516125df929190612d7d565b60405180910390a2505050565b600160a060020a0382166000908152600960205260408082209051612612908490612b43565b9081526040519081900360200190205460ff1690505b92915050565b60006002826040516126409190612b43565b9081526040519081900360200190205460ff161592915050565b50805461266690612b06565b6000825580601f10612676575050565b601f0160209004906000526020600020908101906126949190612697565b50565b5b808211156126ac5760008155600101612698565b5090565b8035600160a060020a03811681146126c757600080fd5b919050565b60e060020a634e487b7102600052604160045260246000fd5b600082601f8301126126f657600080fd5b813567ffffffffffffffff80821115612711576127116126cc565b604051601f8301601f19908116603f01168101908282118183101715612739576127396126cc565b8160405283815286602085880101111561275257600080fd5b836020870160208301376000602085830101528094505050505092915050565b6000806040838503121561278557600080fd5b61278e836126b0565b9150602083013567ffffffffffffffff8111156127aa57600080fd5b6127b6858286016126e5565b9150509250929050565b6000602082840312156127d257600080fd5b6127db826126b0565b9392505050565b60005b838110156127fd5781810151838201526020016127e5565b50506000910152565b6000815180845261281e8160208601602086016127e2565b601f01601f19169290920160200192915050565b600060208083018184528085518083526040860191506040848202870101925083870160005b8281101561288657603f19888603018452612874858351612806565b94509285019290850190600101612858565b5092979650505050505050565b6000602082840312156128a557600080fd5b813567ffffffffffffffff8111156128bc57600080fd5b6128c8848285016126e5565b949350505050565b6020815260006127db6020830184612806565b600080604083850312156128f657600080fd5b823567ffffffffffffffff8082111561290e57600080fd5b61291a868387016126e5565b9350602085013591508082111561293057600080fd5b506127b6858286016126e5565b60008060006060848603121561295257600080fd5b61295b846126b0565b9250602084013567ffffffffffffffff81111561297757600080fd5b612983868287016126e5565b925050604084013590509250925092565b600080604083850312156129a757600080fd5b6129b0836126b0565b946020939093013593505050565b6060815260006129d16060830186612806565b602083019490945250901515604090910152919050565b600080604083850312156129fb57600080fd5b823567ffffffffffffffff811115612a1257600080fd5b612a1e858286016126e5565b92505060208301358015158114612a3457600080fd5b809150509250929050565b60208082528251828201819052600091906040908185019080840286018301878501865b83811015612adf57888303603f1901855281518051845287810151600160a060020a039081168986015287820151168785015260608082015160c08287018190529190612ab283880182612806565b6080858101519089015260a094850151151594909701939093525050509386019390860190600101612a63565b509098975050505050505050565b600060208284031215612aff57600080fd5b5035919050565b600281046001821680612b1a57607f821691505b602082108103612b3d5760e060020a634e487b7102600052602260045260246000fd5b50919050565b60008251612b558184602087016127e2565b9190910192915050565b60208082526013908201527f55736572206e6f74207265676973746572656400000000000000000000000000604082015260600190565b60208082526013908201527f556e617574686f72697a65642061636365737300000000000000000000000000604082015260600190565b601f821115611dea576000818152602081206020601f86010481016020861015612bf45750805b6020601f860104820191505b81811015612c1357828155600101612c00565b505050505050565b815167ffffffffffffffff811115612c3557612c356126cc565b612c4981612c438454612b06565b84612bcd565b602080601f831160018114612c825760008415612c665750858301515b60028086026008870290910a6000190419821617865550612c13565b600085815260208120601f198616915b82811015612cb157888601518255948401946001909101908401612c92565b5085821015612cd157878501516008601f88160260020a60001904191681555b5050505050600202600101905550565b606081526000612cf46060830186612806565b8281036020840152612d068186612806565b915050600160a060020a0383166040830152949350505050565b6020808252602b908201527f5265636f7665727920616464726573732063616e6e6f7420626520796f75722060408201527f6f776e2061646472657373000000000000000000000000000000000000000000606082015260800190565b604081526000612d906040830185612806565b905082151560208301529392505050565b60e060020a634e487b7102600052603260045260246000fd5b60008154612dc781612b06565b60018281168015612ddf5760018114612df457612e23565b60ff1984168752821515830287019450612e23565b8560005260208060002060005b85811015612e1a5781548a820152908401908201612e01565b50505082870194505b5050505092915050565b60006127db8284612dba565b60e060020a634e487b7102600052601160045260246000fd5b600060018201612e6457612e64612e39565b5060010190565b6020808252602c908201527f4163636f756e74207265636f76657279206e6f7420617661696c61626c65206660408201527f6f72207468697320757365720000000000000000000000000000000000000000606082015260800190565b604081526000612edb6040830185612806565b8281036020840152612eed8185612806565b95945050505050565b8082018082111561262857612628612e39565b600081612f1857612f18612e39565b506000190190565b8181038181111561262857612628612e39565b818103612f3e575050565b612f488254612b06565b67ffffffffffffffff811115612f6057612f606126cc565b612f6e81612c438454612b06565b6000601f821160018114612fa65760008315612f8a5750848201545b60028085026008860290910a600019041982161785555061300d565b600085815260209020601f19841690600086815260209020845b83811015612fe05782860154825560019586019590910190602001612fc0565b508583101561300057818501546008601f88160260020a60001904191681555b5050506001600284020184555b5050505050565b60e060020a634e487b7102600052603160045260246000fdfea2646970667358221220f279afa386f63c4fc9d8157e47acb4b6229948c01828168875677133e5041da464736f6c63430008150033",
  "immutableReferences": {},
  "source": "// SPDX-License-Identifier: MIT\npragma solidity ^0.8.0;\n\ncontract UserAuth {\n    // Structure to store user information\n    struct User {\n        string ipfsHash;      // IPFS hash for storing user data\n        string username;      // Username for the user\n        address userAddress;  // Ethereum address of the user\n        bool isRegistered;    // Flag to check if user exists\n    }\n\n    // New Message structure\n    struct Message {\n        uint256 id;\n        address sender;\n        address recipient;\n        string content;\n        uint256 timestamp;\n        bool isRead;\n    }\n\n    // Modified mappings\n    mapping(string => address) private usernameToAddress;  // Map username to address\n    mapping(address => string[]) private usernames;        // Map address to usernames\n    mapping(string => bool) private usernameExists;        // Track if username exists\n    string[] private allUsernames;                         // Array to track all usernames\n\n    // State variables\n    mapping(address => mapping(string => User)) private users;    // Map address and username to user data\n\n    // New mappings for messages\n    mapping(address => Message[]) private userMessages;\n    mapping(address => uint256) private unreadMessageCount;\n    uint256 private messageIdCounter;\n\n    // New mapping for IPFS hashes\n    mapping(address => string[]) private userIpfsHashes;\n\n    // Data ownership enhancement - selective data export tracking\n    mapping(address => mapping(string => bool)) public dataExportPermissions;\n    \n    // Data ownership enhancement - recovery keys\n    mapping(address => address) public recoveryAddresses;\n    mapping(address => bool) public hasSetRecoveryAddress;\n    \n    // Data ownership enhancement - data deletion log\n    struct DataDeletionRecord {\n        string username;\n        uint256 timestamp;\n        bool canRecover;\n    }\n    mapping(address => DataDeletionRecord[]) public userDeletionHistory;\n    \n    // Data ownership enhancement - selective content deletion tracking\n    mapping(address => mapping(string => string[])) public deletedContentHashes;\n\n    // Events\n    event UserRegistered(string username, string ipfsHash, address userAddress);\n    event UserUpdated(string username, string newIpfsHash, address userAddress);\n    event UserReset(string username, address userAddress);\n\n    // New events for messages\n    event MessageSent(\n        uint256 indexed messageId,\n        address indexed from,\n        address indexed to,\n        uint256 timestamp\n    );\n    event MessageRead(uint256 indexed messageId, address indexed by);\n\n    // Add recovery address for account recovery\n    function setRecoveryAddress(address _recoveryAddress) public {\n        require(_recoveryAddress != address(0), \"Invalid recovery address\");\n        require(_recoveryAddress != msg.sender, \"Recovery address cannot be your own address\");\n        \n        recoveryAddresses[msg.sender] = _recoveryAddress;\n        hasSetRecoveryAddress[msg.sender] = true;\n        \n        emit RecoveryAddressSet(msg.sender, _recoveryAddress);\n    }\n    \n    // Update recovery address\n    function updateRecoveryAddress(address _newRecoveryAddress) public {\n        require(hasSetRecoveryAddress[msg.sender], \"No recovery address previously set\");\n        require(_newRecoveryAddress != address(0), \"Invalid recovery address\");\n        require(_newRecoveryAddress != msg.sender, \"Recovery address cannot be your own address\");\n        \n        recoveryAddresses[msg.sender] = _newRecoveryAddress;\n        \n        emit RecoveryAddressUpdated(msg.sender, _newRecoveryAddress);\n    }\n    \n    // Remove recovery address\n    function removeRecoveryAddress() public {\n        require(hasSetRecoveryAddress[msg.sender], \"No recovery address set\");\n        \n        delete recoveryAddresses[msg.sender];\n        hasSetRecoveryAddress[msg.sender] = false;\n        \n        emit RecoveryAddressRemoved(msg.sender);\n    }\n    \n    // Enhanced account deletion with recovery option\n    function enhancedResetUser(string memory _username, bool _allowRecovery) public {\n        // Ensure the user is already registered\n        require(users[msg.sender][_username].isRegistered, \"User not registered\");\n        require(users[msg.sender][_username].userAddress == msg.sender, \"Unauthorized access\");\n\n        // Store deletion record before deleting\n        DataDeletionRecord memory record = DataDeletionRecord({\n            username: _username,\n            timestamp: block.timestamp,\n            canRecover: _allowRecovery\n        });\n        \n        userDeletionHistory[msg.sender].push(record);\n\n        if (!_allowRecovery) {\n            // Permanent deletion - same as original resetUser\n            // Remove username from global tracking\n            usernameExists[_username] = false;\n    \n            // Remove user data\n            delete users[msg.sender][_username];\n    \n            // Remove username from user's list\n            for(uint i = 0; i < usernames[msg.sender].length; i++) {\n                if(keccak256(bytes(usernames[msg.sender][i])) == keccak256(bytes(_username))) {\n                    // Replace with last element and pop\n                    usernames[msg.sender][i] = usernames[msg.sender][usernames[msg.sender].length - 1];\n                    usernames[msg.sender].pop();\n                    break;\n                }\n            }\n        }\n        \n        // Emit enhanced reset event\n        emit EnhancedUserReset(_username, msg.sender, _allowRecovery);\n    }\n    \n    // Recover deleted account (if recovery was allowed)\n    function recoverDeletedAccount(string memory _username) public {\n        bool canRecover = false;\n        \n        // Check deletion history to see if recovery is possible\n        for (uint i = 0; i < userDeletionHistory[msg.sender].length; i++) {\n            if (keccak256(bytes(userDeletionHistory[msg.sender][i].username)) == keccak256(bytes(_username)) &&\n                userDeletionHistory[msg.sender][i].canRecover) {\n                canRecover = true;\n                break;\n            }\n        }\n        \n        require(canRecover, \"Account recovery not available for this user\");\n        \n        // Event for account recovery request\n        emit AccountRecoveryRequested(msg.sender, _username);\n    }\n    \n    // Allow recovery by recovery address\n    function recoverAccountByTrustedParty(address _userToRecover, string memory _username) public {\n        require(recoveryAddresses[_userToRecover] == msg.sender, \"Not authorized as recovery address\");\n        \n        bool canRecover = false;\n        \n        // Check deletion history\n        for (uint i = 0; i < userDeletionHistory[_userToRecover].length; i++) {\n            if (keccak256(bytes(userDeletionHistory[_userToRecover][i].username)) == keccak256(bytes(_username)) &&\n                userDeletionHistory[_userToRecover][i].canRecover) {\n                canRecover = true;\n                break;\n            }\n        }\n        \n        require(canRecover, \"Account recovery not available for this user\");\n        \n        // Event for recovery by trusted party\n        emit AccountRecoveredByTrustedParty(_userToRecover, msg.sender, _username);\n    }\n    \n    // Set data export permission for specific data type\n    function setDataExportPermission(string memory _dataType, bool _allowed) public {\n        dataExportPermissions[msg.sender][_dataType] = _allowed;\n        emit DataExportPermissionUpdated(msg.sender, _dataType, _allowed);\n    }\n    \n    // Check if data export is allowed for a specific type\n    function isExportAllowed(address _user, string memory _dataType) public view returns (bool) {\n        return dataExportPermissions[_user][_dataType];\n    }\n    \n    // Track deletion of specific content (like a post)\n    function trackContentDeletion(string memory _contentType, string memory _contentHash) public {\n        deletedContentHashes[msg.sender][_contentType].push(_contentHash);\n        emit ContentDeleted(msg.sender, _contentType, _contentHash);\n    }\n    \n    // Get deleted content hashes by type\n    function getDeletedContentByType(string memory _contentType) public view returns (string[] memory) {\n        return deletedContentHashes[msg.sender][_contentType];\n    }\n    \n    // Event declarations for data ownership features\n    event RecoveryAddressSet(address indexed user, address indexed recoveryAddress);\n    event RecoveryAddressUpdated(address indexed user, address indexed newRecoveryAddress);\n    event RecoveryAddressRemoved(address indexed user);\n    event EnhancedUserReset(string username, address indexed userAddress, bool recoverable);\n    event AccountRecoveryRequested(address indexed user, string username);\n    event AccountRecoveredByTrustedParty(address indexed user, address indexed recoveryAddress, string username);\n    event DataExportPermissionUpdated(address indexed user, string dataType, bool allowed);\n    event ContentDeleted(address indexed user, string contentType, string contentHash);\n\n    // Register a new user\n    function register(string memory _username, string memory _ipfsHash) public {\n        // Check if the username is empty\n        require(bytes(_username).length > 0, \"Username cannot be empty\");\n        require(bytes(_ipfsHash).length > 0, \"IPFS hash cannot be empty\");\n        \n        // Ensure the username is unique globally\n        require(!usernameExists[_username], \"Username already exists\");\n        \n        // Store username to address mapping\n        usernameToAddress[_username] = msg.sender;\n        \n        // Add username to global list\n        allUsernames.push(_username);\n        \n        // Add to user's usernames\n        usernames[msg.sender].push(_username);\n        \n        // Mark username as taken\n        usernameExists[_username] = true;\n\n        // Store the IPFS hash\n        userIpfsHashes[msg.sender].push(_ipfsHash);\n\n        // Create new user\n        users[msg.sender][_username] = User({\n            ipfsHash: _ipfsHash,\n            username: _username,\n            userAddress: msg.sender,\n            isRegistered: true\n        });\n\n        // Emit registration event\n        emit UserRegistered(_username, _ipfsHash, msg.sender);\n    }\n\n    // Login function - Returns IPFS hash for a registered user\n    function login(string memory _username) public view returns (string memory) {\n        // Ensure the user is registered\n        require(users[msg.sender][_username].isRegistered, \"User not registered\");\n        require(users[msg.sender][_username].userAddress == msg.sender, \"Unauthorized access\");\n        \n        // Return the IPFS hash\n        return users[msg.sender][_username].ipfsHash;\n    }\n\n    // Update user data\n    function updateUser(string memory _username, string memory _newIpfsHash) public {\n        // Ensure the user exists and is the owner\n        require(users[msg.sender][_username].isRegistered, \"User not registered\");\n        require(users[msg.sender][_username].userAddress == msg.sender, \"Unauthorized access\");\n        \n        // Update the IPFS hash\n        users[msg.sender][_username].ipfsHash = _newIpfsHash;\n        \n        // Emit update event\n        emit UserUpdated(_username, _newIpfsHash, msg.sender);\n    }\n\n    // Get address for a username\n    function getAddressByUsername(string memory _username) public view returns (address) {\n        require(usernameExists[_username], \"Username does not exist\");\n        return usernameToAddress[_username];\n    }\n\n    // Get all registered usernames\n    function getAllUsernames() public view returns (string[] memory) {\n        return allUsernames;\n    }\n\n    // Get all usernames for an address\n    function getUsernames(address _userAddress) public view returns (string[] memory) {\n        return usernames[_userAddress];\n    }\n\n    // Check if a username exists\n    function isUsernameAvailable(string memory _username) public view returns (bool) {\n        return !usernameExists[_username];\n    }\n\n    // New function to send a message\n    function sendMessage(address _to, string memory _content) public {\n        require(_to != address(0), \"Invalid recipient address\");\n        require(bytes(_content).length > 0, \"Message cannot be empty\");\n        require(_to != msg.sender, \"Cannot send message to yourself\");\n\n        messageIdCounter++;\n        \n        Message memory newMessage = Message({\n            id: messageIdCounter,\n            sender: msg.sender,\n            recipient: _to,\n            content: _content,\n            timestamp: block.timestamp,\n            isRead: false\n        });\n\n        userMessages[_to].push(newMessage);\n        unreadMessageCount[_to]++;\n\n        emit MessageSent(messageIdCounter, msg.sender, _to, block.timestamp);\n    }\n\n    // Get unread message count\n    function getUnreadMessageCount() public view returns (uint256) {\n        return unreadMessageCount[msg.sender];\n    }\n\n    // Get all messages for the caller\n    function getMyMessages() public view returns (Message[] memory) {\n        return userMessages[msg.sender];\n    }\n\n    // Mark a message as read\n    function markMessageAsRead(uint256 _messageId) public {\n        Message[] storage messages = userMessages[msg.sender];\n        \n        for (uint i = 0; i < messages.length; i++) {\n            if (messages[i].id == _messageId && !messages[i].isRead) {\n                messages[i].isRead = true;\n                if (unreadMessageCount[msg.sender] > 0) {\n                    unreadMessageCount[msg.sender]--;\n                }\n                emit MessageRead(_messageId, msg.sender);\n                break;\n            }\n        }\n    }\n\n    // Get messages between current user and another user\n    function getMessagesWith(address _otherUser) public view returns (Message[] memory) {\n        Message[] memory allMessages = userMessages[msg.sender];\n        uint256 relevantCount = 0;\n\n        // Count relevant messages\n        for (uint i = 0; i < allMessages.length; i++) {\n            if (allMessages[i].sender == _otherUser || allMessages[i].recipient == _otherUser) {\n                relevantCount++;\n            }\n        }\n\n        // Create array of relevant messages\n        Message[] memory relevantMessages = new Message[](relevantCount);\n        uint256 currentIndex = 0;\n\n        for (uint i = 0; i < allMessages.length; i++) {\n            if (allMessages[i].sender == _otherUser || allMessages[i].recipient == _otherUser) {\n                relevantMessages[currentIndex] = allMessages[i];\n                currentIndex++;\n            }\n        }\n\n        return relevantMessages;\n    }\n\n    // Add this function to get user's IPFS hashes\n    function getUserHashes(address _userAddress) public view returns (string[] memory) {\n        return userIpfsHashes[_userAddress];\n    }\n\n    // Add this function to get all users' IPFS hashes\n    function getAllUserHashes() public view returns (string[] memory) {\n        uint256 totalHashes = 0;\n        \n        // Count total hashes\n        for(uint i = 0; i < allUsernames.length; i++) {\n            address userAddr = usernameToAddress[allUsernames[i]];\n            totalHashes += userIpfsHashes[userAddr].length;\n        }\n        \n        // Create array for all hashes\n        string[] memory allHashes = new string[](totalHashes);\n        uint256 currentIndex = 0;\n        \n        // Collect all hashes\n        for(uint i = 0; i < allUsernames.length; i++) {\n            address userAddr = usernameToAddress[allUsernames[i]];\n            string[] memory userHashes = userIpfsHashes[userAddr];\n            \n            for(uint j = 0; j < userHashes.length; j++) {\n                allHashes[currentIndex] = userHashes[j];\n                currentIndex++;\n            }\n        }\n        \n        return allHashes;\n    }\n}\n",
  "sourcePath": "/Users/syedroshanalishah/Desktop/Blockchain_new/Blockchain_app_FYP/contracts/UserAuth.sol",
  "compiler": {
    "name": "solc",
    "version": "0.8.21+commit.d9974bed.Emscripten.clang"
  },
  "schemaVersion": "3.4.16",
  "updatedAt": "2025-05-01T05:50:14.355Z",
  "networkType": "ethereum",
  "devdoc": {
    "kind": "dev",
    "methods": {},
    "version": 1
  },
  "userdoc": {
    "kind": "user",
    "methods": {},
    "version": 1
  }
}