{
  "contractName": "UserAuth",
  "abi": [
    {
      "anonymous": false,
      "inputs": [
        {
          "indexed": false,
          "internalType": "string",
          "name": "ipfsHash",
          "type": "string"
        },
        {
          "indexed": false,
          "internalType": "address",
          "name": "userAddress",
          "type": "address"
        }
      ],
      "name": "UserRegistered",
      "type": "event"
    },
    {
      "anonymous": false,
      "inputs": [
        {
          "indexed": false,
          "internalType": "address",
          "name": "userAddress",
          "type": "address"
        }
      ],
      "name": "UserReset",
      "type": "event"
    },
    {
      "inputs": [
        {
          "internalType": "string",
          "name": "_ipfsHash",
          "type": "string"
        },
        {
          "internalType": "string",
          "name": "_email",
          "type": "string"
        },
        {
          "internalType": "string",
          "name": "_password",
          "type": "string"
        }
      ],
      "name": "register",
      "outputs": [],
      "stateMutability": "nonpayable",
      "type": "function"
    },
    {
      "inputs": [
        {
          "internalType": "string",
          "name": "_email",
          "type": "string"
        },
        {
          "internalType": "string",
          "name": "_password",
          "type": "string"
        }
      ],
      "name": "login",
      "outputs": [
        {
          "internalType": "string",
          "name": "",
          "type": "string"
        }
      ],
      "stateMutability": "view",
      "type": "function"
    },
    {
      "inputs": [],
      "name": "resetUser",
      "outputs": [],
      "stateMutability": "nonpayable",
      "type": "function"
    }
  ],
  "bytecode": "0x608060405234801561001057600080fd5b50610bba806100206000396000f3fe608060405234801561001057600080fd5b506004361061005d577c010000000000000000000000000000000000000000000000000000000060003504631980b22e81146100625780634cd08d031461006c57806358467dbc1461007f575b600080fd5b61006a6100a8565b005b61006a61007a3660046107fc565b6101fb565b61009261008d366004610884565b6104b9565b60405161009f9190610938565b60405180910390f35b33600090815260208190526040812080546100c290610952565b9050116101195760405160e560020a62461bcd02815260206004820152601460248201527f55736572206e6f7420726567697374657265642e00000000000000000000000060448201526064015b60405180910390fd5b336000908152602081815260408083206002810154915191939261013d92016109a5565b60408051601f198184030181529181528151602092830120600085815260018452828120805460ff199081169091558282526002855283822080549091169055338152928390529082209092509061019582826106ea565b5060018101805473ffffffffffffffffffffffffffffffffffffffff191690556000600282018190556003909101556040513381527fa84a765ff0b34a8011d2cf523c71c7cc26b88417c652ec9b3bad84220ef8f7779060200160405180910390a15050565b336000908152602081905260409020805461021590610952565b1590506102675760405160e560020a62461bcd02815260206004820152601860248201527f5573657220616c726561647920726567697374657265642e00000000000000006044820152606401610110565b60008260405160200161027a9190610a1b565b6040516020818303038152906040528051906020012090506000826040516020016102a59190610a1b565b60408051601f1981840301815291815281516020928301206000858152600190935291205490915060ff16156103205760405160e560020a62461bcd02815260206004820152601960248201527f456d61696c20616c726561647920726567697374657265642e000000000000006044820152606401610110565b6000856040516020016103339190610a1b565b60408051601f1981840301815291815281516020928301206000818152600290935291205490915060ff16156103ae5760405160e560020a62461bcd02815260206004820152601860248201527f557365726e616d6520616c7265616479206578697374732e00000000000000006044820152606401610110565b6040805160808101825287815233602080830182905282840187905260608301869052600091825281905291909120815181906103eb9082610a86565b506020828101516001838101805473ffffffffffffffffffffffffffffffffffffffff191673ffffffffffffffffffffffffffffffffffffffff909316929092179091556040808501516002808601919091556060909501516003909401939093556000878152818352838120805460ff1990811684179091558682529490925290829020805490931617909155517f7f605d0ff47d2a070e456b69ce2a36041788910b64443c7f4c6d307993cade2c906104a99088903390610b4c565b60405180910390a1505050505050565b336000908152602081905260408120805460609291906104d890610952565b90501161052a5760405160e560020a62461bcd02815260206004820152601460248201527f55736572206e6f7420726567697374657265642e0000000000000000000000006044820152606401610110565b60008360405160200161053d9190610a1b565b6040516020818303038152906040528051906020012090506000836040516020016105689190610a1b565b60408051601f1981840301815291815281516020928301203360009081529283905291206002015490915082146105e45760405160e560020a62461bcd02815260206004820152600e60248201527f496e76616c696420656d61696c2e0000000000000000000000000000000000006044820152606401610110565b3360009081526020819052604090206003015481146106485760405160e560020a62461bcd02815260206004820152601160248201527f496e76616c69642070617373776f72642e0000000000000000000000000000006044820152606401610110565b336000908152602081905260409020805461066290610952565b80601f016020809104026020016040519081016040528092919081815260200182805461068e90610952565b80156106db5780601f106106b0576101008083540402835291602001916106db565b820191906000526020600020905b8154815290600101906020018083116106be57829003601f168201915b50505050509250505092915050565b5080546106f690610952565b6000825580601f10610706575050565b601f0160209004906000526020600020908101906107249190610727565b50565b5b8082111561073c5760008155600101610728565b5090565b7f4e487b7100000000000000000000000000000000000000000000000000000000600052604160045260246000fd5b600082601f83011261078057600080fd5b813567ffffffffffffffff8082111561079b5761079b610740565b604051601f8301601f19908116603f011681019082821181831017156107c3576107c3610740565b816040528381528660208588010111156107dc57600080fd5b836020870160208301376000602085830101528094505050505092915050565b60008060006060848603121561081157600080fd5b833567ffffffffffffffff8082111561082957600080fd5b6108358783880161076f565b9450602086013591508082111561084b57600080fd5b6108578783880161076f565b9350604086013591508082111561086d57600080fd5b5061087a8682870161076f565b9150509250925092565b6000806040838503121561089757600080fd5b823567ffffffffffffffff808211156108af57600080fd5b6108bb8683870161076f565b935060208501359150808211156108d157600080fd5b506108de8582860161076f565b9150509250929050565b60005b838110156109035781810151838201526020016108eb565b50506000910152565b600081518084526109248160208601602086016108e8565b601f01601f19169290920160200192915050565b60208152600061094b602083018461090c565b9392505050565b60028104600182168061096657607f821691505b60208210810361099f577f4e487b7100000000000000000000000000000000000000000000000000000000600052602260045260246000fd5b50919050565b60008083546109b381610952565b600182811680156109cb57600181146109e057610a0f565b60ff1984168752821515830287019450610a0f565b8760005260208060002060005b85811015610a065781548a8201529084019082016109ed565b50505082870194505b50929695505050505050565b60008251610a2d8184602087016108e8565b9190910192915050565b601f821115610a81576000818152602081206020601f86010481016020861015610a5e5750805b6020601f860104820191505b81811015610a7d57828155600101610a6a565b5050505b505050565b815167ffffffffffffffff811115610aa057610aa0610740565b610ab481610aae8454610952565b84610a37565b602080601f831160018114610aed5760008415610ad15750858301515b60028086026008870290910a6000190419821617865550610a7d565b600085815260208120601f198616915b82811015610b1c57888601518255948401946001909101908401610afd565b5085821015610b3c57878501516008601f88160260020a60001904191681555b5050505050600202600101905550565b604081526000610b5f604083018561090c565b905073ffffffffffffffffffffffffffffffffffffffff83166020830152939250505056fea264697066735822122084ed2711e146d106f2c59974841eb13531ecac438be250b1809d7e134c10fa7364736f6c63430008150033",
  "immutableReferences": {},
  "source": "// SPDX-License-Identifier: MIT\npragma solidity ^0.8.0;\n\ncontract UserAuth {\n    // Structure to store user information\n    struct User {\n        string ipfsHash;      // IPFS hash for storing user data\n        address userAddress;  // Ethereum address of the user\n        bytes32 emailHash;    // Hashed email for validation\n        bytes32 passwordHash; // Hashed password for validation\n    }\n\n    // State variables\n    mapping(address => User) private users;                 // Map address to user data\n    mapping(bytes32 => bool) private emailExists;           // Track if email exists\n    mapping(bytes32 => bool) private usernameExists;        // Track if username exists\n\n    // Events\n    event UserRegistered(string ipfsHash, address userAddress);\n    event UserReset(address userAddress);\n\n    // Register a new user\n    function register(string memory _ipfsHash, string memory _email, string memory _password) public {\n        // Check if the user is already registered\n        require(bytes(users[msg.sender].ipfsHash).length == 0, \"User already registered.\");\n        \n        // Hash the email and password\n        bytes32 emailHash = keccak256(abi.encodePacked(_email));\n        bytes32 passwordHash = keccak256(abi.encodePacked(_password));\n        \n        // Ensure the email is unique\n        require(!emailExists[emailHash], \"Email already registered.\");\n        \n        // Ensure the username (IPFS hash) is unique\n        bytes32 usernameHash = keccak256(abi.encodePacked(_ipfsHash));\n        require(!usernameExists[usernameHash], \"Username already exists.\");\n\n        // Store the user data\n        users[msg.sender] = User(_ipfsHash, msg.sender, emailHash, passwordHash);\n        emailExists[emailHash] = true;\n        usernameExists[usernameHash] = true;\n\n        // Emit registration event\n        emit UserRegistered(_ipfsHash, msg.sender);\n    }\n\n    // Login function - Verify email and password\n    function login(string memory _email, string memory _password) public view returns (string memory) {\n        // Ensure the user is registered\n        require(bytes(users[msg.sender].ipfsHash).length > 0, \"User not registered.\");\n        \n        // Validate email and password\n        bytes32 emailHash = keccak256(abi.encodePacked(_email));\n        bytes32 passwordHash = keccak256(abi.encodePacked(_password));\n\n        require(users[msg.sender].emailHash == emailHash, \"Invalid email.\");\n        require(users[msg.sender].passwordHash == passwordHash, \"Invalid password.\");\n\n        // Return the IPFS hash\n        return users[msg.sender].ipfsHash;\n    }\n\n    // Reset user registration (FOR DEVELOPMENT/TESTING PURPOSE ONLY)\n    function resetUser() public {\n        // Ensure the user is already registered\n        require(bytes(users[msg.sender].ipfsHash).length > 0, \"User not registered.\");\n\n        // Delete user data and mappings\n        bytes32 emailHash = users[msg.sender].emailHash;\n        bytes32 usernameHash = keccak256(abi.encodePacked(users[msg.sender].ipfsHash));\n        \n        delete emailExists[emailHash];\n        delete usernameExists[usernameHash];\n        delete users[msg.sender];\n\n        // Emit reset event\n        emit UserReset(msg.sender);\n    }\n}\n",
  "sourcePath": "/Users/syedroshanalishah/Documents/FYP/Blockchain_app/contracts/UserAuth.sol",
  "compiler": {
    "name": "solc",
    "version": "0.8.21+commit.d9974bed.Emscripten.clang"
  },
  "schemaVersion": "3.4.16",
  "updatedAt": "2025-01-16T06:06:39.181Z",
  "devdoc": {
    "kind": "dev",
    "methods": {},
    "version": 1
  },
  "userdoc": {
    "kind": "user",
    "methods": {},
    "version": 1
  }
}