{
  "contractName": "UserAuth",
  "abi": [
    {
      "anonymous": false,
      "inputs": [
        {
          "indexed": false,
          "internalType": "string",
          "name": "username",
          "type": "string"
        },
        {
          "indexed": false,
          "internalType": "string",
          "name": "ipfsHash",
          "type": "string"
        },
        {
          "indexed": false,
          "internalType": "address",
          "name": "userAddress",
          "type": "address"
        }
      ],
      "name": "UserRegistered",
      "type": "event"
    },
    {
      "anonymous": false,
      "inputs": [
        {
          "indexed": false,
          "internalType": "string",
          "name": "username",
          "type": "string"
        },
        {
          "indexed": false,
          "internalType": "address",
          "name": "userAddress",
          "type": "address"
        }
      ],
      "name": "UserReset",
      "type": "event"
    },
    {
      "anonymous": false,
      "inputs": [
        {
          "indexed": false,
          "internalType": "string",
          "name": "username",
          "type": "string"
        },
        {
          "indexed": false,
          "internalType": "string",
          "name": "newIpfsHash",
          "type": "string"
        },
        {
          "indexed": false,
          "internalType": "address",
          "name": "userAddress",
          "type": "address"
        }
      ],
      "name": "UserUpdated",
      "type": "event"
    },
    {
      "inputs": [
        {
          "internalType": "string",
          "name": "_username",
          "type": "string"
        },
        {
          "internalType": "string",
          "name": "_ipfsHash",
          "type": "string"
        }
      ],
      "name": "register",
      "outputs": [],
      "stateMutability": "nonpayable",
      "type": "function"
    },
    {
      "inputs": [
        {
          "internalType": "string",
          "name": "_username",
          "type": "string"
        }
      ],
      "name": "login",
      "outputs": [
        {
          "internalType": "string",
          "name": "",
          "type": "string"
        }
      ],
      "stateMutability": "view",
      "type": "function",
      "constant": true
    },
    {
      "inputs": [
        {
          "internalType": "string",
          "name": "_username",
          "type": "string"
        },
        {
          "internalType": "string",
          "name": "_newIpfsHash",
          "type": "string"
        }
      ],
      "name": "updateUser",
      "outputs": [],
      "stateMutability": "nonpayable",
      "type": "function"
    },
    {
      "inputs": [
        {
          "internalType": "address",
          "name": "_userAddress",
          "type": "address"
        }
      ],
      "name": "getUsernames",
      "outputs": [
        {
          "internalType": "string[]",
          "name": "",
          "type": "string[]"
        }
      ],
      "stateMutability": "view",
      "type": "function",
      "constant": true
    },
    {
      "inputs": [
        {
          "internalType": "string",
          "name": "_username",
          "type": "string"
        }
      ],
      "name": "isUsernameAvailable",
      "outputs": [
        {
          "internalType": "bool",
          "name": "",
          "type": "bool"
        }
      ],
      "stateMutability": "view",
      "type": "function",
      "constant": true
    },
    {
      "inputs": [
        {
          "internalType": "string",
          "name": "_username",
          "type": "string"
        }
      ],
      "name": "resetUser",
      "outputs": [],
      "stateMutability": "nonpayable",
      "type": "function"
    }
  ],
  "bytecode": "0x608060405234801561001057600080fd5b50611143806100206000396000f3fe608060405234801561001057600080fd5b506004361061007e577c01000000000000000000000000000000000000000000000000000000006000350463138aae3c81146100835780633a7d280c146100ac5780633ffbd47f146100cc5780636a7d30f4146100e1578063dd4a2425146100f4578063f69c6dec14610107575b600080fd5b610096610091366004610ab8565b61012a565b6040516100a39190610b38565b60405180910390f35b6100bf6100ba366004610c3f565b610219565b6040516100a39190610c7c565b6100df6100da366004610c8f565b6103a9565b005b6100df6100ef366004610c3f565b610628565b6100df610102366004610c8f565b610901565b61011a610115366004610c3f565b610a36565b60405190151581526020016100a3565b600160a060020a0381166000908152600260209081526040808320805482518185028101850190935280835260609492939192909184015b8282101561020e57838290600052602060002001805461018190610cf3565b80601f01602080910402602001604051908101604052809291908181526020018280546101ad90610cf3565b80156101fa5780601f106101cf576101008083540402835291602001916101fa565b820191906000526020600020905b8154815290600101906020018083116101dd57829003601f168201915b505050505081526020019060010190610162565b505050509050919050565b336000908152602081905260409081902090516060919061023b908490610d30565b9081526040519081900360200190206002015460ff74010000000000000000000000000000000000000000909104166102925760405160e560020a62461bcd02815260040161028990610d4c565b60405180910390fd5b336000818152602081905260409081902090516102b0908590610d30565b90815260405190819003602001902060020154600160a060020a0316146102ec5760405160e560020a62461bcd02815260040161028990610d83565b3360009081526020819052604090819020905161030a908490610d30565b908152604051908190036020019020805461032490610cf3565b80601f016020809104026020016040519081016040528092919081815260200182805461035090610cf3565b801561039d5780601f106103725761010080835404028352916020019161039d565b820191906000526020600020905b81548152906001019060200180831161038057829003601f168201915b50505050509050919050565b60008251116103fd5760405160e560020a62461bcd02815260206004820152601860248201527f557365726e616d652063616e6e6f7420626520656d70747900000000000000006044820152606401610289565b60008151116104515760405160e560020a62461bcd02815260206004820152601960248201527f4950465320686173682063616e6e6f7420626520656d707479000000000000006044820152606401610289565b6001826040516104619190610d30565b9081526040519081900360200190205460ff16156104c45760405160e560020a62461bcd02815260206004820152601760248201527f557365726e616d6520616c7265616479206578697374730000000000000000006044820152606401610289565b60408051608081018252828152602080820185905233828401819052600160608401526000908152908190528290209151909190610503908590610d30565b908152604051908190036020019020815181906105209082610e09565b50602082015160018201906105359082610e09565b50604082810151600290920180546060909401511515740100000000000000000000000000000000000000000274ffffffffffffffffffffffffffffffffffffffffff19909416600160a060020a03909316929092179290921790555160019081906105a2908590610d30565b9081526040805160209281900383019020805460ff1916931515939093179092553360009081526002825291822080546001810182559083529120016105e88382610e09565b507f7d18b42f8b54b38db3858d85addd4845b244c7ab57e5b3246475b88815c0c5cf82823360405161061c93929190610ecf565b60405180910390a15050565b33600090815260208190526040908190209051610646908390610d30565b9081526040519081900360200190206002015460ff74010000000000000000000000000000000000000000909104166106945760405160e560020a62461bcd02815260040161028990610d4c565b336000818152602081905260409081902090516106b2908490610d30565b90815260405190819003602001902060020154600160a060020a0316146106ee5760405160e560020a62461bcd02815260040161028990610d83565b60006001826040516107009190610d30565b9081526040805160209281900383018120805460ff19169415159490941790935533600090815291829052902090610739908390610d30565b90815260405190819003602001902060006107548282610a62565b610762600183016000610a62565b50600201805474ffffffffffffffffffffffffffffffffffffffffff1916905560005b336000908152600260205260409020548110156108c4578151602080840191909120336000908152600290925260409091208054839081106107c9576107c9610f0e565b906000526020600020016040516107e09190610f27565b6040518091039020036108b257336000908152600260205260409020805461080a90600190610fb6565b8154811061081a5761081a610f0e565b906000526020600020016002600033600160a060020a0316600160a060020a03168152602001908152602001600020828154811061085a5761085a610f0e565b9060005260206000200190816108709190610fcf565b5033600090815260026020526040902080548061088f5761088f6110b0565b6001900381819060005260206000200160006108ab9190610a62565b90556108c4565b806108bc816110c9565b915050610785565b507f4887b75ee74c9b6425c46aa421d870ac3cb2c0a2237bef7776828a0d7a15f4f981336040516108f69291906110e2565b60405180910390a150565b3360009081526020819052604090819020905161091f908490610d30565b9081526040519081900360200190206002015460ff740100000000000000000000000000000000000000009091041661096d5760405160e560020a62461bcd02815260040161028990610d4c565b3360008181526020819052604090819020905161098b908590610d30565b90815260405190819003602001902060020154600160a060020a0316146109c75760405160e560020a62461bcd02815260040161028990610d83565b336000908152602081905260409081902090518291906109e8908590610d30565b90815260405190819003602001902090610a029082610e09565b507f7719b353fdd197fac056b5d3061c6c14d75612521170bf1b0de2ec84cf9332ca82823360405161061c93929190610ecf565b6000600182604051610a489190610d30565b9081526040519081900360200190205460ff161592915050565b508054610a6e90610cf3565b6000825580601f10610a7e575050565b601f016020900490600052602060002090810190610a9c9190610a9f565b50565b5b80821115610ab45760008155600101610aa0565b5090565b600060208284031215610aca57600080fd5b8135600160a060020a0381168114610ae157600080fd5b9392505050565b60005b83811015610b03578181015183820152602001610aeb565b50506000910152565b60008151808452610b24816020860160208601610ae8565b601f01601f19169290920160200192915050565b600060208083018184528085518083526040860191506040848202870101925083870160005b82811015610b8c57603f19888603018452610b7a858351610b0c565b94509285019290850190600101610b5e565b5092979650505050505050565b60e060020a634e487b7102600052604160045260246000fd5b600082601f830112610bc357600080fd5b813567ffffffffffffffff80821115610bde57610bde610b99565b604051601f8301601f19908116603f01168101908282118183101715610c0657610c06610b99565b81604052838152866020858801011115610c1f57600080fd5b836020870160208301376000602085830101528094505050505092915050565b600060208284031215610c5157600080fd5b813567ffffffffffffffff811115610c6857600080fd5b610c7484828501610bb2565b949350505050565b602081526000610ae16020830184610b0c565b60008060408385031215610ca257600080fd5b823567ffffffffffffffff80821115610cba57600080fd5b610cc686838701610bb2565b93506020850135915080821115610cdc57600080fd5b50610ce985828601610bb2565b9150509250929050565b600281046001821680610d0757607f821691505b602082108103610d2a5760e060020a634e487b7102600052602260045260246000fd5b50919050565b60008251610d42818460208701610ae8565b9190910192915050565b60208082526013908201527f55736572206e6f74207265676973746572656400000000000000000000000000604082015260600190565b60208082526013908201527f556e617574686f72697a65642061636365737300000000000000000000000000604082015260600190565b601f821115610e04576000818152602081206020601f86010481016020861015610de15750805b6020601f860104820191505b81811015610e0057828155600101610ded565b5050505b505050565b815167ffffffffffffffff811115610e2357610e23610b99565b610e3781610e318454610cf3565b84610dba565b602080601f831160018114610e705760008415610e545750858301515b60028086026008870290910a6000190419821617865550610e00565b600085815260208120601f198616915b82811015610e9f57888601518255948401946001909101908401610e80565b5085821015610ebf57878501516008601f88160260020a60001904191681555b5050505050600202600101905550565b606081526000610ee26060830186610b0c565b8281036020840152610ef48186610b0c565b915050600160a060020a0383166040830152949350505050565b60e060020a634e487b7102600052603260045260246000fd5b6000808354610f3581610cf3565b60018281168015610f4d5760018114610f6257610f91565b60ff1984168752821515830287019450610f91565b8760005260208060002060005b85811015610f885781548a820152908401908201610f6f565b50505082870194505b50929695505050505050565b60e060020a634e487b7102600052601160045260246000fd5b81810381811115610fc957610fc9610f9d565b92915050565b818103610fda575050565b610fe48254610cf3565b67ffffffffffffffff811115610ffc57610ffc610b99565b61100a81610e318454610cf3565b6000601f82116001811461104257600083156110265750848201545b60028085026008860290910a60001904198216178555506110a9565b600085815260209020601f19841690600086815260209020845b8381101561107c578286015482556001958601959091019060200161105c565b508583101561109c57818501546008601f88160260020a60001904191681555b5050506001600284020184555b5050505050565b60e060020a634e487b7102600052603160045260246000fd5b6000600182016110db576110db610f9d565b5060010190565b6040815260006110f56040830185610b0c565b9050600160a060020a0383166020830152939250505056fea2646970667358221220fb08e6c560453203593cbed7f38d70a357e76994bb65351d7d136f75db0476c764736f6c63430008150033",
  "immutableReferences": {},
  "source": "// SPDX-License-Identifier: MIT\npragma solidity ^0.8.0;\n\ncontract UserAuth {\n    // Structure to store user information\n    struct User {\n        string ipfsHash;      // IPFS hash for storing user data\n        string username;      // Username for the user\n        address userAddress;  // Ethereum address of the user\n        bool isRegistered;    // Flag to check if user exists\n    }\n\n    // State variables\n    mapping(address => mapping(string => User)) private users;    // Map address and username to user data\n    mapping(string => bool) private usernameExists;              // Track if username exists globally\n    mapping(address => string[]) private usernames;              // Track usernames for each address\n\n    // Events\n    event UserRegistered(string username, string ipfsHash, address userAddress);\n    event UserUpdated(string username, string newIpfsHash, address userAddress);\n    event UserReset(string username, address userAddress);\n\n    // Register a new user\n    function register(string memory _username, string memory _ipfsHash) public {\n        // Check if the username is empty\n        require(bytes(_username).length > 0, \"Username cannot be empty\");\n        require(bytes(_ipfsHash).length > 0, \"IPFS hash cannot be empty\");\n        \n        // Ensure the username is unique globally\n        require(!usernameExists[_username], \"Username already exists\");\n        \n        // Create new user\n        users[msg.sender][_username] = User({\n            ipfsHash: _ipfsHash,\n            username: _username,\n            userAddress: msg.sender,\n            isRegistered: true\n        });\n\n        // Mark username as taken and add to user's username list\n        usernameExists[_username] = true;\n        usernames[msg.sender].push(_username);\n\n        // Emit registration event\n        emit UserRegistered(_username, _ipfsHash, msg.sender);\n    }\n\n    // Login function - Returns IPFS hash for a registered user\n    function login(string memory _username) public view returns (string memory) {\n        // Ensure the user is registered\n        require(users[msg.sender][_username].isRegistered, \"User not registered\");\n        require(users[msg.sender][_username].userAddress == msg.sender, \"Unauthorized access\");\n        \n        // Return the IPFS hash\n        return users[msg.sender][_username].ipfsHash;\n    }\n\n    // Update user data\n    function updateUser(string memory _username, string memory _newIpfsHash) public {\n        // Ensure the user exists and is the owner\n        require(users[msg.sender][_username].isRegistered, \"User not registered\");\n        require(users[msg.sender][_username].userAddress == msg.sender, \"Unauthorized access\");\n        \n        // Update the IPFS hash\n        users[msg.sender][_username].ipfsHash = _newIpfsHash;\n        \n        // Emit update event\n        emit UserUpdated(_username, _newIpfsHash, msg.sender);\n    }\n\n    // Get all usernames for an address\n    function getUsernames(address _userAddress) public view returns (string[] memory) {\n        return usernames[_userAddress];\n    }\n\n    // Check if a username exists\n    function isUsernameAvailable(string memory _username) public view returns (bool) {\n        return !usernameExists[_username];\n    }\n\n    // Reset user registration (FOR DEVELOPMENT/TESTING PURPOSE ONLY)\n    function resetUser(string memory _username) public {\n        // Ensure the user is already registered\n        require(users[msg.sender][_username].isRegistered, \"User not registered\");\n        require(users[msg.sender][_username].userAddress == msg.sender, \"Unauthorized access\");\n\n        // Remove username from global tracking\n        usernameExists[_username] = false;\n\n        // Remove user data\n        delete users[msg.sender][_username];\n\n        // Remove username from user's list\n        for(uint i = 0; i < usernames[msg.sender].length; i++) {\n            if(keccak256(bytes(usernames[msg.sender][i])) == keccak256(bytes(_username))) {\n                // Replace with last element and pop\n                usernames[msg.sender][i] = usernames[msg.sender][usernames[msg.sender].length - 1];\n                usernames[msg.sender].pop();\n                break;\n            }\n        }\n\n        // Emit reset event\n        emit UserReset(_username, msg.sender);\n    }\n}\n",
  "sourcePath": "/Users/syedroshanalishah/Desktop/Blockchain/Blockchain_app_FYP/contracts/UserAuth.sol",
  "compiler": {
    "name": "solc",
    "version": "0.8.21+commit.d9974bed.Emscripten.clang"
  },
  "schemaVersion": "3.4.16",
  "updatedAt": "2025-02-09T17:11:09.903Z",
  "networkType": "ethereum",
  "devdoc": {
    "kind": "dev",
    "methods": {},
    "version": 1
  },
  "userdoc": {
    "kind": "user",
    "methods": {},
    "version": 1
  }
}