{
  "contractName": "UserAuth",
  "abi": [
    {
      "anonymous": false,
      "inputs": [
        {
          "indexed": true,
          "internalType": "uint256",
          "name": "messageId",
          "type": "uint256"
        },
        {
          "indexed": true,
          "internalType": "address",
          "name": "by",
          "type": "address"
        }
      ],
      "name": "MessageRead",
      "type": "event"
    },
    {
      "anonymous": false,
      "inputs": [
        {
          "indexed": true,
          "internalType": "uint256",
          "name": "messageId",
          "type": "uint256"
        },
        {
          "indexed": true,
          "internalType": "address",
          "name": "from",
          "type": "address"
        },
        {
          "indexed": true,
          "internalType": "address",
          "name": "to",
          "type": "address"
        },
        {
          "indexed": false,
          "internalType": "uint256",
          "name": "timestamp",
          "type": "uint256"
        }
      ],
      "name": "MessageSent",
      "type": "event"
    },
    {
      "anonymous": false,
      "inputs": [
        {
          "indexed": false,
          "internalType": "string",
          "name": "username",
          "type": "string"
        },
        {
          "indexed": false,
          "internalType": "string",
          "name": "ipfsHash",
          "type": "string"
        },
        {
          "indexed": false,
          "internalType": "address",
          "name": "userAddress",
          "type": "address"
        }
      ],
      "name": "UserRegistered",
      "type": "event"
    },
    {
      "anonymous": false,
      "inputs": [
        {
          "indexed": false,
          "internalType": "string",
          "name": "username",
          "type": "string"
        },
        {
          "indexed": false,
          "internalType": "address",
          "name": "userAddress",
          "type": "address"
        }
      ],
      "name": "UserReset",
      "type": "event"
    },
    {
      "anonymous": false,
      "inputs": [
        {
          "indexed": false,
          "internalType": "string",
          "name": "username",
          "type": "string"
        },
        {
          "indexed": false,
          "internalType": "string",
          "name": "newIpfsHash",
          "type": "string"
        },
        {
          "indexed": false,
          "internalType": "address",
          "name": "userAddress",
          "type": "address"
        }
      ],
      "name": "UserUpdated",
      "type": "event"
    },
    {
      "inputs": [
        {
          "internalType": "string",
          "name": "_username",
          "type": "string"
        },
        {
          "internalType": "string",
          "name": "_ipfsHash",
          "type": "string"
        }
      ],
      "name": "register",
      "outputs": [],
      "stateMutability": "nonpayable",
      "type": "function"
    },
    {
      "inputs": [
        {
          "internalType": "string",
          "name": "_username",
          "type": "string"
        }
      ],
      "name": "login",
      "outputs": [
        {
          "internalType": "string",
          "name": "",
          "type": "string"
        }
      ],
      "stateMutability": "view",
      "type": "function",
      "constant": true
    },
    {
      "inputs": [
        {
          "internalType": "string",
          "name": "_username",
          "type": "string"
        },
        {
          "internalType": "string",
          "name": "_newIpfsHash",
          "type": "string"
        }
      ],
      "name": "updateUser",
      "outputs": [],
      "stateMutability": "nonpayable",
      "type": "function"
    },
    {
      "inputs": [
        {
          "internalType": "string",
          "name": "_username",
          "type": "string"
        }
      ],
      "name": "getAddressByUsername",
      "outputs": [
        {
          "internalType": "address",
          "name": "",
          "type": "address"
        }
      ],
      "stateMutability": "view",
      "type": "function",
      "constant": true
    },
    {
      "inputs": [],
      "name": "getAllUsernames",
      "outputs": [
        {
          "internalType": "string[]",
          "name": "",
          "type": "string[]"
        }
      ],
      "stateMutability": "view",
      "type": "function",
      "constant": true
    },
    {
      "inputs": [
        {
          "internalType": "address",
          "name": "_userAddress",
          "type": "address"
        }
      ],
      "name": "getUsernames",
      "outputs": [
        {
          "internalType": "string[]",
          "name": "",
          "type": "string[]"
        }
      ],
      "stateMutability": "view",
      "type": "function",
      "constant": true
    },
    {
      "inputs": [
        {
          "internalType": "string",
          "name": "_username",
          "type": "string"
        }
      ],
      "name": "isUsernameAvailable",
      "outputs": [
        {
          "internalType": "bool",
          "name": "",
          "type": "bool"
        }
      ],
      "stateMutability": "view",
      "type": "function",
      "constant": true
    },
    {
      "inputs": [
        {
          "internalType": "string",
          "name": "_username",
          "type": "string"
        }
      ],
      "name": "resetUser",
      "outputs": [],
      "stateMutability": "nonpayable",
      "type": "function"
    },
    {
      "inputs": [
        {
          "internalType": "address",
          "name": "_to",
          "type": "address"
        },
        {
          "internalType": "string",
          "name": "_content",
          "type": "string"
        }
      ],
      "name": "sendMessage",
      "outputs": [],
      "stateMutability": "nonpayable",
      "type": "function"
    },
    {
      "inputs": [],
      "name": "getUnreadMessageCount",
      "outputs": [
        {
          "internalType": "uint256",
          "name": "",
          "type": "uint256"
        }
      ],
      "stateMutability": "view",
      "type": "function",
      "constant": true
    },
    {
      "inputs": [],
      "name": "getMyMessages",
      "outputs": [
        {
          "components": [
            {
              "internalType": "uint256",
              "name": "id",
              "type": "uint256"
            },
            {
              "internalType": "address",
              "name": "sender",
              "type": "address"
            },
            {
              "internalType": "address",
              "name": "recipient",
              "type": "address"
            },
            {
              "internalType": "string",
              "name": "content",
              "type": "string"
            },
            {
              "internalType": "uint256",
              "name": "timestamp",
              "type": "uint256"
            },
            {
              "internalType": "bool",
              "name": "isRead",
              "type": "bool"
            }
          ],
          "internalType": "struct UserAuth.Message[]",
          "name": "",
          "type": "tuple[]"
        }
      ],
      "stateMutability": "view",
      "type": "function",
      "constant": true
    },
    {
      "inputs": [
        {
          "internalType": "uint256",
          "name": "_messageId",
          "type": "uint256"
        }
      ],
      "name": "markMessageAsRead",
      "outputs": [],
      "stateMutability": "nonpayable",
      "type": "function"
    },
    {
      "inputs": [
        {
          "internalType": "address",
          "name": "_otherUser",
          "type": "address"
        }
      ],
      "name": "getMessagesWith",
      "outputs": [
        {
          "components": [
            {
              "internalType": "uint256",
              "name": "id",
              "type": "uint256"
            },
            {
              "internalType": "address",
              "name": "sender",
              "type": "address"
            },
            {
              "internalType": "address",
              "name": "recipient",
              "type": "address"
            },
            {
              "internalType": "string",
              "name": "content",
              "type": "string"
            },
            {
              "internalType": "uint256",
              "name": "timestamp",
              "type": "uint256"
            },
            {
              "internalType": "bool",
              "name": "isRead",
              "type": "bool"
            }
          ],
          "internalType": "struct UserAuth.Message[]",
          "name": "",
          "type": "tuple[]"
        }
      ],
      "stateMutability": "view",
      "type": "function",
      "constant": true
    },
    {
      "inputs": [
        {
          "internalType": "address",
          "name": "_userAddress",
          "type": "address"
        }
      ],
      "name": "getUserHashes",
      "outputs": [
        {
          "internalType": "string[]",
          "name": "",
          "type": "string[]"
        }
      ],
      "stateMutability": "view",
      "type": "function",
      "constant": true
    },
    {
      "inputs": [],
      "name": "getAllUserHashes",
      "outputs": [
        {
          "internalType": "string[]",
          "name": "",
          "type": "string[]"
        }
      ],
      "stateMutability": "view",
      "type": "function",
      "constant": true
    }
  ],
  "bytecode": "0x608060405234801561001057600080fd5b50612190806100206000396000f3fe608060405234801561001057600080fd5b5060043610610112576000357c0100000000000000000000000000000000000000000000000000000000900480636a7d30f4116100b4578063c1f1012711610083578063c1f101271461021c578063dd4a24251461022f578063de6f24bb14610242578063f69c6dec1461025557600080fd5b80636a7d30f4146101d057806386c2fd03146101e3578063a251e6c3146101f6578063b179bc34146101fe57600080fd5b806353620375116100f057806353620375146101755780635e7339ce1461017d57806362fd5d69146101925780636322961d146101a557600080fd5b8063138aae3c146101175780633a7d280c146101405780633ffbd47f14610160575b600080fd5b61012a6101253660046119d6565b610278565b6040516101379190611a48565b60405180910390f35b61015361014e366004611b4f565b610367565b6040516101379190611b8c565b61017361016e366004611b9f565b6104f7565b005b61012a61082a565b610185610903565b6040516101379190611c03565b6101856101a03660046119d6565b610a45565b6101b86101b3366004611b4f565b610d85565b604051600160a060020a039091168152602001610137565b6101736101de366004611b4f565b610e28565b61012a6101f13660046119d6565b611104565b61012a6111e8565b33600090815260066020526040902054604051908152602001610137565b61017361022a366004611cb1565b611475565b61017361023d366004611b9f565b61159d565b610173610250366004611cca565b6116d2565b610268610263366004611b4f565b611938565b6040519015158152602001610137565b600160a060020a0381166000908152600160209081526040808320805482518185028101850190935280835260609492939192909184015b8282101561035c5783829060005260206000200180546102cf90611d0e565b80601f01602080910402602001604051908101604052809291908181526020018280546102fb90611d0e565b80156103485780601f1061031d57610100808354040283529160200191610348565b820191906000526020600020905b81548152906001019060200180831161032b57829003601f168201915b5050505050815260200190600101906102b0565b505050509050919050565b3360009081526004602052604090819020905160609190610389908490611d4b565b9081526040519081900360200190206002015460ff74010000000000000000000000000000000000000000909104166103e05760405160e560020a62461bcd0281526004016103d790611d67565b60405180910390fd5b336000818152600460205260409081902090516103fe908590611d4b565b90815260405190819003602001902060020154600160a060020a03161461043a5760405160e560020a62461bcd0281526004016103d790611d9e565b33600090815260046020526040908190209051610458908490611d4b565b908152604051908190036020019020805461047290611d0e565b80601f016020809104026020016040519081016040528092919081815260200182805461049e90611d0e565b80156104eb5780601f106104c0576101008083540402835291602001916104eb565b820191906000526020600020905b8154815290600101906020018083116104ce57829003601f168201915b50505050509050919050565b600082511161054b5760405160e560020a62461bcd02815260206004820152601860248201527f557365726e616d652063616e6e6f7420626520656d707479000000000000000060448201526064016103d7565b600081511161059f5760405160e560020a62461bcd02815260206004820152601960248201527f4950465320686173682063616e6e6f7420626520656d7074790000000000000060448201526064016103d7565b6002826040516105af9190611d4b565b9081526040519081900360200190205460ff16156106125760405160e560020a62461bcd02815260206004820152601760248201527f557365726e616d6520616c72656164792065786973747300000000000000000060448201526064016103d7565b336000836040516106239190611d4b565b9081526040519081900360200190208054600160a060020a039290921673ffffffffffffffffffffffffffffffffffffffff19909216919091179055600380546001810182556000919091527fc2575a0e9e593c00f959f8c92f12db2869c3395a3b0502d05e2516446f71f85b0161069b8382611e23565b503360009081526001602081815260408320805492830181558352909120016106c48382611e23565b5060016002836040516106d79190611d4b565b9081526040805160209281900383019020805460ff19169315159390931790925533600090815260088252918220805460018101825590835291200161071d8282611e23565b50604080516080810182528281526020808201859052338284018190526001606084015260009081526004909152829020915190919061075e908590611d4b565b9081526040519081900360200190208151819061077b9082611e23565b50602082015160018201906107909082611e23565b50604082810151600290920180546060909401511515740100000000000000000000000000000000000000000274ffffffffffffffffffffffffffffffffffffffffff19909416600160a060020a0390931692909217929092179055517f7d18b42f8b54b38db3858d85addd4845b244c7ab57e5b3246475b88815c0c5cf9061081e90849084903390611ee9565b60405180910390a15050565b60606003805480602002602001604051908101604052809291908181526020016000905b828210156108fa57838290600052602060002001805461086d90611d0e565b80601f016020809104026020016040519081016040528092919081815260200182805461089990611d0e565b80156108e65780601f106108bb576101008083540402835291602001916108e6565b820191906000526020600020905b8154815290600101906020018083116108c957829003601f168201915b50505050508152602001906001019061084e565b50505050905090565b336000908152600560209081526040808320805482518185028101850190935280835260609492939192909184015b828210156108fa5760008481526020908190206040805160c08101825260068602909201805483526001810154600160a060020a039081169484019490945260028101549093169082015260038201805491929160608401919061099590611d0e565b80601f01602080910402602001604051908101604052809291908181526020018280546109c190611d0e565b8015610a0e5780601f106109e357610100808354040283529160200191610a0e565b820191906000526020600020905b8154815290600101906020018083116109f157829003601f168201915b5050509183525050600482015460208083019190915260059092015460ff1615156040909101529082526001929092019101610932565b336000908152600560209081526040808320805482518185028101850190935280835260609493849084015b82821015610b845760008481526020908190206040805160c08101825260068602909201805483526001810154600160a060020a0390811694840194909452600281015490931690820152600382018054919291606084019190610ad490611d0e565b80601f0160208091040260200160405190810160405280929190818152602001828054610b0090611d0e565b8015610b4d5780601f10610b2257610100808354040283529160200191610b4d565b820191906000526020600020905b815481529060010190602001808311610b3057829003601f168201915b5050509183525050600482015460208083019190915260059092015460ff1615156040909101529082526001929092019101610a71565b5050505090506000805b8251811015610c275784600160a060020a0316838281518110610bb357610bb3611f28565b602002602001015160200151600160a060020a03161480610c02575084600160a060020a0316838281518110610beb57610beb611f28565b602002602001015160400151600160a060020a0316145b15610c155781610c1181611f5a565b9250505b80610c1f81611f5a565b915050610b8e565b5060008167ffffffffffffffff811115610c4357610c43611aa9565b604051908082528060200260200182016040528015610ca257816020015b6040805160c081018252600080825260208083018290529282018190526060808301526080820181905260a08201528252600019909201910181610c615790505b5090506000805b8451811015610d7a5786600160a060020a0316858281518110610cce57610cce611f28565b602002602001015160200151600160a060020a03161480610d1d575086600160a060020a0316858281518110610d0657610d06611f28565b602002602001015160400151600160a060020a0316145b15610d6857848181518110610d3457610d34611f28565b6020026020010151838381518110610d4e57610d4e611f28565b60200260200101819052508180610d6490611f5a565b9250505b80610d7281611f5a565b915050610ca9565b509095945050505050565b6000600282604051610d979190611d4b565b9081526040519081900360200190205460ff16610df95760405160e560020a62461bcd02815260206004820152601760248201527f557365726e616d6520646f6573206e6f7420657869737400000000000000000060448201526064016103d7565b600082604051610e099190611d4b565b90815260405190819003602001902054600160a060020a031692915050565b33600090815260046020526040908190209051610e46908390611d4b565b9081526040519081900360200190206002015460ff7401000000000000000000000000000000000000000090910416610e945760405160e560020a62461bcd0281526004016103d790611d67565b33600081815260046020526040908190209051610eb2908490611d4b565b90815260405190819003602001902060020154600160a060020a031614610eee5760405160e560020a62461bcd0281526004016103d790611d9e565b6000600282604051610f009190611d4b565b9081526040805160209281900383018120805460ff1916941515949094179093553360009081526004909252902090610f3a908390611d4b565b9081526040519081900360200190206000610f558282611964565b610f63600183016000611964565b50600201805474ffffffffffffffffffffffffffffffffffffffffff1916905560005b336000908152600160205260409020548110156110c757815160208084019190912033600090815260019092526040909120805483908110610fca57610fca611f28565b90600052602060002001604051610fe19190611fe6565b6040518091039020036110b5573360009081526001602081905260409091208054909161100d91611ff2565b8154811061101d5761101d611f28565b906000526020600020016001600033600160a060020a0316600160a060020a03168152602001908152602001600020828154811061105d5761105d611f28565b906000526020600020019081611073919061200b565b50336000908152600160205260409020805480611092576110926120ec565b6001900381819060005260206000200160006110ae9190611964565b90556110c7565b806110bf81611f5a565b915050610f86565b507f4887b75ee74c9b6425c46aa421d870ac3cb2c0a2237bef7776828a0d7a15f4f981336040516110f9929190612105565b60405180910390a150565b600160a060020a0381166000908152600860209081526040808320805482518185028101850190935280835260609492939192909184015b8282101561035c57838290600052602060002001805461115b90611d0e565b80601f016020809104026020016040519081016040528092919081815260200182805461118790611d0e565b80156111d45780601f106111a9576101008083540402835291602001916111d4565b820191906000526020600020905b8154815290600101906020018083116111b757829003601f168201915b50505050508152602001906001019061113c565b60606000805b600354811015611270576000806003838154811061120e5761120e611f28565b906000526020600020016040516112259190611fe6565b908152604080516020928190038301902054600160a060020a03166000818152600890935291205490915061125a9084612130565b925050808061126890611f5a565b9150506111ee565b5060008167ffffffffffffffff81111561128c5761128c611aa9565b6040519080825280602002602001820160405280156112bf57816020015b60608152602001906001900390816112aa5790505b5090506000805b60035481101561146c57600080600383815481106112e6576112e6611f28565b906000526020600020016040516112fd9190611fe6565b90815260408051918290036020908101832054600160a060020a031660008181526008835283812080548085028701850190955284865291955093929091849084015b828210156113ec57838290600052602060002001805461135f90611d0e565b80601f016020809104026020016040519081016040528092919081815260200182805461138b90611d0e565b80156113d85780601f106113ad576101008083540402835291602001916113d8565b820191906000526020600020905b8154815290600101906020018083116113bb57829003601f168201915b505050505081526020019060010190611340565b50505050905060005b81518110156114565781818151811061141057611410611f28565b602002602001015186868151811061142a5761142a611f28565b6020026020010181905250848061144090611f5a565b955050808061144e90611f5a565b9150506113f5565b505050808061146490611f5a565b9150506112c6565b50909392505050565b336000908152600560205260408120905b815481101561159857828282815481106114a2576114a2611f28565b9060005260206000209060060201600001541480156114e757508181815481106114ce576114ce611f28565b600091825260209091206005600690920201015460ff16155b1561158657600182828154811061150057611500611f28565b60009182526020808320600692830201600501805460ff1916941515949094179093553382529091526040902054156115545733600090815260066020526040812080549161154e83612143565b91905055505b604051339084907f0e717203d5558319840e69b0f2050a456ab8ee5ef0fa53dc522de9e70d1b1ba290600090a3505050565b8061159081611f5a565b915050611486565b505050565b336000908152600460205260409081902090516115bb908490611d4b565b9081526040519081900360200190206002015460ff74010000000000000000000000000000000000000000909104166116095760405160e560020a62461bcd0281526004016103d790611d67565b33600081815260046020526040908190209051611627908590611d4b565b90815260405190819003602001902060020154600160a060020a0316146116635760405160e560020a62461bcd0281526004016103d790611d9e565b33600090815260046020526040908190209051829190611684908590611d4b565b9081526040519081900360200190209061169e9082611e23565b507f7719b353fdd197fac056b5d3061c6c14d75612521170bf1b0de2ec84cf9332ca82823360405161081e93929190611ee9565b600160a060020a03821661172b5760405160e560020a62461bcd02815260206004820152601960248201527f496e76616c696420726563697069656e7420616464726573730000000000000060448201526064016103d7565b600081511161177f5760405160e560020a62461bcd02815260206004820152601760248201527f4d6573736167652063616e6e6f7420626520656d70747900000000000000000060448201526064016103d7565b33600160a060020a038316036117da5760405160e560020a62461bcd02815260206004820152601f60248201527f43616e6e6f742073656e64206d65737361676520746f20796f757273656c660060448201526064016103d7565b600780549060006117ea83611f5a565b90915550506040805160c0810182526007548152336020808301918252600160a060020a0386811684860181815260608601888152426080880152600060a08801819052928352600585529682208054600180820183559184529490922086516006909502019384559351908301805473ffffffffffffffffffffffffffffffffffffffff19908116928416929092179055925160028301805490941691161790915591519091829160038201906118a29082611e23565b506080820151600482015560a0909101516005909101805460ff1916911515919091179055600160a060020a03831660009081526006602052604081208054916118eb83611f5a565b9091555050600754604051428152600160a060020a0385169133917f048fe7fb7f676173adbf5a90abbccd6ac9039b2daa74c81dfa961668b5b9305b9060200160405180910390a4505050565b600060028260405161194a9190611d4b565b9081526040519081900360200190205460ff161592915050565b50805461197090611d0e565b6000825580601f10611980575050565b601f01602090049060005260206000209081019061199e91906119a1565b50565b5b808211156119b657600081556001016119a2565b5090565b8035600160a060020a03811681146119d157600080fd5b919050565b6000602082840312156119e857600080fd5b6119f1826119ba565b9392505050565b60005b83811015611a135781810151838201526020016119fb565b50506000910152565b60008151808452611a348160208601602086016119f8565b601f01601f19169290920160200192915050565b600060208083018184528085518083526040860191506040848202870101925083870160005b82811015611a9c57603f19888603018452611a8a858351611a1c565b94509285019290850190600101611a6e565b5092979650505050505050565b60e060020a634e487b7102600052604160045260246000fd5b600082601f830112611ad357600080fd5b813567ffffffffffffffff80821115611aee57611aee611aa9565b604051601f8301601f19908116603f01168101908282118183101715611b1657611b16611aa9565b81604052838152866020858801011115611b2f57600080fd5b836020870160208301376000602085830101528094505050505092915050565b600060208284031215611b6157600080fd5b813567ffffffffffffffff811115611b7857600080fd5b611b8484828501611ac2565b949350505050565b6020815260006119f16020830184611a1c565b60008060408385031215611bb257600080fd5b823567ffffffffffffffff80821115611bca57600080fd5b611bd686838701611ac2565b93506020850135915080821115611bec57600080fd5b50611bf985828601611ac2565b9150509250929050565b60208082528251828201819052600091906040908185019080840286018301878501865b83811015611ca357888303603f1901855281518051845287810151600160a060020a039081168986015287820151168785015260608082015160c08287018190529190611c7683880182611a1c565b6080858101519089015260a094850151151594909701939093525050509386019390860190600101611c27565b509098975050505050505050565b600060208284031215611cc357600080fd5b5035919050565b60008060408385031215611cdd57600080fd5b611ce6836119ba565b9150602083013567ffffffffffffffff811115611d0257600080fd5b611bf985828601611ac2565b600281046001821680611d2257607f821691505b602082108103611d455760e060020a634e487b7102600052602260045260246000fd5b50919050565b60008251611d5d8184602087016119f8565b9190910192915050565b60208082526013908201527f55736572206e6f74207265676973746572656400000000000000000000000000604082015260600190565b60208082526013908201527f556e617574686f72697a65642061636365737300000000000000000000000000604082015260600190565b601f821115611598576000818152602081206020601f86010481016020861015611dfc5750805b6020601f860104820191505b81811015611e1b57828155600101611e08565b505050505050565b815167ffffffffffffffff811115611e3d57611e3d611aa9565b611e5181611e4b8454611d0e565b84611dd5565b602080601f831160018114611e8a5760008415611e6e5750858301515b60028086026008870290910a6000190419821617865550611e1b565b600085815260208120601f198616915b82811015611eb957888601518255948401946001909101908401611e9a565b5085821015611ed957878501516008601f88160260020a60001904191681555b5050505050600202600101905550565b606081526000611efc6060830186611a1c565b8281036020840152611f0e8186611a1c565b915050600160a060020a0383166040830152949350505050565b60e060020a634e487b7102600052603260045260246000fd5b60e060020a634e487b7102600052601160045260246000fd5b600060018201611f6c57611f6c611f41565b5060010190565b60008154611f8081611d0e565b60018281168015611f985760018114611fad57611fdc565b60ff1984168752821515830287019450611fdc565b8560005260208060002060005b85811015611fd35781548a820152908401908201611fba565b50505082870194505b5050505092915050565b60006119f18284611f73565b8181038181111561200557612005611f41565b92915050565b818103612016575050565b6120208254611d0e565b67ffffffffffffffff81111561203857612038611aa9565b61204681611e4b8454611d0e565b6000601f82116001811461207e57600083156120625750848201545b60028085026008860290910a60001904198216178555506120e5565b600085815260209020601f19841690600086815260209020845b838110156120b85782860154825560019586019590910190602001612098565b50858310156120d857818501546008601f88160260020a60001904191681555b5050506001600284020184555b5050505050565b60e060020a634e487b7102600052603160045260246000fd5b6040815260006121186040830185611a1c565b9050600160a060020a03831660208301529392505050565b8082018082111561200557612005611f41565b60008161215257612152611f41565b50600019019056fea264697066735822122039198922d56eb6175b612d10a0d6296a0a0394ac3bed8b66e5e96d7fe46942b664736f6c63430008150033",
  "immutableReferences": {},
  "source": "// SPDX-License-Identifier: MIT\npragma solidity ^0.8.0;\n\ncontract UserAuth {\n    // Structure to store user information\n    struct User {\n        string ipfsHash;      // IPFS hash for storing user data\n        string username;      // Username for the user\n        address userAddress;  // Ethereum address of the user\n        bool isRegistered;    // Flag to check if user exists\n    }\n\n    // New Message structure\n    struct Message {\n        uint256 id;\n        address sender;\n        address recipient;\n        string content;\n        uint256 timestamp;\n        bool isRead;\n    }\n\n    // Modified mappings\n    mapping(string => address) private usernameToAddress;  // Map username to address\n    mapping(address => string[]) private usernames;        // Map address to usernames\n    mapping(string => bool) private usernameExists;        // Track if username exists\n    string[] private allUsernames;                         // Array to track all usernames\n\n    // State variables\n    mapping(address => mapping(string => User)) private users;    // Map address and username to user data\n\n    // New mappings for messages\n    mapping(address => Message[]) private userMessages;\n    mapping(address => uint256) private unreadMessageCount;\n    uint256 private messageIdCounter;\n\n    // New mapping for IPFS hashes\n    mapping(address => string[]) private userIpfsHashes;\n\n    // Events\n    event UserRegistered(string username, string ipfsHash, address userAddress);\n    event UserUpdated(string username, string newIpfsHash, address userAddress);\n    event UserReset(string username, address userAddress);\n\n    // New events for messages\n    event MessageSent(\n        uint256 indexed messageId,\n        address indexed from,\n        address indexed to,\n        uint256 timestamp\n    );\n    event MessageRead(uint256 indexed messageId, address indexed by);\n\n    // Register a new user\n    function register(string memory _username, string memory _ipfsHash) public {\n        // Check if the username is empty\n        require(bytes(_username).length > 0, \"Username cannot be empty\");\n        require(bytes(_ipfsHash).length > 0, \"IPFS hash cannot be empty\");\n        \n        // Ensure the username is unique globally\n        require(!usernameExists[_username], \"Username already exists\");\n        \n        // Store username to address mapping\n        usernameToAddress[_username] = msg.sender;\n        \n        // Add username to global list\n        allUsernames.push(_username);\n        \n        // Add to user's usernames\n        usernames[msg.sender].push(_username);\n        \n        // Mark username as taken\n        usernameExists[_username] = true;\n\n        // Store the IPFS hash\n        userIpfsHashes[msg.sender].push(_ipfsHash);\n\n        // Create new user\n        users[msg.sender][_username] = User({\n            ipfsHash: _ipfsHash,\n            username: _username,\n            userAddress: msg.sender,\n            isRegistered: true\n        });\n\n        // Emit registration event\n        emit UserRegistered(_username, _ipfsHash, msg.sender);\n    }\n\n    // Login function - Returns IPFS hash for a registered user\n    function login(string memory _username) public view returns (string memory) {\n        // Ensure the user is registered\n        require(users[msg.sender][_username].isRegistered, \"User not registered\");\n        require(users[msg.sender][_username].userAddress == msg.sender, \"Unauthorized access\");\n        \n        // Return the IPFS hash\n        return users[msg.sender][_username].ipfsHash;\n    }\n\n    // Update user data\n    function updateUser(string memory _username, string memory _newIpfsHash) public {\n        // Ensure the user exists and is the owner\n        require(users[msg.sender][_username].isRegistered, \"User not registered\");\n        require(users[msg.sender][_username].userAddress == msg.sender, \"Unauthorized access\");\n        \n        // Update the IPFS hash\n        users[msg.sender][_username].ipfsHash = _newIpfsHash;\n        \n        // Emit update event\n        emit UserUpdated(_username, _newIpfsHash, msg.sender);\n    }\n\n    // Get address for a username\n    function getAddressByUsername(string memory _username) public view returns (address) {\n        require(usernameExists[_username], \"Username does not exist\");\n        return usernameToAddress[_username];\n    }\n\n    // Get all registered usernames\n    function getAllUsernames() public view returns (string[] memory) {\n        return allUsernames;\n    }\n\n    // Get all usernames for an address\n    function getUsernames(address _userAddress) public view returns (string[] memory) {\n        return usernames[_userAddress];\n    }\n\n    // Check if a username exists\n    function isUsernameAvailable(string memory _username) public view returns (bool) {\n        return !usernameExists[_username];\n    }\n\n    // Reset user registration (FOR DEVELOPMENT/TESTING PURPOSE ONLY)\n    function resetUser(string memory _username) public {\n        // Ensure the user is already registered\n        require(users[msg.sender][_username].isRegistered, \"User not registered\");\n        require(users[msg.sender][_username].userAddress == msg.sender, \"Unauthorized access\");\n\n        // Remove username from global tracking\n        usernameExists[_username] = false;\n\n        // Remove user data\n        delete users[msg.sender][_username];\n\n        // Remove username from user's list\n        for(uint i = 0; i < usernames[msg.sender].length; i++) {\n            if(keccak256(bytes(usernames[msg.sender][i])) == keccak256(bytes(_username))) {\n                // Replace with last element and pop\n                usernames[msg.sender][i] = usernames[msg.sender][usernames[msg.sender].length - 1];\n                usernames[msg.sender].pop();\n                break;\n            }\n        }\n\n        // Emit reset event\n        emit UserReset(_username, msg.sender);\n    }\n\n    // New function to send a message\n    function sendMessage(address _to, string memory _content) public {\n        require(_to != address(0), \"Invalid recipient address\");\n        require(bytes(_content).length > 0, \"Message cannot be empty\");\n        require(_to != msg.sender, \"Cannot send message to yourself\");\n\n        messageIdCounter++;\n        \n        Message memory newMessage = Message({\n            id: messageIdCounter,\n            sender: msg.sender,\n            recipient: _to,\n            content: _content,\n            timestamp: block.timestamp,\n            isRead: false\n        });\n\n        userMessages[_to].push(newMessage);\n        unreadMessageCount[_to]++;\n\n        emit MessageSent(messageIdCounter, msg.sender, _to, block.timestamp);\n    }\n\n    // Get unread message count\n    function getUnreadMessageCount() public view returns (uint256) {\n        return unreadMessageCount[msg.sender];\n    }\n\n    // Get all messages for the caller\n    function getMyMessages() public view returns (Message[] memory) {\n        return userMessages[msg.sender];\n    }\n\n    // Mark a message as read\n    function markMessageAsRead(uint256 _messageId) public {\n        Message[] storage messages = userMessages[msg.sender];\n        \n        for (uint i = 0; i < messages.length; i++) {\n            if (messages[i].id == _messageId && !messages[i].isRead) {\n                messages[i].isRead = true;\n                if (unreadMessageCount[msg.sender] > 0) {\n                    unreadMessageCount[msg.sender]--;\n                }\n                emit MessageRead(_messageId, msg.sender);\n                break;\n            }\n        }\n    }\n\n    // Get messages between current user and another user\n    function getMessagesWith(address _otherUser) public view returns (Message[] memory) {\n        Message[] memory allMessages = userMessages[msg.sender];\n        uint256 relevantCount = 0;\n\n        // Count relevant messages\n        for (uint i = 0; i < allMessages.length; i++) {\n            if (allMessages[i].sender == _otherUser || allMessages[i].recipient == _otherUser) {\n                relevantCount++;\n            }\n        }\n\n        // Create array of relevant messages\n        Message[] memory relevantMessages = new Message[](relevantCount);\n        uint256 currentIndex = 0;\n\n        for (uint i = 0; i < allMessages.length; i++) {\n            if (allMessages[i].sender == _otherUser || allMessages[i].recipient == _otherUser) {\n                relevantMessages[currentIndex] = allMessages[i];\n                currentIndex++;\n            }\n        }\n\n        return relevantMessages;\n    }\n\n    // Add this function to get user's IPFS hashes\n    function getUserHashes(address _userAddress) public view returns (string[] memory) {\n        return userIpfsHashes[_userAddress];\n    }\n\n    // Add this function to get all users' IPFS hashes\n    function getAllUserHashes() public view returns (string[] memory) {\n        uint256 totalHashes = 0;\n        \n        // Count total hashes\n        for(uint i = 0; i < allUsernames.length; i++) {\n            address userAddr = usernameToAddress[allUsernames[i]];\n            totalHashes += userIpfsHashes[userAddr].length;\n        }\n        \n        // Create array for all hashes\n        string[] memory allHashes = new string[](totalHashes);\n        uint256 currentIndex = 0;\n        \n        // Collect all hashes\n        for(uint i = 0; i < allUsernames.length; i++) {\n            address userAddr = usernameToAddress[allUsernames[i]];\n            string[] memory userHashes = userIpfsHashes[userAddr];\n            \n            for(uint j = 0; j < userHashes.length; j++) {\n                allHashes[currentIndex] = userHashes[j];\n                currentIndex++;\n            }\n        }\n        \n        return allHashes;\n    }\n}\n",
  "sourcePath": "/Users/syedroshanalishah/Desktop/Blockchain/Blockchain_app_FYP/contracts/UserAuth.sol",
  "compiler": {
    "name": "solc",
    "version": "0.8.21+commit.d9974bed.Emscripten.clang"
  },
  "schemaVersion": "3.4.16",
  "updatedAt": "2025-04-23T18:04:19.176Z",
  "networkType": "ethereum",
  "devdoc": {
    "kind": "dev",
    "methods": {},
    "version": 1
  },
  "userdoc": {
    "kind": "user",
    "methods": {},
    "version": 1
  }
}